{
	"todoList.sol": {
		"TodoList": {
			"abi": [
				{
					"anonymous": false,
					"inputs": [
						{
							"indexed": false,
							"internalType": "uint256",
							"name": "id",
							"type": "uint256"
						},
						{
							"indexed": false,
							"internalType": "bool",
							"name": "completed",
							"type": "bool"
						}
					],
					"name": "TaskCompleted",
					"type": "event"
				},
				{
					"anonymous": false,
					"inputs": [
						{
							"indexed": false,
							"internalType": "uint256",
							"name": "id",
							"type": "uint256"
						},
						{
							"indexed": false,
							"internalType": "string",
							"name": "description",
							"type": "string"
						},
						{
							"indexed": false,
							"internalType": "bool",
							"name": "completed",
							"type": "bool"
						}
					],
					"name": "TaskCreated",
					"type": "event"
				},
				{
					"inputs": [
						{
							"internalType": "uint256",
							"name": "_id",
							"type": "uint256"
						}
					],
					"name": "completeTask",
					"outputs": [],
					"stateMutability": "nonpayable",
					"type": "function"
				},
				{
					"inputs": [
						{
							"internalType": "string",
							"name": "_description",
							"type": "string"
						}
					],
					"name": "createTask",
					"outputs": [],
					"stateMutability": "nonpayable",
					"type": "function"
				},
				{
					"inputs": [
						{
							"internalType": "uint256",
							"name": "_id",
							"type": "uint256"
						}
					],
					"name": "getTask",
					"outputs": [
						{
							"components": [
								{
									"internalType": "uint256",
									"name": "id",
									"type": "uint256"
								},
								{
									"internalType": "string",
									"name": "description",
									"type": "string"
								},
								{
									"internalType": "bool",
									"name": "completed",
									"type": "bool"
								}
							],
							"internalType": "struct TodoList.Task",
							"name": "",
							"type": "tuple"
						}
					],
					"stateMutability": "view",
					"type": "function"
				},
				{
					"inputs": [],
					"name": "taskCount",
					"outputs": [
						{
							"internalType": "uint256",
							"name": "",
							"type": "uint256"
						}
					],
					"stateMutability": "view",
					"type": "function"
				},
				{
					"inputs": [
						{
							"internalType": "uint256",
							"name": "",
							"type": "uint256"
						}
					],
					"name": "tasks",
					"outputs": [
						{
							"internalType": "uint256",
							"name": "id",
							"type": "uint256"
						},
						{
							"internalType": "string",
							"name": "description",
							"type": "string"
						},
						{
							"internalType": "bool",
							"name": "completed",
							"type": "bool"
						}
					],
					"stateMutability": "view",
					"type": "function"
				}
			],
			"devdoc": {
				"kind": "dev",
				"methods": {},
				"version": 1
			},
			"evm": {
				"assembly": "    /* \"todoList.sol\":60:891  contract TodoList {... */\n  mstore(0x40, 0x80)\n    /* \"todoList.sol\":112:113  0 */\n  0x00\n    /* \"todoList.sol\":85:113  uint256 public taskCount = 0 */\n  dup1\n  sstore\n    /* \"todoList.sol\":60:891  contract TodoList {... */\n  callvalue\n  dup1\n  iszero\n  tag_1\n  jumpi\n  0x00\n  dup1\n  revert\ntag_1:\n  pop\n  dataSize(sub_0)\n  dup1\n  dataOffset(sub_0)\n  0x00\n  codecopy\n  0x00\n  return\nstop\n\nsub_0: assembly {\n        /* \"todoList.sol\":60:891  contract TodoList {... */\n      mstore(0x40, 0x80)\n      callvalue\n      dup1\n      iszero\n      tag_1\n      jumpi\n      0x00\n      dup1\n      revert\n    tag_1:\n      pop\n      jumpi(tag_2, lt(calldatasize, 0x04))\n      shr(0xe0, calldataload(0x00))\n      dup1\n      0x111002aa\n      eq\n      tag_3\n      jumpi\n      dup1\n      0x1d65e77e\n      eq\n      tag_4\n      jumpi\n      dup1\n      0x8d977672\n      eq\n      tag_5\n      jumpi\n      dup1\n      0xb6cb58a5\n      eq\n      tag_6\n      jumpi\n      dup1\n      0xe1e29558\n      eq\n      tag_7\n      jumpi\n    tag_2:\n      0x00\n      dup1\n      revert\n        /* \"todoList.sol\":399:609  function createTask(string memory _description) public {... */\n    tag_3:\n      tag_8\n      0x04\n      dup1\n      calldatasize\n      sub\n      dup2\n      add\n      swap1\n      tag_9\n      swap2\n      swap1\n      tag_10\n      jump\t// in\n    tag_9:\n      tag_11\n      jump\t// in\n    tag_8:\n      stop\n        /* \"todoList.sol\":788:888  function getTask(uint256 _id) public view returns (Task memory) {... */\n    tag_4:\n      tag_12\n      0x04\n      dup1\n      calldatasize\n      sub\n      dup2\n      add\n      swap1\n      tag_13\n      swap2\n      swap1\n      tag_14\n      jump\t// in\n    tag_13:\n      tag_15\n      jump\t// in\n    tag_12:\n      mload(0x40)\n      tag_16\n      swap2\n      swap1\n      tag_17\n      jump\t// in\n    tag_16:\n      mload(0x40)\n      dup1\n      swap2\n      sub\n      swap1\n      return\n        /* \"todoList.sol\":225:262  mapping(uint256 => Task) public tasks */\n    tag_5:\n      tag_18\n      0x04\n      dup1\n      calldatasize\n      sub\n      dup2\n      add\n      swap1\n      tag_19\n      swap2\n      swap1\n      tag_14\n      jump\t// in\n    tag_19:\n      tag_20\n      jump\t// in\n    tag_18:\n      mload(0x40)\n      tag_21\n      swap4\n      swap3\n      swap2\n      swap1\n      tag_22\n      jump\t// in\n    tag_21:\n      mload(0x40)\n      dup1\n      swap2\n      sub\n      swap1\n      return\n        /* \"todoList.sol\":85:113  uint256 public taskCount = 0 */\n    tag_6:\n      tag_23\n      tag_24\n      jump\t// in\n    tag_23:\n      mload(0x40)\n      tag_25\n      swap2\n      swap1\n      tag_26\n      jump\t// in\n    tag_25:\n      mload(0x40)\n      dup1\n      swap2\n      sub\n      swap1\n      return\n        /* \"todoList.sol\":617:780  function completeTask(uint256 _id) public {... */\n    tag_7:\n      tag_27\n      0x04\n      dup1\n      calldatasize\n      sub\n      dup2\n      add\n      swap1\n      tag_28\n      swap2\n      swap1\n      tag_14\n      jump\t// in\n    tag_28:\n      tag_29\n      jump\t// in\n    tag_27:\n      stop\n        /* \"todoList.sol\":399:609  function createTask(string memory _description) public {... */\n    tag_11:\n        /* \"todoList.sol\":465:474  taskCount */\n      0x00\n      dup1\n        /* \"todoList.sol\":465:476  taskCount++ */\n      dup2\n      sload\n      dup1\n      swap3\n      swap2\n      swap1\n      tag_31\n      swap1\n      tag_32\n      jump\t// in\n    tag_31:\n      swap2\n      swap1\n      pop\n      sstore\n      pop\n        /* \"todoList.sol\":506:542  Task(taskCount, _description, false) */\n      mload(0x40)\n      dup1\n      0x60\n      add\n      0x40\n      mstore\n      dup1\n        /* \"todoList.sol\":511:520  taskCount */\n      sload(0x00)\n        /* \"todoList.sol\":506:542  Task(taskCount, _description, false) */\n      dup2\n      mstore\n      0x20\n      add\n        /* \"todoList.sol\":522:534  _description */\n      dup3\n        /* \"todoList.sol\":506:542  Task(taskCount, _description, false) */\n      dup2\n      mstore\n      0x20\n      add\n        /* \"todoList.sol\":536:541  false */\n      0x00\n        /* \"todoList.sol\":506:542  Task(taskCount, _description, false) */\n      iszero\n      iszero\n      dup2\n      mstore\n      pop\n        /* \"todoList.sol\":487:492  tasks */\n      0x01\n        /* \"todoList.sol\":487:503  tasks[taskCount] */\n      0x00\n        /* \"todoList.sol\":493:502  taskCount */\n      dup1\n      sload\n        /* \"todoList.sol\":487:503  tasks[taskCount] */\n      dup2\n      mstore\n      0x20\n      add\n      swap1\n      dup2\n      mstore\n      0x20\n      add\n      0x00\n      keccak256\n        /* \"todoList.sol\":487:542  tasks[taskCount] = Task(taskCount, _description, false) */\n      0x00\n      dup3\n      add\n      mload\n      dup2\n      0x00\n      add\n      sstore\n      0x20\n      dup3\n      add\n      mload\n      dup2\n      0x01\n      add\n      swap1\n      dup2\n      tag_33\n      swap2\n      swap1\n      tag_34\n      jump\t// in\n    tag_33:\n      pop\n      0x40\n      dup3\n      add\n      mload\n      dup2\n      0x02\n      add\n      exp(0x0100, 0x00)\n      dup2\n      sload\n      dup2\n      0xff\n      mul\n      not\n      and\n      swap1\n      dup4\n      iszero\n      iszero\n      mul\n      or\n      swap1\n      sstore\n      pop\n      swap1\n      pop\n      pop\n        /* \"todoList.sol\":558:601  TaskCreated(taskCount, _description, false) */\n      0x05d0fb833127fc08168556d0e7ca9554fc3f6bc843b3b7d2bf1c35aea6bab660\n        /* \"todoList.sol\":570:579  taskCount */\n      sload(0x00)\n        /* \"todoList.sol\":581:593  _description */\n      dup3\n        /* \"todoList.sol\":595:600  false */\n      0x00\n        /* \"todoList.sol\":558:601  TaskCreated(taskCount, _description, false) */\n      mload(0x40)\n      tag_35\n      swap4\n      swap3\n      swap2\n      swap1\n      tag_22\n      jump\t// in\n    tag_35:\n      mload(0x40)\n      dup1\n      swap2\n      sub\n      swap1\n      log1\n        /* \"todoList.sol\":399:609  function createTask(string memory _description) public {... */\n      pop\n      jump\t// out\n        /* \"todoList.sol\":788:888  function getTask(uint256 _id) public view returns (Task memory) {... */\n    tag_15:\n        /* \"todoList.sol\":839:850  Task memory */\n      tag_36\n      tag_37\n      jump\t// in\n    tag_36:\n        /* \"todoList.sol\":870:875  tasks */\n      0x01\n        /* \"todoList.sol\":870:880  tasks[_id] */\n      0x00\n        /* \"todoList.sol\":876:879  _id */\n      dup4\n        /* \"todoList.sol\":870:880  tasks[_id] */\n      dup2\n      mstore\n      0x20\n      add\n      swap1\n      dup2\n      mstore\n      0x20\n      add\n      0x00\n      keccak256\n        /* \"todoList.sol\":863:880  return tasks[_id] */\n      mload(0x40)\n      dup1\n      0x60\n      add\n      0x40\n      mstore\n      swap1\n      dup2\n      0x00\n      dup3\n      add\n      sload\n      dup2\n      mstore\n      0x20\n      add\n      0x01\n      dup3\n      add\n      dup1\n      sload\n      tag_39\n      swap1\n      tag_40\n      jump\t// in\n    tag_39:\n      dup1\n      0x1f\n      add\n      0x20\n      dup1\n      swap2\n      div\n      mul\n      0x20\n      add\n      mload(0x40)\n      swap1\n      dup2\n      add\n      0x40\n      mstore\n      dup1\n      swap3\n      swap2\n      swap1\n      dup2\n      dup2\n      mstore\n      0x20\n      add\n      dup3\n      dup1\n      sload\n      tag_41\n      swap1\n      tag_40\n      jump\t// in\n    tag_41:\n      dup1\n      iszero\n      tag_42\n      jumpi\n      dup1\n      0x1f\n      lt\n      tag_43\n      jumpi\n      0x0100\n      dup1\n      dup4\n      sload\n      div\n      mul\n      dup4\n      mstore\n      swap2\n      0x20\n      add\n      swap2\n      jump(tag_42)\n    tag_43:\n      dup3\n      add\n      swap2\n      swap1\n      0x00\n      mstore\n      keccak256(0x00, 0x20)\n      swap1\n    tag_44:\n      dup2\n      sload\n      dup2\n      mstore\n      swap1\n      0x01\n      add\n      swap1\n      0x20\n      add\n      dup1\n      dup4\n      gt\n      tag_44\n      jumpi\n      dup3\n      swap1\n      sub\n      0x1f\n      and\n      dup3\n      add\n      swap2\n    tag_42:\n      pop\n      pop\n      pop\n      pop\n      pop\n      dup2\n      mstore\n      0x20\n      add\n      0x02\n      dup3\n      add\n      0x00\n      swap1\n      sload\n      swap1\n      0x0100\n      exp\n      swap1\n      div\n      0xff\n      and\n      iszero\n      iszero\n      iszero\n      iszero\n      dup2\n      mstore\n      pop\n      pop\n      swap1\n      pop\n        /* \"todoList.sol\":788:888  function getTask(uint256 _id) public view returns (Task memory) {... */\n      swap2\n      swap1\n      pop\n      jump\t// out\n        /* \"todoList.sol\":225:262  mapping(uint256 => Task) public tasks */\n    tag_20:\n      mstore(0x20, 0x01)\n      dup1\n      0x00\n      mstore\n      keccak256(0x00, 0x40)\n      0x00\n      swap2\n      pop\n      swap1\n      pop\n      dup1\n      0x00\n      add\n      sload\n      swap1\n      dup1\n      0x01\n      add\n      dup1\n      sload\n      tag_45\n      swap1\n      tag_40\n      jump\t// in\n    tag_45:\n      dup1\n      0x1f\n      add\n      0x20\n      dup1\n      swap2\n      div\n      mul\n      0x20\n      add\n      mload(0x40)\n      swap1\n      dup2\n      add\n      0x40\n      mstore\n      dup1\n      swap3\n      swap2\n      swap1\n      dup2\n      dup2\n      mstore\n      0x20\n      add\n      dup3\n      dup1\n      sload\n      tag_46\n      swap1\n      tag_40\n      jump\t// in\n    tag_46:\n      dup1\n      iszero\n      tag_47\n      jumpi\n      dup1\n      0x1f\n      lt\n      tag_48\n      jumpi\n      0x0100\n      dup1\n      dup4\n      sload\n      div\n      mul\n      dup4\n      mstore\n      swap2\n      0x20\n      add\n      swap2\n      jump(tag_47)\n    tag_48:\n      dup3\n      add\n      swap2\n      swap1\n      0x00\n      mstore\n      keccak256(0x00, 0x20)\n      swap1\n    tag_49:\n      dup2\n      sload\n      dup2\n      mstore\n      swap1\n      0x01\n      add\n      swap1\n      0x20\n      add\n      dup1\n      dup4\n      gt\n      tag_49\n      jumpi\n      dup3\n      swap1\n      sub\n      0x1f\n      and\n      dup3\n      add\n      swap2\n    tag_47:\n      pop\n      pop\n      pop\n      pop\n      pop\n      swap1\n      dup1\n      0x02\n      add\n      0x00\n      swap1\n      sload\n      swap1\n      0x0100\n      exp\n      swap1\n      div\n      0xff\n      and\n      swap1\n      pop\n      dup4\n      jump\t// out\n        /* \"todoList.sol\":85:113  uint256 public taskCount = 0 */\n    tag_24:\n      sload(0x00)\n      dup2\n      jump\t// out\n        /* \"todoList.sol\":617:780  function completeTask(uint256 _id) public {... */\n    tag_29:\n        /* \"todoList.sol\":670:687  Task storage task */\n      0x00\n        /* \"todoList.sol\":690:695  tasks */\n      0x01\n        /* \"todoList.sol\":690:700  tasks[_id] */\n      0x00\n        /* \"todoList.sol\":696:699  _id */\n      dup4\n        /* \"todoList.sol\":690:700  tasks[_id] */\n      dup2\n      mstore\n      0x20\n      add\n      swap1\n      dup2\n      mstore\n      0x20\n      add\n      0x00\n      keccak256\n        /* \"todoList.sol\":670:700  Task storage task = tasks[_id] */\n      swap1\n      pop\n        /* \"todoList.sol\":728:732  true */\n      0x01\n        /* \"todoList.sol\":711:715  task */\n      dup2\n        /* \"todoList.sol\":711:725  task.completed */\n      0x02\n      add\n      0x00\n        /* \"todoList.sol\":711:732  task.completed = true */\n      0x0100\n      exp\n      dup2\n      sload\n      dup2\n      0xff\n      mul\n      not\n      and\n      swap1\n      dup4\n      iszero\n      iszero\n      mul\n      or\n      swap1\n      sstore\n      pop\n        /* \"todoList.sol\":748:772  TaskCompleted(_id, true) */\n      0xe21fa966ca5cd02748c0752352d18c48165e61cb55b4c29cccf924b5a95fcff1\n        /* \"todoList.sol\":762:765  _id */\n      dup3\n        /* \"todoList.sol\":767:771  true */\n      0x01\n        /* \"todoList.sol\":748:772  TaskCompleted(_id, true) */\n      mload(0x40)\n      tag_51\n      swap3\n      swap2\n      swap1\n      tag_52\n      jump\t// in\n    tag_51:\n      mload(0x40)\n      dup1\n      swap2\n      sub\n      swap1\n      log1\n        /* \"todoList.sol\":659:780  {... */\n      pop\n        /* \"todoList.sol\":617:780  function completeTask(uint256 _id) public {... */\n      pop\n      jump\t// out\n    tag_37:\n      mload(0x40)\n      dup1\n      0x60\n      add\n      0x40\n      mstore\n      dup1\n      0x00\n      dup2\n      mstore\n      0x20\n      add\n      0x60\n      dup2\n      mstore\n      0x20\n      add\n      iszero(iszero(0x00))\n      dup2\n      mstore\n      pop\n      swap1\n      jump\t// out\n        /* \"#utility.yul\":7:82   */\n    tag_53:\n        /* \"#utility.yul\":40:46   */\n      0x00\n        /* \"#utility.yul\":73:75   */\n      0x40\n        /* \"#utility.yul\":67:76   */\n      mload\n        /* \"#utility.yul\":57:76   */\n      swap1\n      pop\n        /* \"#utility.yul\":7:82   */\n      swap1\n      jump\t// out\n        /* \"#utility.yul\":88:205   */\n    tag_54:\n        /* \"#utility.yul\":197:198   */\n      0x00\n        /* \"#utility.yul\":194:195   */\n      dup1\n        /* \"#utility.yul\":187:199   */\n      revert\n        /* \"#utility.yul\":211:328   */\n    tag_55:\n        /* \"#utility.yul\":320:321   */\n      0x00\n        /* \"#utility.yul\":317:318   */\n      dup1\n        /* \"#utility.yul\":310:322   */\n      revert\n        /* \"#utility.yul\":334:451   */\n    tag_56:\n        /* \"#utility.yul\":443:444   */\n      0x00\n        /* \"#utility.yul\":440:441   */\n      dup1\n        /* \"#utility.yul\":433:445   */\n      revert\n        /* \"#utility.yul\":457:574   */\n    tag_57:\n        /* \"#utility.yul\":566:567   */\n      0x00\n        /* \"#utility.yul\":563:564   */\n      dup1\n        /* \"#utility.yul\":556:568   */\n      revert\n        /* \"#utility.yul\":580:682   */\n    tag_58:\n        /* \"#utility.yul\":621:627   */\n      0x00\n        /* \"#utility.yul\":672:674   */\n      0x1f\n        /* \"#utility.yul\":668:675   */\n      not\n        /* \"#utility.yul\":663:665   */\n      0x1f\n        /* \"#utility.yul\":656:661   */\n      dup4\n        /* \"#utility.yul\":652:666   */\n      add\n        /* \"#utility.yul\":648:676   */\n      and\n        /* \"#utility.yul\":638:676   */\n      swap1\n      pop\n        /* \"#utility.yul\":580:682   */\n      swap2\n      swap1\n      pop\n      jump\t// out\n        /* \"#utility.yul\":688:868   */\n    tag_59:\n        /* \"#utility.yul\":736:813   */\n      0x4e487b7100000000000000000000000000000000000000000000000000000000\n        /* \"#utility.yul\":733:734   */\n      0x00\n        /* \"#utility.yul\":726:814   */\n      mstore\n        /* \"#utility.yul\":833:837   */\n      0x41\n        /* \"#utility.yul\":830:831   */\n      0x04\n        /* \"#utility.yul\":823:838   */\n      mstore\n        /* \"#utility.yul\":857:861   */\n      0x24\n        /* \"#utility.yul\":854:855   */\n      0x00\n        /* \"#utility.yul\":847:862   */\n      revert\n        /* \"#utility.yul\":874:1155   */\n    tag_60:\n        /* \"#utility.yul\":957:984   */\n      tag_107\n        /* \"#utility.yul\":979:983   */\n      dup3\n        /* \"#utility.yul\":957:984   */\n      tag_58\n      jump\t// in\n    tag_107:\n        /* \"#utility.yul\":949:955   */\n      dup2\n        /* \"#utility.yul\":945:985   */\n      add\n        /* \"#utility.yul\":1087:1093   */\n      dup2\n        /* \"#utility.yul\":1075:1085   */\n      dup2\n        /* \"#utility.yul\":1072:1094   */\n      lt\n        /* \"#utility.yul\":1051:1069   */\n      0xffffffffffffffff\n        /* \"#utility.yul\":1039:1049   */\n      dup3\n        /* \"#utility.yul\":1036:1070   */\n      gt\n        /* \"#utility.yul\":1033:1095   */\n      or\n        /* \"#utility.yul\":1030:1118   */\n      iszero\n      tag_108\n      jumpi\n        /* \"#utility.yul\":1098:1116   */\n      tag_109\n      tag_59\n      jump\t// in\n    tag_109:\n        /* \"#utility.yul\":1030:1118   */\n    tag_108:\n        /* \"#utility.yul\":1138:1148   */\n      dup1\n        /* \"#utility.yul\":1134:1136   */\n      0x40\n        /* \"#utility.yul\":1127:1149   */\n      mstore\n        /* \"#utility.yul\":917:1155   */\n      pop\n        /* \"#utility.yul\":874:1155   */\n      pop\n      pop\n      jump\t// out\n        /* \"#utility.yul\":1161:1290   */\n    tag_61:\n        /* \"#utility.yul\":1195:1201   */\n      0x00\n        /* \"#utility.yul\":1222:1242   */\n      tag_111\n      tag_53\n      jump\t// in\n    tag_111:\n        /* \"#utility.yul\":1212:1242   */\n      swap1\n      pop\n        /* \"#utility.yul\":1251:1284   */\n      tag_112\n        /* \"#utility.yul\":1279:1283   */\n      dup3\n        /* \"#utility.yul\":1271:1277   */\n      dup3\n        /* \"#utility.yul\":1251:1284   */\n      tag_60\n      jump\t// in\n    tag_112:\n        /* \"#utility.yul\":1161:1290   */\n      swap2\n      swap1\n      pop\n      jump\t// out\n        /* \"#utility.yul\":1296:1604   */\n    tag_62:\n        /* \"#utility.yul\":1358:1362   */\n      0x00\n        /* \"#utility.yul\":1448:1466   */\n      0xffffffffffffffff\n        /* \"#utility.yul\":1440:1446   */\n      dup3\n        /* \"#utility.yul\":1437:1467   */\n      gt\n        /* \"#utility.yul\":1434:1490   */\n      iszero\n      tag_114\n      jumpi\n        /* \"#utility.yul\":1470:1488   */\n      tag_115\n      tag_59\n      jump\t// in\n    tag_115:\n        /* \"#utility.yul\":1434:1490   */\n    tag_114:\n        /* \"#utility.yul\":1508:1537   */\n      tag_116\n        /* \"#utility.yul\":1530:1536   */\n      dup3\n        /* \"#utility.yul\":1508:1537   */\n      tag_58\n      jump\t// in\n    tag_116:\n        /* \"#utility.yul\":1500:1537   */\n      swap1\n      pop\n        /* \"#utility.yul\":1592:1596   */\n      0x20\n        /* \"#utility.yul\":1586:1590   */\n      dup2\n        /* \"#utility.yul\":1582:1597   */\n      add\n        /* \"#utility.yul\":1574:1597   */\n      swap1\n      pop\n        /* \"#utility.yul\":1296:1604   */\n      swap2\n      swap1\n      pop\n      jump\t// out\n        /* \"#utility.yul\":1610:1758   */\n    tag_63:\n        /* \"#utility.yul\":1708:1714   */\n      dup3\n        /* \"#utility.yul\":1703:1706   */\n      dup2\n        /* \"#utility.yul\":1698:1701   */\n      dup4\n        /* \"#utility.yul\":1685:1715   */\n      calldatacopy\n        /* \"#utility.yul\":1749:1750   */\n      0x00\n        /* \"#utility.yul\":1740:1746   */\n      dup4\n        /* \"#utility.yul\":1735:1738   */\n      dup4\n        /* \"#utility.yul\":1731:1747   */\n      add\n        /* \"#utility.yul\":1724:1751   */\n      mstore\n        /* \"#utility.yul\":1610:1758   */\n      pop\n      pop\n      pop\n      jump\t// out\n        /* \"#utility.yul\":1764:2189   */\n    tag_64:\n        /* \"#utility.yul\":1842:1847   */\n      0x00\n        /* \"#utility.yul\":1867:1933   */\n      tag_119\n        /* \"#utility.yul\":1883:1932   */\n      tag_120\n        /* \"#utility.yul\":1925:1931   */\n      dup5\n        /* \"#utility.yul\":1883:1932   */\n      tag_62\n      jump\t// in\n    tag_120:\n        /* \"#utility.yul\":1867:1933   */\n      tag_61\n      jump\t// in\n    tag_119:\n        /* \"#utility.yul\":1858:1933   */\n      swap1\n      pop\n        /* \"#utility.yul\":1956:1962   */\n      dup3\n        /* \"#utility.yul\":1949:1954   */\n      dup2\n        /* \"#utility.yul\":1942:1963   */\n      mstore\n        /* \"#utility.yul\":1994:1998   */\n      0x20\n        /* \"#utility.yul\":1987:1992   */\n      dup2\n        /* \"#utility.yul\":1983:1999   */\n      add\n        /* \"#utility.yul\":2032:2035   */\n      dup5\n        /* \"#utility.yul\":2023:2029   */\n      dup5\n        /* \"#utility.yul\":2018:2021   */\n      dup5\n        /* \"#utility.yul\":2014:2030   */\n      add\n        /* \"#utility.yul\":2011:2036   */\n      gt\n        /* \"#utility.yul\":2008:2120   */\n      iszero\n      tag_121\n      jumpi\n        /* \"#utility.yul\":2039:2118   */\n      tag_122\n      tag_57\n      jump\t// in\n    tag_122:\n        /* \"#utility.yul\":2008:2120   */\n    tag_121:\n        /* \"#utility.yul\":2129:2183   */\n      tag_123\n        /* \"#utility.yul\":2176:2182   */\n      dup5\n        /* \"#utility.yul\":2171:2174   */\n      dup3\n        /* \"#utility.yul\":2166:2169   */\n      dup6\n        /* \"#utility.yul\":2129:2183   */\n      tag_63\n      jump\t// in\n    tag_123:\n        /* \"#utility.yul\":1848:2189   */\n      pop\n        /* \"#utility.yul\":1764:2189   */\n      swap4\n      swap3\n      pop\n      pop\n      pop\n      jump\t// out\n        /* \"#utility.yul\":2209:2549   */\n    tag_65:\n        /* \"#utility.yul\":2265:2270   */\n      0x00\n        /* \"#utility.yul\":2314:2317   */\n      dup3\n        /* \"#utility.yul\":2307:2311   */\n      0x1f\n        /* \"#utility.yul\":2299:2305   */\n      dup4\n        /* \"#utility.yul\":2295:2312   */\n      add\n        /* \"#utility.yul\":2291:2318   */\n      slt\n        /* \"#utility.yul\":2281:2403   */\n      tag_125\n      jumpi\n        /* \"#utility.yul\":2322:2401   */\n      tag_126\n      tag_56\n      jump\t// in\n    tag_126:\n        /* \"#utility.yul\":2281:2403   */\n    tag_125:\n        /* \"#utility.yul\":2439:2445   */\n      dup2\n        /* \"#utility.yul\":2426:2446   */\n      calldataload\n        /* \"#utility.yul\":2464:2543   */\n      tag_127\n        /* \"#utility.yul\":2539:2542   */\n      dup5\n        /* \"#utility.yul\":2531:2537   */\n      dup3\n        /* \"#utility.yul\":2524:2528   */\n      0x20\n        /* \"#utility.yul\":2516:2522   */\n      dup7\n        /* \"#utility.yul\":2512:2529   */\n      add\n        /* \"#utility.yul\":2464:2543   */\n      tag_64\n      jump\t// in\n    tag_127:\n        /* \"#utility.yul\":2455:2543   */\n      swap2\n      pop\n        /* \"#utility.yul\":2271:2549   */\n      pop\n        /* \"#utility.yul\":2209:2549   */\n      swap3\n      swap2\n      pop\n      pop\n      jump\t// out\n        /* \"#utility.yul\":2555:3064   */\n    tag_10:\n        /* \"#utility.yul\":2624:2630   */\n      0x00\n        /* \"#utility.yul\":2673:2675   */\n      0x20\n        /* \"#utility.yul\":2661:2670   */\n      dup3\n        /* \"#utility.yul\":2652:2659   */\n      dup5\n        /* \"#utility.yul\":2648:2671   */\n      sub\n        /* \"#utility.yul\":2644:2676   */\n      slt\n        /* \"#utility.yul\":2641:2760   */\n      iszero\n      tag_129\n      jumpi\n        /* \"#utility.yul\":2679:2758   */\n      tag_130\n      tag_54\n      jump\t// in\n    tag_130:\n        /* \"#utility.yul\":2641:2760   */\n    tag_129:\n        /* \"#utility.yul\":2827:2828   */\n      0x00\n        /* \"#utility.yul\":2816:2825   */\n      dup3\n        /* \"#utility.yul\":2812:2829   */\n      add\n        /* \"#utility.yul\":2799:2830   */\n      calldataload\n        /* \"#utility.yul\":2857:2875   */\n      0xffffffffffffffff\n        /* \"#utility.yul\":2849:2855   */\n      dup2\n        /* \"#utility.yul\":2846:2876   */\n      gt\n        /* \"#utility.yul\":2843:2960   */\n      iszero\n      tag_131\n      jumpi\n        /* \"#utility.yul\":2879:2958   */\n      tag_132\n      tag_55\n      jump\t// in\n    tag_132:\n        /* \"#utility.yul\":2843:2960   */\n    tag_131:\n        /* \"#utility.yul\":2984:3047   */\n      tag_133\n        /* \"#utility.yul\":3039:3046   */\n      dup5\n        /* \"#utility.yul\":3030:3036   */\n      dup3\n        /* \"#utility.yul\":3019:3028   */\n      dup6\n        /* \"#utility.yul\":3015:3037   */\n      add\n        /* \"#utility.yul\":2984:3047   */\n      tag_65\n      jump\t// in\n    tag_133:\n        /* \"#utility.yul\":2974:3047   */\n      swap2\n      pop\n        /* \"#utility.yul\":2770:3057   */\n      pop\n        /* \"#utility.yul\":2555:3064   */\n      swap3\n      swap2\n      pop\n      pop\n      jump\t// out\n        /* \"#utility.yul\":3070:3147   */\n    tag_66:\n        /* \"#utility.yul\":3107:3114   */\n      0x00\n        /* \"#utility.yul\":3136:3141   */\n      dup2\n        /* \"#utility.yul\":3125:3141   */\n      swap1\n      pop\n        /* \"#utility.yul\":3070:3147   */\n      swap2\n      swap1\n      pop\n      jump\t// out\n        /* \"#utility.yul\":3153:3275   */\n    tag_67:\n        /* \"#utility.yul\":3226:3250   */\n      tag_136\n        /* \"#utility.yul\":3244:3249   */\n      dup2\n        /* \"#utility.yul\":3226:3250   */\n      tag_66\n      jump\t// in\n    tag_136:\n        /* \"#utility.yul\":3219:3224   */\n      dup2\n        /* \"#utility.yul\":3216:3251   */\n      eq\n        /* \"#utility.yul\":3206:3269   */\n      tag_137\n      jumpi\n        /* \"#utility.yul\":3265:3266   */\n      0x00\n        /* \"#utility.yul\":3262:3263   */\n      dup1\n        /* \"#utility.yul\":3255:3267   */\n      revert\n        /* \"#utility.yul\":3206:3269   */\n    tag_137:\n        /* \"#utility.yul\":3153:3275   */\n      pop\n      jump\t// out\n        /* \"#utility.yul\":3281:3420   */\n    tag_68:\n        /* \"#utility.yul\":3327:3332   */\n      0x00\n        /* \"#utility.yul\":3365:3371   */\n      dup2\n        /* \"#utility.yul\":3352:3372   */\n      calldataload\n        /* \"#utility.yul\":3343:3372   */\n      swap1\n      pop\n        /* \"#utility.yul\":3381:3414   */\n      tag_139\n        /* \"#utility.yul\":3408:3413   */\n      dup2\n        /* \"#utility.yul\":3381:3414   */\n      tag_67\n      jump\t// in\n    tag_139:\n        /* \"#utility.yul\":3281:3420   */\n      swap3\n      swap2\n      pop\n      pop\n      jump\t// out\n        /* \"#utility.yul\":3426:3755   */\n    tag_14:\n        /* \"#utility.yul\":3485:3491   */\n      0x00\n        /* \"#utility.yul\":3534:3536   */\n      0x20\n        /* \"#utility.yul\":3522:3531   */\n      dup3\n        /* \"#utility.yul\":3513:3520   */\n      dup5\n        /* \"#utility.yul\":3509:3532   */\n      sub\n        /* \"#utility.yul\":3505:3537   */\n      slt\n        /* \"#utility.yul\":3502:3621   */\n      iszero\n      tag_141\n      jumpi\n        /* \"#utility.yul\":3540:3619   */\n      tag_142\n      tag_54\n      jump\t// in\n    tag_142:\n        /* \"#utility.yul\":3502:3621   */\n    tag_141:\n        /* \"#utility.yul\":3660:3661   */\n      0x00\n        /* \"#utility.yul\":3685:3738   */\n      tag_143\n        /* \"#utility.yul\":3730:3737   */\n      dup5\n        /* \"#utility.yul\":3721:3727   */\n      dup3\n        /* \"#utility.yul\":3710:3719   */\n      dup6\n        /* \"#utility.yul\":3706:3728   */\n      add\n        /* \"#utility.yul\":3685:3738   */\n      tag_68\n      jump\t// in\n    tag_143:\n        /* \"#utility.yul\":3675:3738   */\n      swap2\n      pop\n        /* \"#utility.yul\":3631:3748   */\n      pop\n        /* \"#utility.yul\":3426:3755   */\n      swap3\n      swap2\n      pop\n      pop\n      jump\t// out\n        /* \"#utility.yul\":3761:3869   */\n    tag_69:\n        /* \"#utility.yul\":3838:3862   */\n      tag_145\n        /* \"#utility.yul\":3856:3861   */\n      dup2\n        /* \"#utility.yul\":3838:3862   */\n      tag_66\n      jump\t// in\n    tag_145:\n        /* \"#utility.yul\":3833:3836   */\n      dup3\n        /* \"#utility.yul\":3826:3863   */\n      mstore\n        /* \"#utility.yul\":3761:3869   */\n      pop\n      pop\n      jump\t// out\n        /* \"#utility.yul\":3875:3974   */\n    tag_70:\n        /* \"#utility.yul\":3927:3933   */\n      0x00\n        /* \"#utility.yul\":3961:3966   */\n      dup2\n        /* \"#utility.yul\":3955:3967   */\n      mload\n        /* \"#utility.yul\":3945:3967   */\n      swap1\n      pop\n        /* \"#utility.yul\":3875:3974   */\n      swap2\n      swap1\n      pop\n      jump\t// out\n        /* \"#utility.yul\":3980:4139   */\n    tag_71:\n        /* \"#utility.yul\":4054:4065   */\n      0x00\n        /* \"#utility.yul\":4088:4094   */\n      dup3\n        /* \"#utility.yul\":4083:4086   */\n      dup3\n        /* \"#utility.yul\":4076:4095   */\n      mstore\n        /* \"#utility.yul\":4128:4132   */\n      0x20\n        /* \"#utility.yul\":4123:4126   */\n      dup3\n        /* \"#utility.yul\":4119:4133   */\n      add\n        /* \"#utility.yul\":4104:4133   */\n      swap1\n      pop\n        /* \"#utility.yul\":3980:4139   */\n      swap3\n      swap2\n      pop\n      pop\n      jump\t// out\n        /* \"#utility.yul\":4145:4284   */\n    tag_72:\n        /* \"#utility.yul\":4234:4240   */\n      dup3\n        /* \"#utility.yul\":4229:4232   */\n      dup2\n        /* \"#utility.yul\":4224:4227   */\n      dup4\n        /* \"#utility.yul\":4218:4241   */\n      mcopy\n        /* \"#utility.yul\":4275:4276   */\n      0x00\n        /* \"#utility.yul\":4266:4272   */\n      dup4\n        /* \"#utility.yul\":4261:4264   */\n      dup4\n        /* \"#utility.yul\":4257:4273   */\n      add\n        /* \"#utility.yul\":4250:4277   */\n      mstore\n        /* \"#utility.yul\":4145:4284   */\n      pop\n      pop\n      pop\n      jump\t// out\n        /* \"#utility.yul\":4290:4647   */\n    tag_73:\n        /* \"#utility.yul\":4368:4371   */\n      0x00\n        /* \"#utility.yul\":4396:4435   */\n      tag_150\n        /* \"#utility.yul\":4429:4434   */\n      dup3\n        /* \"#utility.yul\":4396:4435   */\n      tag_70\n      jump\t// in\n    tag_150:\n        /* \"#utility.yul\":4451:4512   */\n      tag_151\n        /* \"#utility.yul\":4505:4511   */\n      dup2\n        /* \"#utility.yul\":4500:4503   */\n      dup6\n        /* \"#utility.yul\":4451:4512   */\n      tag_71\n      jump\t// in\n    tag_151:\n        /* \"#utility.yul\":4444:4512   */\n      swap4\n      pop\n        /* \"#utility.yul\":4521:4586   */\n      tag_152\n        /* \"#utility.yul\":4579:4585   */\n      dup2\n        /* \"#utility.yul\":4574:4577   */\n      dup6\n        /* \"#utility.yul\":4567:4571   */\n      0x20\n        /* \"#utility.yul\":4560:4565   */\n      dup7\n        /* \"#utility.yul\":4556:4572   */\n      add\n        /* \"#utility.yul\":4521:4586   */\n      tag_72\n      jump\t// in\n    tag_152:\n        /* \"#utility.yul\":4611:4640   */\n      tag_153\n        /* \"#utility.yul\":4633:4639   */\n      dup2\n        /* \"#utility.yul\":4611:4640   */\n      tag_58\n      jump\t// in\n    tag_153:\n        /* \"#utility.yul\":4606:4609   */\n      dup5\n        /* \"#utility.yul\":4602:4641   */\n      add\n        /* \"#utility.yul\":4595:4641   */\n      swap2\n      pop\n        /* \"#utility.yul\":4372:4647   */\n      pop\n        /* \"#utility.yul\":4290:4647   */\n      swap3\n      swap2\n      pop\n      pop\n      jump\t// out\n        /* \"#utility.yul\":4653:4743   */\n    tag_74:\n        /* \"#utility.yul\":4687:4694   */\n      0x00\n        /* \"#utility.yul\":4730:4735   */\n      dup2\n        /* \"#utility.yul\":4723:4736   */\n      iszero\n        /* \"#utility.yul\":4716:4737   */\n      iszero\n        /* \"#utility.yul\":4705:4737   */\n      swap1\n      pop\n        /* \"#utility.yul\":4653:4743   */\n      swap2\n      swap1\n      pop\n      jump\t// out\n        /* \"#utility.yul\":4749:4848   */\n    tag_75:\n        /* \"#utility.yul\":4820:4841   */\n      tag_156\n        /* \"#utility.yul\":4835:4840   */\n      dup2\n        /* \"#utility.yul\":4820:4841   */\n      tag_74\n      jump\t// in\n    tag_156:\n        /* \"#utility.yul\":4815:4818   */\n      dup3\n        /* \"#utility.yul\":4808:4842   */\n      mstore\n        /* \"#utility.yul\":4749:4848   */\n      pop\n      pop\n      jump\t// out\n        /* \"#utility.yul\":4906:5680   */\n    tag_76:\n        /* \"#utility.yul\":5015:5018   */\n      0x00\n        /* \"#utility.yul\":5051:5055   */\n      0x60\n        /* \"#utility.yul\":5046:5049   */\n      dup4\n        /* \"#utility.yul\":5042:5056   */\n      add\n        /* \"#utility.yul\":5136:5140   */\n      0x00\n        /* \"#utility.yul\":5129:5134   */\n      dup4\n        /* \"#utility.yul\":5125:5141   */\n      add\n        /* \"#utility.yul\":5119:5142   */\n      mload\n        /* \"#utility.yul\":5155:5218   */\n      tag_158\n        /* \"#utility.yul\":5212:5216   */\n      0x00\n        /* \"#utility.yul\":5207:5210   */\n      dup7\n        /* \"#utility.yul\":5203:5217   */\n      add\n        /* \"#utility.yul\":5189:5201   */\n      dup3\n        /* \"#utility.yul\":5155:5218   */\n      tag_69\n      jump\t// in\n    tag_158:\n        /* \"#utility.yul\":5066:5228   */\n      pop\n        /* \"#utility.yul\":5317:5321   */\n      0x20\n        /* \"#utility.yul\":5310:5315   */\n      dup4\n        /* \"#utility.yul\":5306:5322   */\n      add\n        /* \"#utility.yul\":5300:5323   */\n      mload\n        /* \"#utility.yul\":5370:5373   */\n      dup5\n        /* \"#utility.yul\":5364:5368   */\n      dup3\n        /* \"#utility.yul\":5360:5374   */\n      sub\n        /* \"#utility.yul\":5353:5357   */\n      0x20\n        /* \"#utility.yul\":5348:5351   */\n      dup7\n        /* \"#utility.yul\":5344:5358   */\n      add\n        /* \"#utility.yul\":5337:5375   */\n      mstore\n        /* \"#utility.yul\":5396:5469   */\n      tag_159\n        /* \"#utility.yul\":5464:5468   */\n      dup3\n        /* \"#utility.yul\":5450:5462   */\n      dup3\n        /* \"#utility.yul\":5396:5469   */\n      tag_73\n      jump\t// in\n    tag_159:\n        /* \"#utility.yul\":5388:5469   */\n      swap2\n      pop\n        /* \"#utility.yul\":5238:5480   */\n      pop\n        /* \"#utility.yul\":5567:5571   */\n      0x40\n        /* \"#utility.yul\":5560:5565   */\n      dup4\n        /* \"#utility.yul\":5556:5572   */\n      add\n        /* \"#utility.yul\":5550:5573   */\n      mload\n        /* \"#utility.yul\":5586:5643   */\n      tag_160\n        /* \"#utility.yul\":5637:5641   */\n      0x40\n        /* \"#utility.yul\":5632:5635   */\n      dup7\n        /* \"#utility.yul\":5628:5642   */\n      add\n        /* \"#utility.yul\":5614:5626   */\n      dup3\n        /* \"#utility.yul\":5586:5643   */\n      tag_75\n      jump\t// in\n    tag_160:\n        /* \"#utility.yul\":5490:5653   */\n      pop\n        /* \"#utility.yul\":5670:5674   */\n      dup1\n        /* \"#utility.yul\":5663:5674   */\n      swap2\n      pop\n        /* \"#utility.yul\":5020:5680   */\n      pop\n        /* \"#utility.yul\":4906:5680   */\n      swap3\n      swap2\n      pop\n      pop\n      jump\t// out\n        /* \"#utility.yul\":5686:6039   */\n    tag_17:\n        /* \"#utility.yul\":5819:5823   */\n      0x00\n        /* \"#utility.yul\":5857:5859   */\n      0x20\n        /* \"#utility.yul\":5846:5855   */\n      dup3\n        /* \"#utility.yul\":5842:5860   */\n      add\n        /* \"#utility.yul\":5834:5860   */\n      swap1\n      pop\n        /* \"#utility.yul\":5906:5915   */\n      dup2\n        /* \"#utility.yul\":5900:5904   */\n      dup2\n        /* \"#utility.yul\":5896:5916   */\n      sub\n        /* \"#utility.yul\":5892:5893   */\n      0x00\n        /* \"#utility.yul\":5881:5890   */\n      dup4\n        /* \"#utility.yul\":5877:5894   */\n      add\n        /* \"#utility.yul\":5870:5917   */\n      mstore\n        /* \"#utility.yul\":5934:6032   */\n      tag_162\n        /* \"#utility.yul\":6027:6031   */\n      dup2\n        /* \"#utility.yul\":6018:6024   */\n      dup5\n        /* \"#utility.yul\":5934:6032   */\n      tag_76\n      jump\t// in\n    tag_162:\n        /* \"#utility.yul\":5926:6032   */\n      swap1\n      pop\n        /* \"#utility.yul\":5686:6039   */\n      swap3\n      swap2\n      pop\n      pop\n      jump\t// out\n        /* \"#utility.yul\":6045:6163   */\n    tag_77:\n        /* \"#utility.yul\":6132:6156   */\n      tag_164\n        /* \"#utility.yul\":6150:6155   */\n      dup2\n        /* \"#utility.yul\":6132:6156   */\n      tag_66\n      jump\t// in\n    tag_164:\n        /* \"#utility.yul\":6127:6130   */\n      dup3\n        /* \"#utility.yul\":6120:6157   */\n      mstore\n        /* \"#utility.yul\":6045:6163   */\n      pop\n      pop\n      jump\t// out\n        /* \"#utility.yul\":6169:6338   */\n    tag_78:\n        /* \"#utility.yul\":6253:6264   */\n      0x00\n        /* \"#utility.yul\":6287:6293   */\n      dup3\n        /* \"#utility.yul\":6282:6285   */\n      dup3\n        /* \"#utility.yul\":6275:6294   */\n      mstore\n        /* \"#utility.yul\":6327:6331   */\n      0x20\n        /* \"#utility.yul\":6322:6325   */\n      dup3\n        /* \"#utility.yul\":6318:6332   */\n      add\n        /* \"#utility.yul\":6303:6332   */\n      swap1\n      pop\n        /* \"#utility.yul\":6169:6338   */\n      swap3\n      swap2\n      pop\n      pop\n      jump\t// out\n        /* \"#utility.yul\":6344:6721   */\n    tag_79:\n        /* \"#utility.yul\":6432:6435   */\n      0x00\n        /* \"#utility.yul\":6460:6499   */\n      tag_167\n        /* \"#utility.yul\":6493:6498   */\n      dup3\n        /* \"#utility.yul\":6460:6499   */\n      tag_70\n      jump\t// in\n    tag_167:\n        /* \"#utility.yul\":6515:6586   */\n      tag_168\n        /* \"#utility.yul\":6579:6585   */\n      dup2\n        /* \"#utility.yul\":6574:6577   */\n      dup6\n        /* \"#utility.yul\":6515:6586   */\n      tag_78\n      jump\t// in\n    tag_168:\n        /* \"#utility.yul\":6508:6586   */\n      swap4\n      pop\n        /* \"#utility.yul\":6595:6660   */\n      tag_169\n        /* \"#utility.yul\":6653:6659   */\n      dup2\n        /* \"#utility.yul\":6648:6651   */\n      dup6\n        /* \"#utility.yul\":6641:6645   */\n      0x20\n        /* \"#utility.yul\":6634:6639   */\n      dup7\n        /* \"#utility.yul\":6630:6646   */\n      add\n        /* \"#utility.yul\":6595:6660   */\n      tag_72\n      jump\t// in\n    tag_169:\n        /* \"#utility.yul\":6685:6714   */\n      tag_170\n        /* \"#utility.yul\":6707:6713   */\n      dup2\n        /* \"#utility.yul\":6685:6714   */\n      tag_58\n      jump\t// in\n    tag_170:\n        /* \"#utility.yul\":6680:6683   */\n      dup5\n        /* \"#utility.yul\":6676:6715   */\n      add\n        /* \"#utility.yul\":6669:6715   */\n      swap2\n      pop\n        /* \"#utility.yul\":6436:6721   */\n      pop\n        /* \"#utility.yul\":6344:6721   */\n      swap3\n      swap2\n      pop\n      pop\n      jump\t// out\n        /* \"#utility.yul\":6727:6836   */\n    tag_80:\n        /* \"#utility.yul\":6808:6829   */\n      tag_172\n        /* \"#utility.yul\":6823:6828   */\n      dup2\n        /* \"#utility.yul\":6808:6829   */\n      tag_74\n      jump\t// in\n    tag_172:\n        /* \"#utility.yul\":6803:6806   */\n      dup3\n        /* \"#utility.yul\":6796:6830   */\n      mstore\n        /* \"#utility.yul\":6727:6836   */\n      pop\n      pop\n      jump\t// out\n        /* \"#utility.yul\":6842:7363   */\n    tag_22:\n        /* \"#utility.yul\":7005:7009   */\n      0x00\n        /* \"#utility.yul\":7043:7045   */\n      0x60\n        /* \"#utility.yul\":7032:7041   */\n      dup3\n        /* \"#utility.yul\":7028:7046   */\n      add\n        /* \"#utility.yul\":7020:7046   */\n      swap1\n      pop\n        /* \"#utility.yul\":7056:7127   */\n      tag_174\n        /* \"#utility.yul\":7124:7125   */\n      0x00\n        /* \"#utility.yul\":7113:7122   */\n      dup4\n        /* \"#utility.yul\":7109:7126   */\n      add\n        /* \"#utility.yul\":7100:7106   */\n      dup7\n        /* \"#utility.yul\":7056:7127   */\n      tag_77\n      jump\t// in\n    tag_174:\n        /* \"#utility.yul\":7174:7183   */\n      dup2\n        /* \"#utility.yul\":7168:7172   */\n      dup2\n        /* \"#utility.yul\":7164:7184   */\n      sub\n        /* \"#utility.yul\":7159:7161   */\n      0x20\n        /* \"#utility.yul\":7148:7157   */\n      dup4\n        /* \"#utility.yul\":7144:7162   */\n      add\n        /* \"#utility.yul\":7137:7185   */\n      mstore\n        /* \"#utility.yul\":7202:7280   */\n      tag_175\n        /* \"#utility.yul\":7275:7279   */\n      dup2\n        /* \"#utility.yul\":7266:7272   */\n      dup6\n        /* \"#utility.yul\":7202:7280   */\n      tag_79\n      jump\t// in\n    tag_175:\n        /* \"#utility.yul\":7194:7280   */\n      swap1\n      pop\n        /* \"#utility.yul\":7290:7356   */\n      tag_176\n        /* \"#utility.yul\":7352:7354   */\n      0x40\n        /* \"#utility.yul\":7341:7350   */\n      dup4\n        /* \"#utility.yul\":7337:7355   */\n      add\n        /* \"#utility.yul\":7328:7334   */\n      dup5\n        /* \"#utility.yul\":7290:7356   */\n      tag_80\n      jump\t// in\n    tag_176:\n        /* \"#utility.yul\":6842:7363   */\n      swap5\n      swap4\n      pop\n      pop\n      pop\n      pop\n      jump\t// out\n        /* \"#utility.yul\":7369:7591   */\n    tag_26:\n        /* \"#utility.yul\":7462:7466   */\n      0x00\n        /* \"#utility.yul\":7500:7502   */\n      0x20\n        /* \"#utility.yul\":7489:7498   */\n      dup3\n        /* \"#utility.yul\":7485:7503   */\n      add\n        /* \"#utility.yul\":7477:7503   */\n      swap1\n      pop\n        /* \"#utility.yul\":7513:7584   */\n      tag_178\n        /* \"#utility.yul\":7581:7582   */\n      0x00\n        /* \"#utility.yul\":7570:7579   */\n      dup4\n        /* \"#utility.yul\":7566:7583   */\n      add\n        /* \"#utility.yul\":7557:7563   */\n      dup5\n        /* \"#utility.yul\":7513:7584   */\n      tag_77\n      jump\t// in\n    tag_178:\n        /* \"#utility.yul\":7369:7591   */\n      swap3\n      swap2\n      pop\n      pop\n      jump\t// out\n        /* \"#utility.yul\":7597:7777   */\n    tag_81:\n        /* \"#utility.yul\":7645:7722   */\n      0x4e487b7100000000000000000000000000000000000000000000000000000000\n        /* \"#utility.yul\":7642:7643   */\n      0x00\n        /* \"#utility.yul\":7635:7723   */\n      mstore\n        /* \"#utility.yul\":7742:7746   */\n      0x11\n        /* \"#utility.yul\":7739:7740   */\n      0x04\n        /* \"#utility.yul\":7732:7747   */\n      mstore\n        /* \"#utility.yul\":7766:7770   */\n      0x24\n        /* \"#utility.yul\":7763:7764   */\n      0x00\n        /* \"#utility.yul\":7756:7771   */\n      revert\n        /* \"#utility.yul\":7783:8016   */\n    tag_32:\n        /* \"#utility.yul\":7822:7825   */\n      0x00\n        /* \"#utility.yul\":7845:7869   */\n      tag_181\n        /* \"#utility.yul\":7863:7868   */\n      dup3\n        /* \"#utility.yul\":7845:7869   */\n      tag_66\n      jump\t// in\n    tag_181:\n        /* \"#utility.yul\":7836:7869   */\n      swap2\n      pop\n        /* \"#utility.yul\":7891:7957   */\n      0xffffffffffffffffffffffffffffffffffffffffffffffffffffffffffffffff\n        /* \"#utility.yul\":7884:7889   */\n      dup3\n        /* \"#utility.yul\":7881:7958   */\n      sub\n        /* \"#utility.yul\":7878:7981   */\n      tag_182\n      jumpi\n        /* \"#utility.yul\":7961:7979   */\n      tag_183\n      tag_81\n      jump\t// in\n    tag_183:\n        /* \"#utility.yul\":7878:7981   */\n    tag_182:\n        /* \"#utility.yul\":8008:8009   */\n      0x01\n        /* \"#utility.yul\":8001:8006   */\n      dup3\n        /* \"#utility.yul\":7997:8010   */\n      add\n        /* \"#utility.yul\":7990:8010   */\n      swap1\n      pop\n        /* \"#utility.yul\":7783:8016   */\n      swap2\n      swap1\n      pop\n      jump\t// out\n        /* \"#utility.yul\":8022:8202   */\n    tag_82:\n        /* \"#utility.yul\":8070:8147   */\n      0x4e487b7100000000000000000000000000000000000000000000000000000000\n        /* \"#utility.yul\":8067:8068   */\n      0x00\n        /* \"#utility.yul\":8060:8148   */\n      mstore\n        /* \"#utility.yul\":8167:8171   */\n      0x22\n        /* \"#utility.yul\":8164:8165   */\n      0x04\n        /* \"#utility.yul\":8157:8172   */\n      mstore\n        /* \"#utility.yul\":8191:8195   */\n      0x24\n        /* \"#utility.yul\":8188:8189   */\n      0x00\n        /* \"#utility.yul\":8181:8196   */\n      revert\n        /* \"#utility.yul\":8208:8528   */\n    tag_40:\n        /* \"#utility.yul\":8252:8258   */\n      0x00\n        /* \"#utility.yul\":8289:8290   */\n      0x02\n        /* \"#utility.yul\":8283:8287   */\n      dup3\n        /* \"#utility.yul\":8279:8291   */\n      div\n        /* \"#utility.yul\":8269:8291   */\n      swap1\n      pop\n        /* \"#utility.yul\":8336:8337   */\n      0x01\n        /* \"#utility.yul\":8330:8334   */\n      dup3\n        /* \"#utility.yul\":8326:8338   */\n      and\n        /* \"#utility.yul\":8357:8375   */\n      dup1\n        /* \"#utility.yul\":8347:8428   */\n      tag_186\n      jumpi\n        /* \"#utility.yul\":8413:8417   */\n      0x7f\n        /* \"#utility.yul\":8405:8411   */\n      dup3\n        /* \"#utility.yul\":8401:8418   */\n      and\n        /* \"#utility.yul\":8391:8418   */\n      swap2\n      pop\n        /* \"#utility.yul\":8347:8428   */\n    tag_186:\n        /* \"#utility.yul\":8475:8477   */\n      0x20\n        /* \"#utility.yul\":8467:8473   */\n      dup3\n        /* \"#utility.yul\":8464:8478   */\n      lt\n        /* \"#utility.yul\":8444:8462   */\n      dup2\n        /* \"#utility.yul\":8441:8479   */\n      sub\n        /* \"#utility.yul\":8438:8522   */\n      tag_187\n      jumpi\n        /* \"#utility.yul\":8494:8512   */\n      tag_188\n      tag_82\n      jump\t// in\n    tag_188:\n        /* \"#utility.yul\":8438:8522   */\n    tag_187:\n        /* \"#utility.yul\":8259:8528   */\n      pop\n        /* \"#utility.yul\":8208:8528   */\n      swap2\n      swap1\n      pop\n      jump\t// out\n        /* \"#utility.yul\":8534:8675   */\n    tag_83:\n        /* \"#utility.yul\":8583:8587   */\n      0x00\n        /* \"#utility.yul\":8606:8609   */\n      dup2\n        /* \"#utility.yul\":8598:8609   */\n      swap1\n      pop\n        /* \"#utility.yul\":8629:8632   */\n      dup2\n        /* \"#utility.yul\":8626:8627   */\n      0x00\n        /* \"#utility.yul\":8619:8633   */\n      mstore\n        /* \"#utility.yul\":8663:8667   */\n      0x20\n        /* \"#utility.yul\":8660:8661   */\n      0x00\n        /* \"#utility.yul\":8650:8668   */\n      keccak256\n        /* \"#utility.yul\":8642:8668   */\n      swap1\n      pop\n        /* \"#utility.yul\":8534:8675   */\n      swap2\n      swap1\n      pop\n      jump\t// out\n        /* \"#utility.yul\":8681:8774   */\n    tag_84:\n        /* \"#utility.yul\":8718:8724   */\n      0x00\n        /* \"#utility.yul\":8765:8767   */\n      0x20\n        /* \"#utility.yul\":8760:8762   */\n      0x1f\n        /* \"#utility.yul\":8753:8758   */\n      dup4\n        /* \"#utility.yul\":8749:8763   */\n      add\n        /* \"#utility.yul\":8745:8768   */\n      div\n        /* \"#utility.yul\":8735:8768   */\n      swap1\n      pop\n        /* \"#utility.yul\":8681:8774   */\n      swap2\n      swap1\n      pop\n      jump\t// out\n        /* \"#utility.yul\":8780:8887   */\n    tag_85:\n        /* \"#utility.yul\":8824:8832   */\n      0x00\n        /* \"#utility.yul\":8874:8879   */\n      dup3\n        /* \"#utility.yul\":8868:8872   */\n      dup3\n        /* \"#utility.yul\":8864:8880   */\n      shl\n        /* \"#utility.yul\":8843:8880   */\n      swap1\n      pop\n        /* \"#utility.yul\":8780:8887   */\n      swap3\n      swap2\n      pop\n      pop\n      jump\t// out\n        /* \"#utility.yul\":8893:9286   */\n    tag_86:\n        /* \"#utility.yul\":8962:8968   */\n      0x00\n        /* \"#utility.yul\":9012:9013   */\n      0x08\n        /* \"#utility.yul\":9000:9010   */\n      dup4\n        /* \"#utility.yul\":8996:9014   */\n      mul\n        /* \"#utility.yul\":9035:9132   */\n      tag_193\n        /* \"#utility.yul\":9065:9131   */\n      0xffffffffffffffffffffffffffffffffffffffffffffffffffffffffffffffff\n        /* \"#utility.yul\":9054:9063   */\n      dup3\n        /* \"#utility.yul\":9035:9132   */\n      tag_85\n      jump\t// in\n    tag_193:\n        /* \"#utility.yul\":9153:9192   */\n      tag_194\n        /* \"#utility.yul\":9183:9191   */\n      dup7\n        /* \"#utility.yul\":9172:9181   */\n      dup4\n        /* \"#utility.yul\":9153:9192   */\n      tag_85\n      jump\t// in\n    tag_194:\n        /* \"#utility.yul\":9141:9192   */\n      swap6\n      pop\n        /* \"#utility.yul\":9225:9229   */\n      dup1\n        /* \"#utility.yul\":9221:9230   */\n      not\n        /* \"#utility.yul\":9214:9219   */\n      dup5\n        /* \"#utility.yul\":9210:9231   */\n      and\n        /* \"#utility.yul\":9201:9231   */\n      swap4\n      pop\n        /* \"#utility.yul\":9274:9278   */\n      dup1\n        /* \"#utility.yul\":9264:9272   */\n      dup7\n        /* \"#utility.yul\":9260:9279   */\n      and\n        /* \"#utility.yul\":9253:9258   */\n      dup5\n        /* \"#utility.yul\":9250:9280   */\n      or\n        /* \"#utility.yul\":9240:9280   */\n      swap3\n      pop\n        /* \"#utility.yul\":8969:9286   */\n      pop\n      pop\n        /* \"#utility.yul\":8893:9286   */\n      swap4\n      swap3\n      pop\n      pop\n      pop\n      jump\t// out\n        /* \"#utility.yul\":9292:9352   */\n    tag_87:\n        /* \"#utility.yul\":9320:9323   */\n      0x00\n        /* \"#utility.yul\":9341:9346   */\n      dup2\n        /* \"#utility.yul\":9334:9346   */\n      swap1\n      pop\n        /* \"#utility.yul\":9292:9352   */\n      swap2\n      swap1\n      pop\n      jump\t// out\n        /* \"#utility.yul\":9358:9500   */\n    tag_88:\n        /* \"#utility.yul\":9408:9417   */\n      0x00\n        /* \"#utility.yul\":9441:9494   */\n      tag_197\n        /* \"#utility.yul\":9459:9493   */\n      tag_198\n        /* \"#utility.yul\":9468:9492   */\n      tag_199\n        /* \"#utility.yul\":9486:9491   */\n      dup5\n        /* \"#utility.yul\":9468:9492   */\n      tag_66\n      jump\t// in\n    tag_199:\n        /* \"#utility.yul\":9459:9493   */\n      tag_87\n      jump\t// in\n    tag_198:\n        /* \"#utility.yul\":9441:9494   */\n      tag_66\n      jump\t// in\n    tag_197:\n        /* \"#utility.yul\":9428:9494   */\n      swap1\n      pop\n        /* \"#utility.yul\":9358:9500   */\n      swap2\n      swap1\n      pop\n      jump\t// out\n        /* \"#utility.yul\":9506:9581   */\n    tag_89:\n        /* \"#utility.yul\":9549:9552   */\n      0x00\n        /* \"#utility.yul\":9570:9575   */\n      dup2\n        /* \"#utility.yul\":9563:9575   */\n      swap1\n      pop\n        /* \"#utility.yul\":9506:9581   */\n      swap2\n      swap1\n      pop\n      jump\t// out\n        /* \"#utility.yul\":9587:9856   */\n    tag_90:\n        /* \"#utility.yul\":9697:9736   */\n      tag_202\n        /* \"#utility.yul\":9728:9735   */\n      dup4\n        /* \"#utility.yul\":9697:9736   */\n      tag_88\n      jump\t// in\n    tag_202:\n        /* \"#utility.yul\":9758:9849   */\n      tag_203\n        /* \"#utility.yul\":9807:9848   */\n      tag_204\n        /* \"#utility.yul\":9831:9847   */\n      dup3\n        /* \"#utility.yul\":9807:9848   */\n      tag_89\n      jump\t// in\n    tag_204:\n        /* \"#utility.yul\":9799:9805   */\n      dup5\n        /* \"#utility.yul\":9792:9796   */\n      dup5\n        /* \"#utility.yul\":9786:9797   */\n      sload\n        /* \"#utility.yul\":9758:9849   */\n      tag_86\n      jump\t// in\n    tag_203:\n        /* \"#utility.yul\":9752:9756   */\n      dup3\n        /* \"#utility.yul\":9745:9850   */\n      sstore\n        /* \"#utility.yul\":9663:9856   */\n      pop\n        /* \"#utility.yul\":9587:9856   */\n      pop\n      pop\n      pop\n      jump\t// out\n        /* \"#utility.yul\":9862:9935   */\n    tag_91:\n        /* \"#utility.yul\":9907:9910   */\n      0x00\n        /* \"#utility.yul\":9862:9935   */\n      swap1\n      jump\t// out\n        /* \"#utility.yul\":9941:10130   */\n    tag_92:\n        /* \"#utility.yul\":10018:10050   */\n      tag_207\n      tag_91\n      jump\t// in\n    tag_207:\n        /* \"#utility.yul\":10059:10124   */\n      tag_208\n        /* \"#utility.yul\":10117:10123   */\n      dup2\n        /* \"#utility.yul\":10109:10115   */\n      dup5\n        /* \"#utility.yul\":10103:10107   */\n      dup5\n        /* \"#utility.yul\":10059:10124   */\n      tag_90\n      jump\t// in\n    tag_208:\n        /* \"#utility.yul\":9994:10130   */\n      pop\n        /* \"#utility.yul\":9941:10130   */\n      pop\n      pop\n      jump\t// out\n        /* \"#utility.yul\":10136:10322   */\n    tag_93:\n        /* \"#utility.yul\":10196:10316   */\n    tag_210:\n        /* \"#utility.yul\":10213:10216   */\n      dup2\n        /* \"#utility.yul\":10206:10211   */\n      dup2\n        /* \"#utility.yul\":10203:10217   */\n      lt\n        /* \"#utility.yul\":10196:10316   */\n      iszero\n      tag_212\n      jumpi\n        /* \"#utility.yul\":10267:10306   */\n      tag_213\n        /* \"#utility.yul\":10304:10305   */\n      0x00\n        /* \"#utility.yul\":10297:10302   */\n      dup3\n        /* \"#utility.yul\":10267:10306   */\n      tag_92\n      jump\t// in\n    tag_213:\n        /* \"#utility.yul\":10240:10241   */\n      0x01\n        /* \"#utility.yul\":10233:10238   */\n      dup2\n        /* \"#utility.yul\":10229:10242   */\n      add\n        /* \"#utility.yul\":10220:10242   */\n      swap1\n      pop\n        /* \"#utility.yul\":10196:10316   */\n      jump(tag_210)\n    tag_212:\n        /* \"#utility.yul\":10136:10322   */\n      pop\n      pop\n      jump\t// out\n        /* \"#utility.yul\":10328:10871   */\n    tag_94:\n        /* \"#utility.yul\":10429:10431   */\n      0x1f\n        /* \"#utility.yul\":10424:10427   */\n      dup3\n        /* \"#utility.yul\":10421:10432   */\n      gt\n        /* \"#utility.yul\":10418:10864   */\n      iszero\n      tag_215\n      jumpi\n        /* \"#utility.yul\":10463:10501   */\n      tag_216\n        /* \"#utility.yul\":10495:10500   */\n      dup2\n        /* \"#utility.yul\":10463:10501   */\n      tag_83\n      jump\t// in\n    tag_216:\n        /* \"#utility.yul\":10547:10576   */\n      tag_217\n        /* \"#utility.yul\":10565:10575   */\n      dup5\n        /* \"#utility.yul\":10547:10576   */\n      tag_84\n      jump\t// in\n    tag_217:\n        /* \"#utility.yul\":10537:10545   */\n      dup2\n        /* \"#utility.yul\":10533:10577   */\n      add\n        /* \"#utility.yul\":10730:10732   */\n      0x20\n        /* \"#utility.yul\":10718:10728   */\n      dup6\n        /* \"#utility.yul\":10715:10733   */\n      lt\n        /* \"#utility.yul\":10712:10761   */\n      iszero\n      tag_218\n      jumpi\n        /* \"#utility.yul\":10751:10759   */\n      dup2\n        /* \"#utility.yul\":10736:10759   */\n      swap1\n      pop\n        /* \"#utility.yul\":10712:10761   */\n    tag_218:\n        /* \"#utility.yul\":10774:10854   */\n      tag_219\n        /* \"#utility.yul\":10830:10852   */\n      tag_220\n        /* \"#utility.yul\":10848:10851   */\n      dup6\n        /* \"#utility.yul\":10830:10852   */\n      tag_84\n      jump\t// in\n    tag_220:\n        /* \"#utility.yul\":10820:10828   */\n      dup4\n        /* \"#utility.yul\":10816:10853   */\n      add\n        /* \"#utility.yul\":10803:10814   */\n      dup3\n        /* \"#utility.yul\":10774:10854   */\n      tag_93\n      jump\t// in\n    tag_219:\n        /* \"#utility.yul\":10433:10864   */\n      pop\n      pop\n        /* \"#utility.yul\":10418:10864   */\n    tag_215:\n        /* \"#utility.yul\":10328:10871   */\n      pop\n      pop\n      pop\n      jump\t// out\n        /* \"#utility.yul\":10877:10994   */\n    tag_95:\n        /* \"#utility.yul\":10931:10939   */\n      0x00\n        /* \"#utility.yul\":10981:10986   */\n      dup3\n        /* \"#utility.yul\":10975:10979   */\n      dup3\n        /* \"#utility.yul\":10971:10987   */\n      shr\n        /* \"#utility.yul\":10950:10987   */\n      swap1\n      pop\n        /* \"#utility.yul\":10877:10994   */\n      swap3\n      swap2\n      pop\n      pop\n      jump\t// out\n        /* \"#utility.yul\":11000:11169   */\n    tag_96:\n        /* \"#utility.yul\":11044:11050   */\n      0x00\n        /* \"#utility.yul\":11077:11128   */\n      tag_223\n        /* \"#utility.yul\":11125:11126   */\n      0x00\n        /* \"#utility.yul\":11121:11127   */\n      not\n        /* \"#utility.yul\":11113:11118   */\n      dup5\n        /* \"#utility.yul\":11110:11111   */\n      0x08\n        /* \"#utility.yul\":11106:11119   */\n      mul\n        /* \"#utility.yul\":11077:11128   */\n      tag_95\n      jump\t// in\n    tag_223:\n        /* \"#utility.yul\":11073:11129   */\n      not\n        /* \"#utility.yul\":11158:11162   */\n      dup1\n        /* \"#utility.yul\":11152:11156   */\n      dup4\n        /* \"#utility.yul\":11148:11163   */\n      and\n        /* \"#utility.yul\":11138:11163   */\n      swap2\n      pop\n        /* \"#utility.yul\":11051:11169   */\n      pop\n        /* \"#utility.yul\":11000:11169   */\n      swap3\n      swap2\n      pop\n      pop\n      jump\t// out\n        /* \"#utility.yul\":11174:11469   */\n    tag_97:\n        /* \"#utility.yul\":11250:11254   */\n      0x00\n        /* \"#utility.yul\":11396:11425   */\n      tag_225\n        /* \"#utility.yul\":11421:11424   */\n      dup4\n        /* \"#utility.yul\":11415:11419   */\n      dup4\n        /* \"#utility.yul\":11396:11425   */\n      tag_96\n      jump\t// in\n    tag_225:\n        /* \"#utility.yul\":11388:11425   */\n      swap2\n      pop\n        /* \"#utility.yul\":11458:11461   */\n      dup3\n        /* \"#utility.yul\":11455:11456   */\n      0x02\n        /* \"#utility.yul\":11451:11462   */\n      mul\n        /* \"#utility.yul\":11445:11449   */\n      dup3\n        /* \"#utility.yul\":11442:11463   */\n      or\n        /* \"#utility.yul\":11434:11463   */\n      swap1\n      pop\n        /* \"#utility.yul\":11174:11469   */\n      swap3\n      swap2\n      pop\n      pop\n      jump\t// out\n        /* \"#utility.yul\":11474:12869   */\n    tag_34:\n        /* \"#utility.yul\":11591:11628   */\n      tag_227\n        /* \"#utility.yul\":11624:11627   */\n      dup3\n        /* \"#utility.yul\":11591:11628   */\n      tag_70\n      jump\t// in\n    tag_227:\n        /* \"#utility.yul\":11693:11711   */\n      0xffffffffffffffff\n        /* \"#utility.yul\":11685:11691   */\n      dup2\n        /* \"#utility.yul\":11682:11712   */\n      gt\n        /* \"#utility.yul\":11679:11735   */\n      iszero\n      tag_228\n      jumpi\n        /* \"#utility.yul\":11715:11733   */\n      tag_229\n      tag_59\n      jump\t// in\n    tag_229:\n        /* \"#utility.yul\":11679:11735   */\n    tag_228:\n        /* \"#utility.yul\":11759:11797   */\n      tag_230\n        /* \"#utility.yul\":11791:11795   */\n      dup3\n        /* \"#utility.yul\":11785:11796   */\n      sload\n        /* \"#utility.yul\":11759:11797   */\n      tag_40\n      jump\t// in\n    tag_230:\n        /* \"#utility.yul\":11844:11911   */\n      tag_231\n        /* \"#utility.yul\":11904:11910   */\n      dup3\n        /* \"#utility.yul\":11896:11902   */\n      dup3\n        /* \"#utility.yul\":11890:11894   */\n      dup6\n        /* \"#utility.yul\":11844:11911   */\n      tag_94\n      jump\t// in\n    tag_231:\n        /* \"#utility.yul\":11938:11939   */\n      0x00\n        /* \"#utility.yul\":11962:11966   */\n      0x20\n        /* \"#utility.yul\":11949:11966   */\n      swap1\n      pop\n        /* \"#utility.yul\":11994:11996   */\n      0x1f\n        /* \"#utility.yul\":11986:11992   */\n      dup4\n        /* \"#utility.yul\":11983:11997   */\n      gt\n        /* \"#utility.yul\":12011:12012   */\n      0x01\n        /* \"#utility.yul\":12006:12624   */\n      dup2\n      eq\n      tag_233\n      jumpi\n        /* \"#utility.yul\":12668:12669   */\n      0x00\n        /* \"#utility.yul\":12685:12691   */\n      dup5\n        /* \"#utility.yul\":12682:12759   */\n      iszero\n      tag_234\n      jumpi\n        /* \"#utility.yul\":12734:12743   */\n      dup3\n        /* \"#utility.yul\":12729:12732   */\n      dup8\n        /* \"#utility.yul\":12725:12744   */\n      add\n        /* \"#utility.yul\":12719:12745   */\n      mload\n        /* \"#utility.yul\":12710:12745   */\n      swap1\n      pop\n        /* \"#utility.yul\":12682:12759   */\n    tag_234:\n        /* \"#utility.yul\":12785:12852   */\n      tag_235\n        /* \"#utility.yul\":12845:12851   */\n      dup6\n        /* \"#utility.yul\":12838:12843   */\n      dup3\n        /* \"#utility.yul\":12785:12852   */\n      tag_97\n      jump\t// in\n    tag_235:\n        /* \"#utility.yul\":12779:12783   */\n      dup7\n        /* \"#utility.yul\":12772:12853   */\n      sstore\n        /* \"#utility.yul\":12641:12863   */\n      pop\n        /* \"#utility.yul\":11976:12863   */\n      jump(tag_232)\n        /* \"#utility.yul\":12006:12624   */\n    tag_233:\n        /* \"#utility.yul\":12058:12062   */\n      0x1f\n        /* \"#utility.yul\":12054:12063   */\n      not\n        /* \"#utility.yul\":12046:12052   */\n      dup5\n        /* \"#utility.yul\":12042:12064   */\n      and\n        /* \"#utility.yul\":12092:12129   */\n      tag_236\n        /* \"#utility.yul\":12124:12128   */\n      dup7\n        /* \"#utility.yul\":12092:12129   */\n      tag_83\n      jump\t// in\n    tag_236:\n        /* \"#utility.yul\":12151:12152   */\n      0x00\n        /* \"#utility.yul\":12165:12373   */\n    tag_237:\n        /* \"#utility.yul\":12179:12186   */\n      dup3\n        /* \"#utility.yul\":12176:12177   */\n      dup2\n        /* \"#utility.yul\":12173:12187   */\n      lt\n        /* \"#utility.yul\":12165:12373   */\n      iszero\n      tag_239\n      jumpi\n        /* \"#utility.yul\":12258:12267   */\n      dup5\n        /* \"#utility.yul\":12253:12256   */\n      dup10\n        /* \"#utility.yul\":12249:12268   */\n      add\n        /* \"#utility.yul\":12243:12269   */\n      mload\n        /* \"#utility.yul\":12235:12241   */\n      dup3\n        /* \"#utility.yul\":12228:12270   */\n      sstore\n        /* \"#utility.yul\":12309:12310   */\n      0x01\n        /* \"#utility.yul\":12301:12307   */\n      dup3\n        /* \"#utility.yul\":12297:12311   */\n      add\n        /* \"#utility.yul\":12287:12311   */\n      swap2\n      pop\n        /* \"#utility.yul\":12356:12358   */\n      0x20\n        /* \"#utility.yul\":12345:12354   */\n      dup6\n        /* \"#utility.yul\":12341:12359   */\n      add\n        /* \"#utility.yul\":12328:12359   */\n      swap5\n      pop\n        /* \"#utility.yul\":12202:12206   */\n      0x20\n        /* \"#utility.yul\":12199:12200   */\n      dup2\n        /* \"#utility.yul\":12195:12207   */\n      add\n        /* \"#utility.yul\":12190:12207   */\n      swap1\n      pop\n        /* \"#utility.yul\":12165:12373   */\n      jump(tag_237)\n    tag_239:\n        /* \"#utility.yul\":12401:12407   */\n      dup7\n        /* \"#utility.yul\":12392:12399   */\n      dup4\n        /* \"#utility.yul\":12389:12408   */\n      lt\n        /* \"#utility.yul\":12386:12565   */\n      iszero\n      tag_240\n      jumpi\n        /* \"#utility.yul\":12459:12468   */\n      dup5\n        /* \"#utility.yul\":12454:12457   */\n      dup10\n        /* \"#utility.yul\":12450:12469   */\n      add\n        /* \"#utility.yul\":12444:12470   */\n      mload\n        /* \"#utility.yul\":12502:12550   */\n      tag_241\n        /* \"#utility.yul\":12544:12548   */\n      0x1f\n        /* \"#utility.yul\":12536:12542   */\n      dup10\n        /* \"#utility.yul\":12532:12549   */\n      and\n        /* \"#utility.yul\":12521:12530   */\n      dup3\n        /* \"#utility.yul\":12502:12550   */\n      tag_96\n      jump\t// in\n    tag_241:\n        /* \"#utility.yul\":12494:12500   */\n      dup4\n        /* \"#utility.yul\":12487:12551   */\n      sstore\n        /* \"#utility.yul\":12409:12565   */\n      pop\n        /* \"#utility.yul\":12386:12565   */\n    tag_240:\n        /* \"#utility.yul\":12611:12612   */\n      0x01\n        /* \"#utility.yul\":12607:12608   */\n      0x02\n        /* \"#utility.yul\":12599:12605   */\n      dup9\n        /* \"#utility.yul\":12595:12609   */\n      mul\n        /* \"#utility.yul\":12591:12613   */\n      add\n        /* \"#utility.yul\":12585:12589   */\n      dup9\n        /* \"#utility.yul\":12578:12614   */\n      sstore\n        /* \"#utility.yul\":12013:12624   */\n      pop\n      pop\n      pop\n        /* \"#utility.yul\":11976:12863   */\n    tag_232:\n      pop\n        /* \"#utility.yul\":11566:12869   */\n      pop\n      pop\n      pop\n        /* \"#utility.yul\":11474:12869   */\n      pop\n      pop\n      jump\t// out\n        /* \"#utility.yul\":12875:13195   */\n    tag_52:\n        /* \"#utility.yul\":12990:12994   */\n      0x00\n        /* \"#utility.yul\":13028:13030   */\n      0x40\n        /* \"#utility.yul\":13017:13026   */\n      dup3\n        /* \"#utility.yul\":13013:13031   */\n      add\n        /* \"#utility.yul\":13005:13031   */\n      swap1\n      pop\n        /* \"#utility.yul\":13041:13112   */\n      tag_243\n        /* \"#utility.yul\":13109:13110   */\n      0x00\n        /* \"#utility.yul\":13098:13107   */\n      dup4\n        /* \"#utility.yul\":13094:13111   */\n      add\n        /* \"#utility.yul\":13085:13091   */\n      dup6\n        /* \"#utility.yul\":13041:13112   */\n      tag_77\n      jump\t// in\n    tag_243:\n        /* \"#utility.yul\":13122:13188   */\n      tag_244\n        /* \"#utility.yul\":13184:13186   */\n      0x20\n        /* \"#utility.yul\":13173:13182   */\n      dup4\n        /* \"#utility.yul\":13169:13187   */\n      add\n        /* \"#utility.yul\":13160:13166   */\n      dup5\n        /* \"#utility.yul\":13122:13188   */\n      tag_80\n      jump\t// in\n    tag_244:\n        /* \"#utility.yul\":12875:13195   */\n      swap4\n      swap3\n      pop\n      pop\n      pop\n      jump\t// out\n\n    auxdata: 0xa264697066735822122095ee27d1cfc5142845144fbe4460bb90aef6c1e80ba58f01118f4c2c808d296f64736f6c634300081a0033\n}\n",
				"bytecode": {
					"linkReferences": {},
					"object": "60806040525f80553480156011575f80fd5b50610b3d8061001f5f395ff3fe608060405234801561000f575f80fd5b5060043610610055575f3560e01c8063111002aa146100595780631d65e77e146100755780638d977672146100a5578063b6cb58a5146100d7578063e1e29558146100f5575b5f80fd5b610073600480360381019061006e919061054d565b610111565b005b61008f600480360381019061008a91906105c7565b6101d6565b60405161009c91906106c8565b60405180910390f35b6100bf60048036038101906100ba91906105c7565b6102b4565b6040516100ce9392919061074e565b60405180910390f35b6100df61036c565b6040516100ec919061078a565b60405180910390f35b61010f600480360381019061010a91906105c7565b610371565b005b5f80815480929190610122906107d0565b919050555060405180606001604052805f5481526020018281526020015f151581525060015f805481526020019081526020015f205f820151815f015560208201518160010190816101749190610a11565b506040820151816002015f6101000a81548160ff0219169083151502179055509050507f05d0fb833127fc08168556d0e7ca9554fc3f6bc843b3b7d2bf1c35aea6bab6605f54825f6040516101cb9392919061074e565b60405180910390a150565b6101de6103df565b60015f8381526020019081526020015f206040518060600160405290815f820154815260200160018201805461021390610844565b80601f016020809104026020016040519081016040528092919081815260200182805461023f90610844565b801561028a5780601f106102615761010080835404028352916020019161028a565b820191905f5260205f20905b81548152906001019060200180831161026d57829003601f168201915b50505050508152602001600282015f9054906101000a900460ff1615151515815250509050919050565b6001602052805f5260405f205f91509050805f0154908060010180546102d990610844565b80601f016020809104026020016040519081016040528092919081815260200182805461030590610844565b80156103505780601f1061032757610100808354040283529160200191610350565b820191905f5260205f20905b81548152906001019060200180831161033357829003601f168201915b505050505090806002015f9054906101000a900460ff16905083565b5f5481565b5f60015f8381526020019081526020015f2090506001816002015f6101000a81548160ff0219169083151502179055507fe21fa966ca5cd02748c0752352d18c48165e61cb55b4c29cccf924b5a95fcff18260016040516103d3929190610ae0565b60405180910390a15050565b60405180606001604052805f8152602001606081526020015f151581525090565b5f604051905090565b5f80fd5b5f80fd5b5f80fd5b5f80fd5b5f601f19601f8301169050919050565b7f4e487b71000000000000000000000000000000000000000000000000000000005f52604160045260245ffd5b61045f82610419565b810181811067ffffffffffffffff8211171561047e5761047d610429565b5b80604052505050565b5f610490610400565b905061049c8282610456565b919050565b5f67ffffffffffffffff8211156104bb576104ba610429565b5b6104c482610419565b9050602081019050919050565b828183375f83830152505050565b5f6104f16104ec846104a1565b610487565b90508281526020810184848401111561050d5761050c610415565b5b6105188482856104d1565b509392505050565b5f82601f83011261053457610533610411565b5b81356105448482602086016104df565b91505092915050565b5f6020828403121561056257610561610409565b5b5f82013567ffffffffffffffff81111561057f5761057e61040d565b5b61058b84828501610520565b91505092915050565b5f819050919050565b6105a681610594565b81146105b0575f80fd5b50565b5f813590506105c18161059d565b92915050565b5f602082840312156105dc576105db610409565b5b5f6105e9848285016105b3565b91505092915050565b6105fb81610594565b82525050565b5f81519050919050565b5f82825260208201905092915050565b8281835e5f83830152505050565b5f61063382610601565b61063d818561060b565b935061064d81856020860161061b565b61065681610419565b840191505092915050565b5f8115159050919050565b61067581610661565b82525050565b5f606083015f8301516106905f8601826105f2565b50602083015184820360208601526106a88282610629565b91505060408301516106bd604086018261066c565b508091505092915050565b5f6020820190508181035f8301526106e0818461067b565b905092915050565b6106f181610594565b82525050565b5f82825260208201905092915050565b5f61071182610601565b61071b81856106f7565b935061072b81856020860161061b565b61073481610419565b840191505092915050565b61074881610661565b82525050565b5f6060820190506107615f8301866106e8565b81810360208301526107738185610707565b9050610782604083018461073f565b949350505050565b5f60208201905061079d5f8301846106e8565b92915050565b7f4e487b71000000000000000000000000000000000000000000000000000000005f52601160045260245ffd5b5f6107da82610594565b91507fffffffffffffffffffffffffffffffffffffffffffffffffffffffffffffffff820361080c5761080b6107a3565b5b600182019050919050565b7f4e487b71000000000000000000000000000000000000000000000000000000005f52602260045260245ffd5b5f600282049050600182168061085b57607f821691505b60208210810361086e5761086d610817565b5b50919050565b5f819050815f5260205f209050919050565b5f6020601f8301049050919050565b5f82821b905092915050565b5f600883026108d07fffffffffffffffffffffffffffffffffffffffffffffffffffffffffffffffff82610895565b6108da8683610895565b95508019841693508086168417925050509392505050565b5f819050919050565b5f61091561091061090b84610594565b6108f2565b610594565b9050919050565b5f819050919050565b61092e836108fb565b61094261093a8261091c565b8484546108a1565b825550505050565b5f90565b61095661094a565b610961818484610925565b505050565b5b81811015610984576109795f8261094e565b600181019050610967565b5050565b601f8211156109c95761099a81610874565b6109a384610886565b810160208510156109b2578190505b6109c66109be85610886565b830182610966565b50505b505050565b5f82821c905092915050565b5f6109e95f19846008026109ce565b1980831691505092915050565b5f610a0183836109da565b9150826002028217905092915050565b610a1a82610601565b67ffffffffffffffff811115610a3357610a32610429565b5b610a3d8254610844565b610a48828285610988565b5f60209050601f831160018114610a79575f8415610a67578287015190505b610a7185826109f6565b865550610ad8565b601f198416610a8786610874565b5f5b82811015610aae57848901518255600182019150602085019450602081019050610a89565b86831015610acb5784890151610ac7601f8916826109da565b8355505b6001600288020188555050505b505050505050565b5f604082019050610af35f8301856106e8565b610b00602083018461073f565b939250505056fea264697066735822122095ee27d1cfc5142845144fbe4460bb90aef6c1e80ba58f01118f4c2c808d296f64736f6c634300081a0033",
					"opcodes": "PUSH1 0x80 PUSH1 0x40 MSTORE PUSH0 DUP1 SSTORE CALLVALUE DUP1 ISZERO PUSH1 0x11 JUMPI PUSH0 DUP1 REVERT JUMPDEST POP PUSH2 0xB3D DUP1 PUSH2 0x1F PUSH0 CODECOPY PUSH0 RETURN INVALID PUSH1 0x80 PUSH1 0x40 MSTORE CALLVALUE DUP1 ISZERO PUSH2 0xF JUMPI PUSH0 DUP1 REVERT JUMPDEST POP PUSH1 0x4 CALLDATASIZE LT PUSH2 0x55 JUMPI PUSH0 CALLDATALOAD PUSH1 0xE0 SHR DUP1 PUSH4 0x111002AA EQ PUSH2 0x59 JUMPI DUP1 PUSH4 0x1D65E77E EQ PUSH2 0x75 JUMPI DUP1 PUSH4 0x8D977672 EQ PUSH2 0xA5 JUMPI DUP1 PUSH4 0xB6CB58A5 EQ PUSH2 0xD7 JUMPI DUP1 PUSH4 0xE1E29558 EQ PUSH2 0xF5 JUMPI JUMPDEST PUSH0 DUP1 REVERT JUMPDEST PUSH2 0x73 PUSH1 0x4 DUP1 CALLDATASIZE SUB DUP2 ADD SWAP1 PUSH2 0x6E SWAP2 SWAP1 PUSH2 0x54D JUMP JUMPDEST PUSH2 0x111 JUMP JUMPDEST STOP JUMPDEST PUSH2 0x8F PUSH1 0x4 DUP1 CALLDATASIZE SUB DUP2 ADD SWAP1 PUSH2 0x8A SWAP2 SWAP1 PUSH2 0x5C7 JUMP JUMPDEST PUSH2 0x1D6 JUMP JUMPDEST PUSH1 0x40 MLOAD PUSH2 0x9C SWAP2 SWAP1 PUSH2 0x6C8 JUMP JUMPDEST PUSH1 0x40 MLOAD DUP1 SWAP2 SUB SWAP1 RETURN JUMPDEST PUSH2 0xBF PUSH1 0x4 DUP1 CALLDATASIZE SUB DUP2 ADD SWAP1 PUSH2 0xBA SWAP2 SWAP1 PUSH2 0x5C7 JUMP JUMPDEST PUSH2 0x2B4 JUMP JUMPDEST PUSH1 0x40 MLOAD PUSH2 0xCE SWAP4 SWAP3 SWAP2 SWAP1 PUSH2 0x74E JUMP JUMPDEST PUSH1 0x40 MLOAD DUP1 SWAP2 SUB SWAP1 RETURN JUMPDEST PUSH2 0xDF PUSH2 0x36C JUMP JUMPDEST PUSH1 0x40 MLOAD PUSH2 0xEC SWAP2 SWAP1 PUSH2 0x78A JUMP JUMPDEST PUSH1 0x40 MLOAD DUP1 SWAP2 SUB SWAP1 RETURN JUMPDEST PUSH2 0x10F PUSH1 0x4 DUP1 CALLDATASIZE SUB DUP2 ADD SWAP1 PUSH2 0x10A SWAP2 SWAP1 PUSH2 0x5C7 JUMP JUMPDEST PUSH2 0x371 JUMP JUMPDEST STOP JUMPDEST PUSH0 DUP1 DUP2 SLOAD DUP1 SWAP3 SWAP2 SWAP1 PUSH2 0x122 SWAP1 PUSH2 0x7D0 JUMP JUMPDEST SWAP2 SWAP1 POP SSTORE POP PUSH1 0x40 MLOAD DUP1 PUSH1 0x60 ADD PUSH1 0x40 MSTORE DUP1 PUSH0 SLOAD DUP2 MSTORE PUSH1 0x20 ADD DUP3 DUP2 MSTORE PUSH1 0x20 ADD PUSH0 ISZERO ISZERO DUP2 MSTORE POP PUSH1 0x1 PUSH0 DUP1 SLOAD DUP2 MSTORE PUSH1 0x20 ADD SWAP1 DUP2 MSTORE PUSH1 0x20 ADD PUSH0 KECCAK256 PUSH0 DUP3 ADD MLOAD DUP2 PUSH0 ADD SSTORE PUSH1 0x20 DUP3 ADD MLOAD DUP2 PUSH1 0x1 ADD SWAP1 DUP2 PUSH2 0x174 SWAP2 SWAP1 PUSH2 0xA11 JUMP JUMPDEST POP PUSH1 0x40 DUP3 ADD MLOAD DUP2 PUSH1 0x2 ADD PUSH0 PUSH2 0x100 EXP DUP2 SLOAD DUP2 PUSH1 0xFF MUL NOT AND SWAP1 DUP4 ISZERO ISZERO MUL OR SWAP1 SSTORE POP SWAP1 POP POP PUSH32 0x5D0FB833127FC08168556D0E7CA9554FC3F6BC843B3B7D2BF1C35AEA6BAB660 PUSH0 SLOAD DUP3 PUSH0 PUSH1 0x40 MLOAD PUSH2 0x1CB SWAP4 SWAP3 SWAP2 SWAP1 PUSH2 0x74E JUMP JUMPDEST PUSH1 0x40 MLOAD DUP1 SWAP2 SUB SWAP1 LOG1 POP JUMP JUMPDEST PUSH2 0x1DE PUSH2 0x3DF JUMP JUMPDEST PUSH1 0x1 PUSH0 DUP4 DUP2 MSTORE PUSH1 0x20 ADD SWAP1 DUP2 MSTORE PUSH1 0x20 ADD PUSH0 KECCAK256 PUSH1 0x40 MLOAD DUP1 PUSH1 0x60 ADD PUSH1 0x40 MSTORE SWAP1 DUP2 PUSH0 DUP3 ADD SLOAD DUP2 MSTORE PUSH1 0x20 ADD PUSH1 0x1 DUP3 ADD DUP1 SLOAD PUSH2 0x213 SWAP1 PUSH2 0x844 JUMP JUMPDEST DUP1 PUSH1 0x1F ADD PUSH1 0x20 DUP1 SWAP2 DIV MUL PUSH1 0x20 ADD PUSH1 0x40 MLOAD SWAP1 DUP2 ADD PUSH1 0x40 MSTORE DUP1 SWAP3 SWAP2 SWAP1 DUP2 DUP2 MSTORE PUSH1 0x20 ADD DUP3 DUP1 SLOAD PUSH2 0x23F SWAP1 PUSH2 0x844 JUMP JUMPDEST DUP1 ISZERO PUSH2 0x28A JUMPI DUP1 PUSH1 0x1F LT PUSH2 0x261 JUMPI PUSH2 0x100 DUP1 DUP4 SLOAD DIV MUL DUP4 MSTORE SWAP2 PUSH1 0x20 ADD SWAP2 PUSH2 0x28A JUMP JUMPDEST DUP3 ADD SWAP2 SWAP1 PUSH0 MSTORE PUSH1 0x20 PUSH0 KECCAK256 SWAP1 JUMPDEST DUP2 SLOAD DUP2 MSTORE SWAP1 PUSH1 0x1 ADD SWAP1 PUSH1 0x20 ADD DUP1 DUP4 GT PUSH2 0x26D JUMPI DUP3 SWAP1 SUB PUSH1 0x1F AND DUP3 ADD SWAP2 JUMPDEST POP POP POP POP POP DUP2 MSTORE PUSH1 0x20 ADD PUSH1 0x2 DUP3 ADD PUSH0 SWAP1 SLOAD SWAP1 PUSH2 0x100 EXP SWAP1 DIV PUSH1 0xFF AND ISZERO ISZERO ISZERO ISZERO DUP2 MSTORE POP POP SWAP1 POP SWAP2 SWAP1 POP JUMP JUMPDEST PUSH1 0x1 PUSH1 0x20 MSTORE DUP1 PUSH0 MSTORE PUSH1 0x40 PUSH0 KECCAK256 PUSH0 SWAP2 POP SWAP1 POP DUP1 PUSH0 ADD SLOAD SWAP1 DUP1 PUSH1 0x1 ADD DUP1 SLOAD PUSH2 0x2D9 SWAP1 PUSH2 0x844 JUMP JUMPDEST DUP1 PUSH1 0x1F ADD PUSH1 0x20 DUP1 SWAP2 DIV MUL PUSH1 0x20 ADD PUSH1 0x40 MLOAD SWAP1 DUP2 ADD PUSH1 0x40 MSTORE DUP1 SWAP3 SWAP2 SWAP1 DUP2 DUP2 MSTORE PUSH1 0x20 ADD DUP3 DUP1 SLOAD PUSH2 0x305 SWAP1 PUSH2 0x844 JUMP JUMPDEST DUP1 ISZERO PUSH2 0x350 JUMPI DUP1 PUSH1 0x1F LT PUSH2 0x327 JUMPI PUSH2 0x100 DUP1 DUP4 SLOAD DIV MUL DUP4 MSTORE SWAP2 PUSH1 0x20 ADD SWAP2 PUSH2 0x350 JUMP JUMPDEST DUP3 ADD SWAP2 SWAP1 PUSH0 MSTORE PUSH1 0x20 PUSH0 KECCAK256 SWAP1 JUMPDEST DUP2 SLOAD DUP2 MSTORE SWAP1 PUSH1 0x1 ADD SWAP1 PUSH1 0x20 ADD DUP1 DUP4 GT PUSH2 0x333 JUMPI DUP3 SWAP1 SUB PUSH1 0x1F AND DUP3 ADD SWAP2 JUMPDEST POP POP POP POP POP SWAP1 DUP1 PUSH1 0x2 ADD PUSH0 SWAP1 SLOAD SWAP1 PUSH2 0x100 EXP SWAP1 DIV PUSH1 0xFF AND SWAP1 POP DUP4 JUMP JUMPDEST PUSH0 SLOAD DUP2 JUMP JUMPDEST PUSH0 PUSH1 0x1 PUSH0 DUP4 DUP2 MSTORE PUSH1 0x20 ADD SWAP1 DUP2 MSTORE PUSH1 0x20 ADD PUSH0 KECCAK256 SWAP1 POP PUSH1 0x1 DUP2 PUSH1 0x2 ADD PUSH0 PUSH2 0x100 EXP DUP2 SLOAD DUP2 PUSH1 0xFF MUL NOT AND SWAP1 DUP4 ISZERO ISZERO MUL OR SWAP1 SSTORE POP PUSH32 0xE21FA966CA5CD02748C0752352D18C48165E61CB55B4C29CCCF924B5A95FCFF1 DUP3 PUSH1 0x1 PUSH1 0x40 MLOAD PUSH2 0x3D3 SWAP3 SWAP2 SWAP1 PUSH2 0xAE0 JUMP JUMPDEST PUSH1 0x40 MLOAD DUP1 SWAP2 SUB SWAP1 LOG1 POP POP JUMP JUMPDEST PUSH1 0x40 MLOAD DUP1 PUSH1 0x60 ADD PUSH1 0x40 MSTORE DUP1 PUSH0 DUP2 MSTORE PUSH1 0x20 ADD PUSH1 0x60 DUP2 MSTORE PUSH1 0x20 ADD PUSH0 ISZERO ISZERO DUP2 MSTORE POP SWAP1 JUMP JUMPDEST PUSH0 PUSH1 0x40 MLOAD SWAP1 POP SWAP1 JUMP JUMPDEST PUSH0 DUP1 REVERT JUMPDEST PUSH0 DUP1 REVERT JUMPDEST PUSH0 DUP1 REVERT JUMPDEST PUSH0 DUP1 REVERT JUMPDEST PUSH0 PUSH1 0x1F NOT PUSH1 0x1F DUP4 ADD AND SWAP1 POP SWAP2 SWAP1 POP JUMP JUMPDEST PUSH32 0x4E487B7100000000000000000000000000000000000000000000000000000000 PUSH0 MSTORE PUSH1 0x41 PUSH1 0x4 MSTORE PUSH1 0x24 PUSH0 REVERT JUMPDEST PUSH2 0x45F DUP3 PUSH2 0x419 JUMP JUMPDEST DUP2 ADD DUP2 DUP2 LT PUSH8 0xFFFFFFFFFFFFFFFF DUP3 GT OR ISZERO PUSH2 0x47E JUMPI PUSH2 0x47D PUSH2 0x429 JUMP JUMPDEST JUMPDEST DUP1 PUSH1 0x40 MSTORE POP POP POP JUMP JUMPDEST PUSH0 PUSH2 0x490 PUSH2 0x400 JUMP JUMPDEST SWAP1 POP PUSH2 0x49C DUP3 DUP3 PUSH2 0x456 JUMP JUMPDEST SWAP2 SWAP1 POP JUMP JUMPDEST PUSH0 PUSH8 0xFFFFFFFFFFFFFFFF DUP3 GT ISZERO PUSH2 0x4BB JUMPI PUSH2 0x4BA PUSH2 0x429 JUMP JUMPDEST JUMPDEST PUSH2 0x4C4 DUP3 PUSH2 0x419 JUMP JUMPDEST SWAP1 POP PUSH1 0x20 DUP2 ADD SWAP1 POP SWAP2 SWAP1 POP JUMP JUMPDEST DUP3 DUP2 DUP4 CALLDATACOPY PUSH0 DUP4 DUP4 ADD MSTORE POP POP POP JUMP JUMPDEST PUSH0 PUSH2 0x4F1 PUSH2 0x4EC DUP5 PUSH2 0x4A1 JUMP JUMPDEST PUSH2 0x487 JUMP JUMPDEST SWAP1 POP DUP3 DUP2 MSTORE PUSH1 0x20 DUP2 ADD DUP5 DUP5 DUP5 ADD GT ISZERO PUSH2 0x50D JUMPI PUSH2 0x50C PUSH2 0x415 JUMP JUMPDEST JUMPDEST PUSH2 0x518 DUP5 DUP3 DUP6 PUSH2 0x4D1 JUMP JUMPDEST POP SWAP4 SWAP3 POP POP POP JUMP JUMPDEST PUSH0 DUP3 PUSH1 0x1F DUP4 ADD SLT PUSH2 0x534 JUMPI PUSH2 0x533 PUSH2 0x411 JUMP JUMPDEST JUMPDEST DUP2 CALLDATALOAD PUSH2 0x544 DUP5 DUP3 PUSH1 0x20 DUP7 ADD PUSH2 0x4DF JUMP JUMPDEST SWAP2 POP POP SWAP3 SWAP2 POP POP JUMP JUMPDEST PUSH0 PUSH1 0x20 DUP3 DUP5 SUB SLT ISZERO PUSH2 0x562 JUMPI PUSH2 0x561 PUSH2 0x409 JUMP JUMPDEST JUMPDEST PUSH0 DUP3 ADD CALLDATALOAD PUSH8 0xFFFFFFFFFFFFFFFF DUP2 GT ISZERO PUSH2 0x57F JUMPI PUSH2 0x57E PUSH2 0x40D JUMP JUMPDEST JUMPDEST PUSH2 0x58B DUP5 DUP3 DUP6 ADD PUSH2 0x520 JUMP JUMPDEST SWAP2 POP POP SWAP3 SWAP2 POP POP JUMP JUMPDEST PUSH0 DUP2 SWAP1 POP SWAP2 SWAP1 POP JUMP JUMPDEST PUSH2 0x5A6 DUP2 PUSH2 0x594 JUMP JUMPDEST DUP2 EQ PUSH2 0x5B0 JUMPI PUSH0 DUP1 REVERT JUMPDEST POP JUMP JUMPDEST PUSH0 DUP2 CALLDATALOAD SWAP1 POP PUSH2 0x5C1 DUP2 PUSH2 0x59D JUMP JUMPDEST SWAP3 SWAP2 POP POP JUMP JUMPDEST PUSH0 PUSH1 0x20 DUP3 DUP5 SUB SLT ISZERO PUSH2 0x5DC JUMPI PUSH2 0x5DB PUSH2 0x409 JUMP JUMPDEST JUMPDEST PUSH0 PUSH2 0x5E9 DUP5 DUP3 DUP6 ADD PUSH2 0x5B3 JUMP JUMPDEST SWAP2 POP POP SWAP3 SWAP2 POP POP JUMP JUMPDEST PUSH2 0x5FB DUP2 PUSH2 0x594 JUMP JUMPDEST DUP3 MSTORE POP POP JUMP JUMPDEST PUSH0 DUP2 MLOAD SWAP1 POP SWAP2 SWAP1 POP JUMP JUMPDEST PUSH0 DUP3 DUP3 MSTORE PUSH1 0x20 DUP3 ADD SWAP1 POP SWAP3 SWAP2 POP POP JUMP JUMPDEST DUP3 DUP2 DUP4 MCOPY PUSH0 DUP4 DUP4 ADD MSTORE POP POP POP JUMP JUMPDEST PUSH0 PUSH2 0x633 DUP3 PUSH2 0x601 JUMP JUMPDEST PUSH2 0x63D DUP2 DUP6 PUSH2 0x60B JUMP JUMPDEST SWAP4 POP PUSH2 0x64D DUP2 DUP6 PUSH1 0x20 DUP7 ADD PUSH2 0x61B JUMP JUMPDEST PUSH2 0x656 DUP2 PUSH2 0x419 JUMP JUMPDEST DUP5 ADD SWAP2 POP POP SWAP3 SWAP2 POP POP JUMP JUMPDEST PUSH0 DUP2 ISZERO ISZERO SWAP1 POP SWAP2 SWAP1 POP JUMP JUMPDEST PUSH2 0x675 DUP2 PUSH2 0x661 JUMP JUMPDEST DUP3 MSTORE POP POP JUMP JUMPDEST PUSH0 PUSH1 0x60 DUP4 ADD PUSH0 DUP4 ADD MLOAD PUSH2 0x690 PUSH0 DUP7 ADD DUP3 PUSH2 0x5F2 JUMP JUMPDEST POP PUSH1 0x20 DUP4 ADD MLOAD DUP5 DUP3 SUB PUSH1 0x20 DUP7 ADD MSTORE PUSH2 0x6A8 DUP3 DUP3 PUSH2 0x629 JUMP JUMPDEST SWAP2 POP POP PUSH1 0x40 DUP4 ADD MLOAD PUSH2 0x6BD PUSH1 0x40 DUP7 ADD DUP3 PUSH2 0x66C JUMP JUMPDEST POP DUP1 SWAP2 POP POP SWAP3 SWAP2 POP POP JUMP JUMPDEST PUSH0 PUSH1 0x20 DUP3 ADD SWAP1 POP DUP2 DUP2 SUB PUSH0 DUP4 ADD MSTORE PUSH2 0x6E0 DUP2 DUP5 PUSH2 0x67B JUMP JUMPDEST SWAP1 POP SWAP3 SWAP2 POP POP JUMP JUMPDEST PUSH2 0x6F1 DUP2 PUSH2 0x594 JUMP JUMPDEST DUP3 MSTORE POP POP JUMP JUMPDEST PUSH0 DUP3 DUP3 MSTORE PUSH1 0x20 DUP3 ADD SWAP1 POP SWAP3 SWAP2 POP POP JUMP JUMPDEST PUSH0 PUSH2 0x711 DUP3 PUSH2 0x601 JUMP JUMPDEST PUSH2 0x71B DUP2 DUP6 PUSH2 0x6F7 JUMP JUMPDEST SWAP4 POP PUSH2 0x72B DUP2 DUP6 PUSH1 0x20 DUP7 ADD PUSH2 0x61B JUMP JUMPDEST PUSH2 0x734 DUP2 PUSH2 0x419 JUMP JUMPDEST DUP5 ADD SWAP2 POP POP SWAP3 SWAP2 POP POP JUMP JUMPDEST PUSH2 0x748 DUP2 PUSH2 0x661 JUMP JUMPDEST DUP3 MSTORE POP POP JUMP JUMPDEST PUSH0 PUSH1 0x60 DUP3 ADD SWAP1 POP PUSH2 0x761 PUSH0 DUP4 ADD DUP7 PUSH2 0x6E8 JUMP JUMPDEST DUP2 DUP2 SUB PUSH1 0x20 DUP4 ADD MSTORE PUSH2 0x773 DUP2 DUP6 PUSH2 0x707 JUMP JUMPDEST SWAP1 POP PUSH2 0x782 PUSH1 0x40 DUP4 ADD DUP5 PUSH2 0x73F JUMP JUMPDEST SWAP5 SWAP4 POP POP POP POP JUMP JUMPDEST PUSH0 PUSH1 0x20 DUP3 ADD SWAP1 POP PUSH2 0x79D PUSH0 DUP4 ADD DUP5 PUSH2 0x6E8 JUMP JUMPDEST SWAP3 SWAP2 POP POP JUMP JUMPDEST PUSH32 0x4E487B7100000000000000000000000000000000000000000000000000000000 PUSH0 MSTORE PUSH1 0x11 PUSH1 0x4 MSTORE PUSH1 0x24 PUSH0 REVERT JUMPDEST PUSH0 PUSH2 0x7DA DUP3 PUSH2 0x594 JUMP JUMPDEST SWAP2 POP PUSH32 0xFFFFFFFFFFFFFFFFFFFFFFFFFFFFFFFFFFFFFFFFFFFFFFFFFFFFFFFFFFFFFFFF DUP3 SUB PUSH2 0x80C JUMPI PUSH2 0x80B PUSH2 0x7A3 JUMP JUMPDEST JUMPDEST PUSH1 0x1 DUP3 ADD SWAP1 POP SWAP2 SWAP1 POP JUMP JUMPDEST PUSH32 0x4E487B7100000000000000000000000000000000000000000000000000000000 PUSH0 MSTORE PUSH1 0x22 PUSH1 0x4 MSTORE PUSH1 0x24 PUSH0 REVERT JUMPDEST PUSH0 PUSH1 0x2 DUP3 DIV SWAP1 POP PUSH1 0x1 DUP3 AND DUP1 PUSH2 0x85B JUMPI PUSH1 0x7F DUP3 AND SWAP2 POP JUMPDEST PUSH1 0x20 DUP3 LT DUP2 SUB PUSH2 0x86E JUMPI PUSH2 0x86D PUSH2 0x817 JUMP JUMPDEST JUMPDEST POP SWAP2 SWAP1 POP JUMP JUMPDEST PUSH0 DUP2 SWAP1 POP DUP2 PUSH0 MSTORE PUSH1 0x20 PUSH0 KECCAK256 SWAP1 POP SWAP2 SWAP1 POP JUMP JUMPDEST PUSH0 PUSH1 0x20 PUSH1 0x1F DUP4 ADD DIV SWAP1 POP SWAP2 SWAP1 POP JUMP JUMPDEST PUSH0 DUP3 DUP3 SHL SWAP1 POP SWAP3 SWAP2 POP POP JUMP JUMPDEST PUSH0 PUSH1 0x8 DUP4 MUL PUSH2 0x8D0 PUSH32 0xFFFFFFFFFFFFFFFFFFFFFFFFFFFFFFFFFFFFFFFFFFFFFFFFFFFFFFFFFFFFFFFF DUP3 PUSH2 0x895 JUMP JUMPDEST PUSH2 0x8DA DUP7 DUP4 PUSH2 0x895 JUMP JUMPDEST SWAP6 POP DUP1 NOT DUP5 AND SWAP4 POP DUP1 DUP7 AND DUP5 OR SWAP3 POP POP POP SWAP4 SWAP3 POP POP POP JUMP JUMPDEST PUSH0 DUP2 SWAP1 POP SWAP2 SWAP1 POP JUMP JUMPDEST PUSH0 PUSH2 0x915 PUSH2 0x910 PUSH2 0x90B DUP5 PUSH2 0x594 JUMP JUMPDEST PUSH2 0x8F2 JUMP JUMPDEST PUSH2 0x594 JUMP JUMPDEST SWAP1 POP SWAP2 SWAP1 POP JUMP JUMPDEST PUSH0 DUP2 SWAP1 POP SWAP2 SWAP1 POP JUMP JUMPDEST PUSH2 0x92E DUP4 PUSH2 0x8FB JUMP JUMPDEST PUSH2 0x942 PUSH2 0x93A DUP3 PUSH2 0x91C JUMP JUMPDEST DUP5 DUP5 SLOAD PUSH2 0x8A1 JUMP JUMPDEST DUP3 SSTORE POP POP POP POP JUMP JUMPDEST PUSH0 SWAP1 JUMP JUMPDEST PUSH2 0x956 PUSH2 0x94A JUMP JUMPDEST PUSH2 0x961 DUP2 DUP5 DUP5 PUSH2 0x925 JUMP JUMPDEST POP POP POP JUMP JUMPDEST JUMPDEST DUP2 DUP2 LT ISZERO PUSH2 0x984 JUMPI PUSH2 0x979 PUSH0 DUP3 PUSH2 0x94E JUMP JUMPDEST PUSH1 0x1 DUP2 ADD SWAP1 POP PUSH2 0x967 JUMP JUMPDEST POP POP JUMP JUMPDEST PUSH1 0x1F DUP3 GT ISZERO PUSH2 0x9C9 JUMPI PUSH2 0x99A DUP2 PUSH2 0x874 JUMP JUMPDEST PUSH2 0x9A3 DUP5 PUSH2 0x886 JUMP JUMPDEST DUP2 ADD PUSH1 0x20 DUP6 LT ISZERO PUSH2 0x9B2 JUMPI DUP2 SWAP1 POP JUMPDEST PUSH2 0x9C6 PUSH2 0x9BE DUP6 PUSH2 0x886 JUMP JUMPDEST DUP4 ADD DUP3 PUSH2 0x966 JUMP JUMPDEST POP POP JUMPDEST POP POP POP JUMP JUMPDEST PUSH0 DUP3 DUP3 SHR SWAP1 POP SWAP3 SWAP2 POP POP JUMP JUMPDEST PUSH0 PUSH2 0x9E9 PUSH0 NOT DUP5 PUSH1 0x8 MUL PUSH2 0x9CE JUMP JUMPDEST NOT DUP1 DUP4 AND SWAP2 POP POP SWAP3 SWAP2 POP POP JUMP JUMPDEST PUSH0 PUSH2 0xA01 DUP4 DUP4 PUSH2 0x9DA JUMP JUMPDEST SWAP2 POP DUP3 PUSH1 0x2 MUL DUP3 OR SWAP1 POP SWAP3 SWAP2 POP POP JUMP JUMPDEST PUSH2 0xA1A DUP3 PUSH2 0x601 JUMP JUMPDEST PUSH8 0xFFFFFFFFFFFFFFFF DUP2 GT ISZERO PUSH2 0xA33 JUMPI PUSH2 0xA32 PUSH2 0x429 JUMP JUMPDEST JUMPDEST PUSH2 0xA3D DUP3 SLOAD PUSH2 0x844 JUMP JUMPDEST PUSH2 0xA48 DUP3 DUP3 DUP6 PUSH2 0x988 JUMP JUMPDEST PUSH0 PUSH1 0x20 SWAP1 POP PUSH1 0x1F DUP4 GT PUSH1 0x1 DUP2 EQ PUSH2 0xA79 JUMPI PUSH0 DUP5 ISZERO PUSH2 0xA67 JUMPI DUP3 DUP8 ADD MLOAD SWAP1 POP JUMPDEST PUSH2 0xA71 DUP6 DUP3 PUSH2 0x9F6 JUMP JUMPDEST DUP7 SSTORE POP PUSH2 0xAD8 JUMP JUMPDEST PUSH1 0x1F NOT DUP5 AND PUSH2 0xA87 DUP7 PUSH2 0x874 JUMP JUMPDEST PUSH0 JUMPDEST DUP3 DUP2 LT ISZERO PUSH2 0xAAE JUMPI DUP5 DUP10 ADD MLOAD DUP3 SSTORE PUSH1 0x1 DUP3 ADD SWAP2 POP PUSH1 0x20 DUP6 ADD SWAP5 POP PUSH1 0x20 DUP2 ADD SWAP1 POP PUSH2 0xA89 JUMP JUMPDEST DUP7 DUP4 LT ISZERO PUSH2 0xACB JUMPI DUP5 DUP10 ADD MLOAD PUSH2 0xAC7 PUSH1 0x1F DUP10 AND DUP3 PUSH2 0x9DA JUMP JUMPDEST DUP4 SSTORE POP JUMPDEST PUSH1 0x1 PUSH1 0x2 DUP9 MUL ADD DUP9 SSTORE POP POP POP JUMPDEST POP POP POP POP POP POP JUMP JUMPDEST PUSH0 PUSH1 0x40 DUP3 ADD SWAP1 POP PUSH2 0xAF3 PUSH0 DUP4 ADD DUP6 PUSH2 0x6E8 JUMP JUMPDEST PUSH2 0xB00 PUSH1 0x20 DUP4 ADD DUP5 PUSH2 0x73F JUMP JUMPDEST SWAP4 SWAP3 POP POP POP JUMP INVALID LOG2 PUSH5 0x6970667358 0x22 SLT KECCAK256 SWAP6 0xEE 0x27 0xD1 0xCF 0xC5 EQ 0x28 GASLIMIT EQ 0x4F 0xBE PREVRANDAO PUSH1 0xBB SWAP1 0xAE 0xF6 0xC1 0xE8 SIGNEXTEND 0xA5 DUP16 ADD GT DUP16 0x4C 0x2C DUP1 DUP14 0x29 PUSH16 0x64736F6C634300081A00330000000000 "
				},
				"gasEstimates": {
					"creation": {
						"codeDepositCost": "575400",
						"executionCost": "5609",
						"totalCost": "581009"
					},
					"external": {
						"completeTask(uint256)": "infinite",
						"createTask(string)": "infinite",
						"getTask(uint256)": "infinite",
						"taskCount()": "2468",
						"tasks(uint256)": "infinite"
					}
				},
				"methodIdentifiers": {
					"completeTask(uint256)": "e1e29558",
					"createTask(string)": "111002aa",
					"getTask(uint256)": "1d65e77e",
					"taskCount()": "b6cb58a5",
					"tasks(uint256)": "8d977672"
				}
			},
			"storageLayout": {
				"storage": [
					{
						"astId": 4,
						"contract": "todoList.sol:TodoList",
						"label": "taskCount",
						"offset": 0,
						"slot": "0",
						"type": "t_uint256"
					},
					{
						"astId": 16,
						"contract": "todoList.sol:TodoList",
						"label": "tasks",
						"offset": 0,
						"slot": "1",
						"type": "t_mapping(t_uint256,t_struct(Task)11_storage)"
					}
				],
				"types": {
					"t_bool": {
						"encoding": "inplace",
						"label": "bool",
						"numberOfBytes": "1"
					},
					"t_mapping(t_uint256,t_struct(Task)11_storage)": {
						"encoding": "mapping",
						"key": "t_uint256",
						"label": "mapping(uint256 => struct TodoList.Task)",
						"numberOfBytes": "32",
						"value": "t_struct(Task)11_storage"
					},
					"t_string_storage": {
						"encoding": "bytes",
						"label": "string",
						"numberOfBytes": "32"
					},
					"t_struct(Task)11_storage": {
						"encoding": "inplace",
						"label": "struct TodoList.Task",
						"members": [
							{
								"astId": 6,
								"contract": "todoList.sol:TodoList",
								"label": "id",
								"offset": 0,
								"slot": "0",
								"type": "t_uint256"
							},
							{
								"astId": 8,
								"contract": "todoList.sol:TodoList",
								"label": "description",
								"offset": 0,
								"slot": "1",
								"type": "t_string_storage"
							},
							{
								"astId": 10,
								"contract": "todoList.sol:TodoList",
								"label": "completed",
								"offset": 0,
								"slot": "2",
								"type": "t_bool"
							}
						],
						"numberOfBytes": "96"
					},
					"t_uint256": {
						"encoding": "inplace",
						"label": "uint256",
						"numberOfBytes": "32"
					}
				}
			},
			"userdoc": {
				"kind": "user",
				"methods": {},
				"version": 1
			}
		}
	}
}