{
	"CivicLink.sol": {
		"CivicLink": {
			"abi": [
				{
					"anonymous": false,
					"inputs": [
						{
							"indexed": true,
							"internalType": "address",
							"name": "from",
							"type": "address"
						},
						{
							"indexed": true,
							"internalType": "address",
							"name": "to",
							"type": "address"
						},
						{
							"indexed": false,
							"internalType": "string",
							"name": "content",
							"type": "string"
						},
						{
							"indexed": false,
							"internalType": "uint256",
							"name": "time",
							"type": "uint256"
						}
					],
					"name": "NewMessage",
					"type": "event"
				},
				{
					"anonymous": false,
					"inputs": [
						{
							"indexed": true,
							"internalType": "address",
							"name": "author",
							"type": "address"
						},
						{
							"indexed": false,
							"internalType": "string",
							"name": "message",
							"type": "string"
						},
						{
							"indexed": false,
							"internalType": "uint256",
							"name": "time",
							"type": "uint256"
						}
					],
					"name": "NewPost",
					"type": "event"
				},
				{
					"inputs": [],
					"name": "getAllPosts",
					"outputs": [
						{
							"components": [
								{
									"internalType": "address",
									"name": "author",
									"type": "address"
								},
								{
									"internalType": "string",
									"name": "message",
									"type": "string"
								},
								{
									"internalType": "uint256",
									"name": "timestamp",
									"type": "uint256"
								}
							],
							"internalType": "struct CivicLink.Post[]",
							"name": "",
							"type": "tuple[]"
						}
					],
					"stateMutability": "view",
					"type": "function"
				},
				{
					"inputs": [],
					"name": "getInbox",
					"outputs": [
						{
							"components": [
								{
									"internalType": "address",
									"name": "sender",
									"type": "address"
								},
								{
									"internalType": "string",
									"name": "content",
									"type": "string"
								},
								{
									"internalType": "uint256",
									"name": "timestamp",
									"type": "uint256"
								}
							],
							"internalType": "struct CivicLink.Message[]",
							"name": "",
							"type": "tuple[]"
						}
					],
					"stateMutability": "view",
					"type": "function"
				},
				{
					"inputs": [
						{
							"internalType": "address",
							"name": "",
							"type": "address"
						},
						{
							"internalType": "uint256",
							"name": "",
							"type": "uint256"
						}
					],
					"name": "inbox",
					"outputs": [
						{
							"internalType": "address",
							"name": "sender",
							"type": "address"
						},
						{
							"internalType": "string",
							"name": "content",
							"type": "string"
						},
						{
							"internalType": "uint256",
							"name": "timestamp",
							"type": "uint256"
						}
					],
					"stateMutability": "view",
					"type": "function"
				},
				{
					"inputs": [
						{
							"internalType": "string",
							"name": "_message",
							"type": "string"
						}
					],
					"name": "postToForum",
					"outputs": [],
					"stateMutability": "nonpayable",
					"type": "function"
				},
				{
					"inputs": [
						{
							"internalType": "uint256",
							"name": "",
							"type": "uint256"
						}
					],
					"name": "posts",
					"outputs": [
						{
							"internalType": "address",
							"name": "author",
							"type": "address"
						},
						{
							"internalType": "string",
							"name": "message",
							"type": "string"
						},
						{
							"internalType": "uint256",
							"name": "timestamp",
							"type": "uint256"
						}
					],
					"stateMutability": "view",
					"type": "function"
				},
				{
					"inputs": [
						{
							"internalType": "address",
							"name": "_to",
							"type": "address"
						},
						{
							"internalType": "string",
							"name": "_content",
							"type": "string"
						}
					],
					"name": "sendMessage",
					"outputs": [],
					"stateMutability": "nonpayable",
					"type": "function"
				}
			],
			"devdoc": {
				"kind": "dev",
				"methods": {},
				"version": 1
			},
			"evm": {
				"assembly": "    /* \"CivicLink.sol\":61:1174  contract CivicLink {... */\n  mstore(0x40, 0x80)\n  callvalue\n  dup1\n  iszero\n  tag_1\n  jumpi\n  0x00\n  dup1\n  revert\ntag_1:\n  pop\n  dataSize(sub_0)\n  dup1\n  dataOffset(sub_0)\n  0x00\n  codecopy\n  0x00\n  return\nstop\n\nsub_0: assembly {\n        /* \"CivicLink.sol\":61:1174  contract CivicLink {... */\n      mstore(0x40, 0x80)\n      callvalue\n      dup1\n      iszero\n      tag_1\n      jumpi\n      0x00\n      dup1\n      revert\n    tag_1:\n      pop\n      jumpi(tag_2, lt(calldatasize, 0x04))\n      shr(0xe0, calldataload(0x00))\n      dup1\n      0x0b1e7f83\n      eq\n      tag_3\n      jumpi\n      dup1\n      0x178cc28e\n      eq\n      tag_4\n      jumpi\n      dup1\n      0x30561100\n      eq\n      tag_5\n      jumpi\n      dup1\n      0x368c093c\n      eq\n      tag_6\n      jumpi\n      dup1\n      0x4d622e7a\n      eq\n      tag_7\n      jumpi\n      dup1\n      0xde6f24bb\n      eq\n      tag_8\n      jumpi\n    tag_2:\n      0x00\n      dup1\n      revert\n        /* \"CivicLink.sol\":296:315  Post[] public posts */\n    tag_3:\n      tag_9\n      0x04\n      dup1\n      calldatasize\n      sub\n      dup2\n      add\n      swap1\n      tag_10\n      swap2\n      swap1\n      tag_11\n      jump\t// in\n    tag_10:\n      tag_12\n      jump\t// in\n    tag_9:\n      mload(0x40)\n      tag_13\n      swap4\n      swap3\n      swap2\n      swap1\n      tag_14\n      jump\t// in\n    tag_13:\n      mload(0x40)\n      dup1\n      swap2\n      sub\n      swap1\n      return\n        /* \"CivicLink.sol\":538:730  function postToForum(string calldata _message) external {... */\n    tag_4:\n      tag_15\n      0x04\n      dup1\n      calldatasize\n      sub\n      dup2\n      add\n      swap1\n      tag_16\n      swap2\n      swap1\n      tag_17\n      jump\t// in\n    tag_16:\n      tag_18\n      jump\t// in\n    tag_15:\n      stop\n        /* \"CivicLink.sol\":738:830  function getAllPosts() external view returns (Post[] memory) {... */\n    tag_5:\n      tag_19\n      tag_20\n      jump\t// in\n    tag_19:\n      mload(0x40)\n      tag_21\n      swap2\n      swap1\n      tag_22\n      jump\t// in\n    tag_21:\n      mload(0x40)\n      dup1\n      swap2\n      sub\n      swap1\n      return\n        /* \"CivicLink.sol\":1067:1171  function getInbox() external view returns (Message[] memory) {... */\n    tag_6:\n      tag_23\n      tag_24\n      jump\t// in\n    tag_23:\n      mload(0x40)\n      tag_25\n      swap2\n      swap1\n      tag_26\n      jump\t// in\n    tag_25:\n      mload(0x40)\n      dup1\n      swap2\n      sub\n      swap1\n      return\n        /* \"CivicLink.sol\":322:364  mapping(address => Message[]) public inbox */\n    tag_7:\n      tag_27\n      0x04\n      dup1\n      calldatasize\n      sub\n      dup2\n      add\n      swap1\n      tag_28\n      swap2\n      swap1\n      tag_29\n      jump\t// in\n    tag_28:\n      tag_30\n      jump\t// in\n    tag_27:\n      mload(0x40)\n      tag_31\n      swap4\n      swap3\n      swap2\n      swap1\n      tag_14\n      jump\t// in\n    tag_31:\n      mload(0x40)\n      dup1\n      swap2\n      sub\n      swap1\n      return\n        /* \"CivicLink.sol\":838:1059  function sendMessage(address _to, string calldata _content) external {... */\n    tag_8:\n      tag_32\n      0x04\n      dup1\n      calldatasize\n      sub\n      dup2\n      add\n      swap1\n      tag_33\n      swap2\n      swap1\n      tag_34\n      jump\t// in\n    tag_33:\n      tag_35\n      jump\t// in\n    tag_32:\n      stop\n        /* \"CivicLink.sol\":296:315  Post[] public posts */\n    tag_12:\n      0x00\n      dup2\n      dup2\n      sload\n      dup2\n      lt\n      tag_36\n      jumpi\n      0x00\n      dup1\n      revert\n    tag_36:\n      swap1\n      0x00\n      mstore\n      keccak256(0x00, 0x20)\n      swap1\n      0x03\n      mul\n      add\n      0x00\n      swap2\n      pop\n      swap1\n      pop\n      dup1\n      0x00\n      add\n      0x00\n      swap1\n      sload\n      swap1\n      0x0100\n      exp\n      swap1\n      div\n      0xffffffffffffffffffffffffffffffffffffffff\n      and\n      swap1\n      dup1\n      0x01\n      add\n      dup1\n      sload\n      tag_38\n      swap1\n      tag_39\n      jump\t// in\n    tag_38:\n      dup1\n      0x1f\n      add\n      0x20\n      dup1\n      swap2\n      div\n      mul\n      0x20\n      add\n      mload(0x40)\n      swap1\n      dup2\n      add\n      0x40\n      mstore\n      dup1\n      swap3\n      swap2\n      swap1\n      dup2\n      dup2\n      mstore\n      0x20\n      add\n      dup3\n      dup1\n      sload\n      tag_40\n      swap1\n      tag_39\n      jump\t// in\n    tag_40:\n      dup1\n      iszero\n      tag_41\n      jumpi\n      dup1\n      0x1f\n      lt\n      tag_42\n      jumpi\n      0x0100\n      dup1\n      dup4\n      sload\n      div\n      mul\n      dup4\n      mstore\n      swap2\n      0x20\n      add\n      swap2\n      jump(tag_41)\n    tag_42:\n      dup3\n      add\n      swap2\n      swap1\n      0x00\n      mstore\n      keccak256(0x00, 0x20)\n      swap1\n    tag_43:\n      dup2\n      sload\n      dup2\n      mstore\n      swap1\n      0x01\n      add\n      swap1\n      0x20\n      add\n      dup1\n      dup4\n      gt\n      tag_43\n      jumpi\n      dup3\n      swap1\n      sub\n      0x1f\n      and\n      dup3\n      add\n      swap2\n    tag_41:\n      pop\n      pop\n      pop\n      pop\n      pop\n      swap1\n      dup1\n      0x02\n      add\n      sload\n      swap1\n      pop\n      dup4\n      jump\t// out\n        /* \"CivicLink.sol\":538:730  function postToForum(string calldata _message) external {... */\n    tag_18:\n        /* \"CivicLink.sol\":605:610  posts */\n      0x00\n        /* \"CivicLink.sol\":616:659  Post(msg.sender, _message, block.timestamp) */\n      mload(0x40)\n      dup1\n      0x60\n      add\n      0x40\n      mstore\n      dup1\n        /* \"CivicLink.sol\":621:631  msg.sender */\n      caller\n        /* \"CivicLink.sol\":616:659  Post(msg.sender, _message, block.timestamp) */\n      0xffffffffffffffffffffffffffffffffffffffff\n      and\n      dup2\n      mstore\n      0x20\n      add\n        /* \"CivicLink.sol\":633:641  _message */\n      dup5\n      dup5\n        /* \"CivicLink.sol\":616:659  Post(msg.sender, _message, block.timestamp) */\n      dup1\n      dup1\n      0x1f\n      add\n      0x20\n      dup1\n      swap2\n      div\n      mul\n      0x20\n      add\n      mload(0x40)\n      swap1\n      dup2\n      add\n      0x40\n      mstore\n      dup1\n      swap4\n      swap3\n      swap2\n      swap1\n      dup2\n      dup2\n      mstore\n      0x20\n      add\n      dup4\n      dup4\n      dup1\n      dup3\n      dup5\n      calldatacopy\n      0x00\n      dup2\n      dup5\n      add\n      mstore\n      not(0x1f)\n      0x1f\n      dup3\n      add\n      and\n      swap1\n      pop\n      dup1\n      dup4\n      add\n      swap3\n      pop\n      pop\n      pop\n      pop\n      pop\n      pop\n      pop\n      dup2\n      mstore\n      0x20\n      add\n        /* \"CivicLink.sol\":643:658  block.timestamp */\n      timestamp\n        /* \"CivicLink.sol\":616:659  Post(msg.sender, _message, block.timestamp) */\n      dup2\n      mstore\n      pop\n        /* \"CivicLink.sol\":605:660  posts.push(Post(msg.sender, _message, block.timestamp)) */\n      swap1\n      dup1\n      0x01\n      dup2\n      sload\n      add\n      dup1\n      dup3\n      sstore\n      dup1\n      swap2\n      pop\n      pop\n      0x01\n      swap1\n      sub\n      swap1\n      0x00\n      mstore\n      keccak256(0x00, 0x20)\n      swap1\n      0x03\n      mul\n      add\n      0x00\n      swap1\n      swap2\n      swap1\n      swap2\n      swap1\n      swap2\n      pop\n      0x00\n      dup3\n      add\n      mload\n      dup2\n      0x00\n      add\n      exp(0x0100, 0x00)\n      dup2\n      sload\n      dup2\n      0xffffffffffffffffffffffffffffffffffffffff\n      mul\n      not\n      and\n      swap1\n      dup4\n      0xffffffffffffffffffffffffffffffffffffffff\n      and\n      mul\n      or\n      swap1\n      sstore\n      pop\n      0x20\n      dup3\n      add\n      mload\n      dup2\n      0x01\n      add\n      swap1\n      dup2\n      tag_46\n      swap2\n      swap1\n      tag_47\n      jump\t// in\n    tag_46:\n      pop\n      0x40\n      dup3\n      add\n      mload\n      dup2\n      0x02\n      add\n      sstore\n      pop\n      pop\n        /* \"CivicLink.sol\":684:694  msg.sender */\n      caller\n        /* \"CivicLink.sol\":676:722  NewPost(msg.sender, _message, block.timestamp) */\n      0xffffffffffffffffffffffffffffffffffffffff\n      and\n      0x4220cd30ee23a1a4323898d66dc49f1590b9863d860cf84c674c8614e18d496b\n        /* \"CivicLink.sol\":696:704  _message */\n      dup4\n      dup4\n        /* \"CivicLink.sol\":706:721  block.timestamp */\n      timestamp\n        /* \"CivicLink.sol\":676:722  NewPost(msg.sender, _message, block.timestamp) */\n      mload(0x40)\n      tag_48\n      swap4\n      swap3\n      swap2\n      swap1\n      tag_49\n      jump\t// in\n    tag_48:\n      mload(0x40)\n      dup1\n      swap2\n      sub\n      swap1\n      log2\n        /* \"CivicLink.sol\":538:730  function postToForum(string calldata _message) external {... */\n      pop\n      pop\n      jump\t// out\n        /* \"CivicLink.sol\":738:830  function getAllPosts() external view returns (Post[] memory) {... */\n    tag_20:\n        /* \"CivicLink.sol\":784:797  Post[] memory */\n      0x60\n        /* \"CivicLink.sol\":817:822  posts */\n      0x00\n        /* \"CivicLink.sol\":810:822  return posts */\n      dup1\n      sload\n      dup1\n      0x20\n      mul\n      0x20\n      add\n      mload(0x40)\n      swap1\n      dup2\n      add\n      0x40\n      mstore\n      dup1\n      swap3\n      swap2\n      swap1\n      dup2\n      dup2\n      mstore\n      0x20\n      add\n      0x00\n      swap1\n    tag_51:\n      dup3\n      dup3\n      lt\n      iszero\n      tag_52\n      jumpi\n      dup4\n      dup3\n      swap1\n      0x00\n      mstore\n      keccak256(0x00, 0x20)\n      swap1\n      0x03\n      mul\n      add\n      mload(0x40)\n      dup1\n      0x60\n      add\n      0x40\n      mstore\n      swap1\n      dup2\n      0x00\n      dup3\n      add\n      0x00\n      swap1\n      sload\n      swap1\n      0x0100\n      exp\n      swap1\n      div\n      0xffffffffffffffffffffffffffffffffffffffff\n      and\n      0xffffffffffffffffffffffffffffffffffffffff\n      and\n      0xffffffffffffffffffffffffffffffffffffffff\n      and\n      dup2\n      mstore\n      0x20\n      add\n      0x01\n      dup3\n      add\n      dup1\n      sload\n      tag_54\n      swap1\n      tag_39\n      jump\t// in\n    tag_54:\n      dup1\n      0x1f\n      add\n      0x20\n      dup1\n      swap2\n      div\n      mul\n      0x20\n      add\n      mload(0x40)\n      swap1\n      dup2\n      add\n      0x40\n      mstore\n      dup1\n      swap3\n      swap2\n      swap1\n      dup2\n      dup2\n      mstore\n      0x20\n      add\n      dup3\n      dup1\n      sload\n      tag_55\n      swap1\n      tag_39\n      jump\t// in\n    tag_55:\n      dup1\n      iszero\n      tag_56\n      jumpi\n      dup1\n      0x1f\n      lt\n      tag_57\n      jumpi\n      0x0100\n      dup1\n      dup4\n      sload\n      div\n      mul\n      dup4\n      mstore\n      swap2\n      0x20\n      add\n      swap2\n      jump(tag_56)\n    tag_57:\n      dup3\n      add\n      swap2\n      swap1\n      0x00\n      mstore\n      keccak256(0x00, 0x20)\n      swap1\n    tag_58:\n      dup2\n      sload\n      dup2\n      mstore\n      swap1\n      0x01\n      add\n      swap1\n      0x20\n      add\n      dup1\n      dup4\n      gt\n      tag_58\n      jumpi\n      dup3\n      swap1\n      sub\n      0x1f\n      and\n      dup3\n      add\n      swap2\n    tag_56:\n      pop\n      pop\n      pop\n      pop\n      pop\n      dup2\n      mstore\n      0x20\n      add\n      0x02\n      dup3\n      add\n      sload\n      dup2\n      mstore\n      pop\n      pop\n      dup2\n      mstore\n      0x20\n      add\n      swap1\n      0x01\n      add\n      swap1\n      jump(tag_51)\n    tag_52:\n      pop\n      pop\n      pop\n      pop\n      swap1\n      pop\n        /* \"CivicLink.sol\":738:830  function getAllPosts() external view returns (Post[] memory) {... */\n      swap1\n      jump\t// out\n        /* \"CivicLink.sol\":1067:1171  function getInbox() external view returns (Message[] memory) {... */\n    tag_24:\n        /* \"CivicLink.sol\":1110:1126  Message[] memory */\n      0x60\n        /* \"CivicLink.sol\":1146:1151  inbox */\n      0x01\n        /* \"CivicLink.sol\":1146:1163  inbox[msg.sender] */\n      0x00\n        /* \"CivicLink.sol\":1152:1162  msg.sender */\n      caller\n        /* \"CivicLink.sol\":1146:1163  inbox[msg.sender] */\n      0xffffffffffffffffffffffffffffffffffffffff\n      and\n      0xffffffffffffffffffffffffffffffffffffffff\n      and\n      dup2\n      mstore\n      0x20\n      add\n      swap1\n      dup2\n      mstore\n      0x20\n      add\n      0x00\n      keccak256\n        /* \"CivicLink.sol\":1139:1163  return inbox[msg.sender] */\n      dup1\n      sload\n      dup1\n      0x20\n      mul\n      0x20\n      add\n      mload(0x40)\n      swap1\n      dup2\n      add\n      0x40\n      mstore\n      dup1\n      swap3\n      swap2\n      swap1\n      dup2\n      dup2\n      mstore\n      0x20\n      add\n      0x00\n      swap1\n    tag_60:\n      dup3\n      dup3\n      lt\n      iszero\n      tag_61\n      jumpi\n      dup4\n      dup3\n      swap1\n      0x00\n      mstore\n      keccak256(0x00, 0x20)\n      swap1\n      0x03\n      mul\n      add\n      mload(0x40)\n      dup1\n      0x60\n      add\n      0x40\n      mstore\n      swap1\n      dup2\n      0x00\n      dup3\n      add\n      0x00\n      swap1\n      sload\n      swap1\n      0x0100\n      exp\n      swap1\n      div\n      0xffffffffffffffffffffffffffffffffffffffff\n      and\n      0xffffffffffffffffffffffffffffffffffffffff\n      and\n      0xffffffffffffffffffffffffffffffffffffffff\n      and\n      dup2\n      mstore\n      0x20\n      add\n      0x01\n      dup3\n      add\n      dup1\n      sload\n      tag_63\n      swap1\n      tag_39\n      jump\t// in\n    tag_63:\n      dup1\n      0x1f\n      add\n      0x20\n      dup1\n      swap2\n      div\n      mul\n      0x20\n      add\n      mload(0x40)\n      swap1\n      dup2\n      add\n      0x40\n      mstore\n      dup1\n      swap3\n      swap2\n      swap1\n      dup2\n      dup2\n      mstore\n      0x20\n      add\n      dup3\n      dup1\n      sload\n      tag_64\n      swap1\n      tag_39\n      jump\t// in\n    tag_64:\n      dup1\n      iszero\n      tag_65\n      jumpi\n      dup1\n      0x1f\n      lt\n      tag_66\n      jumpi\n      0x0100\n      dup1\n      dup4\n      sload\n      div\n      mul\n      dup4\n      mstore\n      swap2\n      0x20\n      add\n      swap2\n      jump(tag_65)\n    tag_66:\n      dup3\n      add\n      swap2\n      swap1\n      0x00\n      mstore\n      keccak256(0x00, 0x20)\n      swap1\n    tag_67:\n      dup2\n      sload\n      dup2\n      mstore\n      swap1\n      0x01\n      add\n      swap1\n      0x20\n      add\n      dup1\n      dup4\n      gt\n      tag_67\n      jumpi\n      dup3\n      swap1\n      sub\n      0x1f\n      and\n      dup3\n      add\n      swap2\n    tag_65:\n      pop\n      pop\n      pop\n      pop\n      pop\n      dup2\n      mstore\n      0x20\n      add\n      0x02\n      dup3\n      add\n      sload\n      dup2\n      mstore\n      pop\n      pop\n      dup2\n      mstore\n      0x20\n      add\n      swap1\n      0x01\n      add\n      swap1\n      jump(tag_60)\n    tag_61:\n      pop\n      pop\n      pop\n      pop\n      swap1\n      pop\n        /* \"CivicLink.sol\":1067:1171  function getInbox() external view returns (Message[] memory) {... */\n      swap1\n      jump\t// out\n        /* \"CivicLink.sol\":322:364  mapping(address => Message[]) public inbox */\n    tag_30:\n      mstore(0x20, 0x01)\n      dup2\n      0x00\n      mstore\n      keccak256(0x00, 0x40)\n      dup2\n      dup2\n      sload\n      dup2\n      lt\n      tag_68\n      jumpi\n      0x00\n      dup1\n      revert\n    tag_68:\n      swap1\n      0x00\n      mstore\n      keccak256(0x00, 0x20)\n      swap1\n      0x03\n      mul\n      add\n      0x00\n      swap2\n      pop\n      swap2\n      pop\n      pop\n      dup1\n      0x00\n      add\n      0x00\n      swap1\n      sload\n      swap1\n      0x0100\n      exp\n      swap1\n      div\n      0xffffffffffffffffffffffffffffffffffffffff\n      and\n      swap1\n      dup1\n      0x01\n      add\n      dup1\n      sload\n      tag_70\n      swap1\n      tag_39\n      jump\t// in\n    tag_70:\n      dup1\n      0x1f\n      add\n      0x20\n      dup1\n      swap2\n      div\n      mul\n      0x20\n      add\n      mload(0x40)\n      swap1\n      dup2\n      add\n      0x40\n      mstore\n      dup1\n      swap3\n      swap2\n      swap1\n      dup2\n      dup2\n      mstore\n      0x20\n      add\n      dup3\n      dup1\n      sload\n      tag_71\n      swap1\n      tag_39\n      jump\t// in\n    tag_71:\n      dup1\n      iszero\n      tag_72\n      jumpi\n      dup1\n      0x1f\n      lt\n      tag_73\n      jumpi\n      0x0100\n      dup1\n      dup4\n      sload\n      div\n      mul\n      dup4\n      mstore\n      swap2\n      0x20\n      add\n      swap2\n      jump(tag_72)\n    tag_73:\n      dup3\n      add\n      swap2\n      swap1\n      0x00\n      mstore\n      keccak256(0x00, 0x20)\n      swap1\n    tag_74:\n      dup2\n      sload\n      dup2\n      mstore\n      swap1\n      0x01\n      add\n      swap1\n      0x20\n      add\n      dup1\n      dup4\n      gt\n      tag_74\n      jumpi\n      dup3\n      swap1\n      sub\n      0x1f\n      and\n      dup3\n      add\n      swap2\n    tag_72:\n      pop\n      pop\n      pop\n      pop\n      pop\n      swap1\n      dup1\n      0x02\n      add\n      sload\n      swap1\n      pop\n      dup4\n      jump\t// out\n        /* \"CivicLink.sol\":838:1059  function sendMessage(address _to, string calldata _content) external {... */\n    tag_35:\n        /* \"CivicLink.sol\":918:923  inbox */\n      0x01\n        /* \"CivicLink.sol\":918:928  inbox[_to] */\n      0x00\n        /* \"CivicLink.sol\":924:927  _to */\n      dup5\n        /* \"CivicLink.sol\":918:928  inbox[_to] */\n      0xffffffffffffffffffffffffffffffffffffffff\n      and\n      0xffffffffffffffffffffffffffffffffffffffff\n      and\n      dup2\n      mstore\n      0x20\n      add\n      swap1\n      dup2\n      mstore\n      0x20\n      add\n      0x00\n      keccak256\n        /* \"CivicLink.sol\":934:980  Message(msg.sender, _content, block.timestamp) */\n      mload(0x40)\n      dup1\n      0x60\n      add\n      0x40\n      mstore\n      dup1\n        /* \"CivicLink.sol\":942:952  msg.sender */\n      caller\n        /* \"CivicLink.sol\":934:980  Message(msg.sender, _content, block.timestamp) */\n      0xffffffffffffffffffffffffffffffffffffffff\n      and\n      dup2\n      mstore\n      0x20\n      add\n        /* \"CivicLink.sol\":954:962  _content */\n      dup5\n      dup5\n        /* \"CivicLink.sol\":934:980  Message(msg.sender, _content, block.timestamp) */\n      dup1\n      dup1\n      0x1f\n      add\n      0x20\n      dup1\n      swap2\n      div\n      mul\n      0x20\n      add\n      mload(0x40)\n      swap1\n      dup2\n      add\n      0x40\n      mstore\n      dup1\n      swap4\n      swap3\n      swap2\n      swap1\n      dup2\n      dup2\n      mstore\n      0x20\n      add\n      dup4\n      dup4\n      dup1\n      dup3\n      dup5\n      calldatacopy\n      0x00\n      dup2\n      dup5\n      add\n      mstore\n      not(0x1f)\n      0x1f\n      dup3\n      add\n      and\n      swap1\n      pop\n      dup1\n      dup4\n      add\n      swap3\n      pop\n      pop\n      pop\n      pop\n      pop\n      pop\n      pop\n      dup2\n      mstore\n      0x20\n      add\n        /* \"CivicLink.sol\":964:979  block.timestamp */\n      timestamp\n        /* \"CivicLink.sol\":934:980  Message(msg.sender, _content, block.timestamp) */\n      dup2\n      mstore\n      pop\n        /* \"CivicLink.sol\":918:981  inbox[_to].push(Message(msg.sender, _content, block.timestamp)) */\n      swap1\n      dup1\n      0x01\n      dup2\n      sload\n      add\n      dup1\n      dup3\n      sstore\n      dup1\n      swap2\n      pop\n      pop\n      0x01\n      swap1\n      sub\n      swap1\n      0x00\n      mstore\n      keccak256(0x00, 0x20)\n      swap1\n      0x03\n      mul\n      add\n      0x00\n      swap1\n      swap2\n      swap1\n      swap2\n      swap1\n      swap2\n      pop\n      0x00\n      dup3\n      add\n      mload\n      dup2\n      0x00\n      add\n      exp(0x0100, 0x00)\n      dup2\n      sload\n      dup2\n      0xffffffffffffffffffffffffffffffffffffffff\n      mul\n      not\n      and\n      swap1\n      dup4\n      0xffffffffffffffffffffffffffffffffffffffff\n      and\n      mul\n      or\n      swap1\n      sstore\n      pop\n      0x20\n      dup3\n      add\n      mload\n      dup2\n      0x01\n      add\n      swap1\n      dup2\n      tag_77\n      swap2\n      swap1\n      tag_47\n      jump\t// in\n    tag_77:\n      pop\n      0x40\n      dup3\n      add\n      mload\n      dup2\n      0x02\n      add\n      sstore\n      pop\n      pop\n        /* \"CivicLink.sol\":1020:1023  _to */\n      dup3\n        /* \"CivicLink.sol\":997:1051  NewMessage(msg.sender, _to, _content, block.timestamp) */\n      0xffffffffffffffffffffffffffffffffffffffff\n      and\n        /* \"CivicLink.sol\":1008:1018  msg.sender */\n      caller\n        /* \"CivicLink.sol\":997:1051  NewMessage(msg.sender, _to, _content, block.timestamp) */\n      0xffffffffffffffffffffffffffffffffffffffff\n      and\n      0x820e6d37b56b06482f38c0c5918db7d094c4b90fb974528a28d8344079064099\n        /* \"CivicLink.sol\":1025:1033  _content */\n      dup5\n      dup5\n        /* \"CivicLink.sol\":1035:1050  block.timestamp */\n      timestamp\n        /* \"CivicLink.sol\":997:1051  NewMessage(msg.sender, _to, _content, block.timestamp) */\n      mload(0x40)\n      tag_78\n      swap4\n      swap3\n      swap2\n      swap1\n      tag_49\n      jump\t// in\n    tag_78:\n      mload(0x40)\n      dup1\n      swap2\n      sub\n      swap1\n      log3\n        /* \"CivicLink.sol\":838:1059  function sendMessage(address _to, string calldata _content) external {... */\n      pop\n      pop\n      pop\n      jump\t// out\n        /* \"#utility.yul\":88:205   */\n    tag_80:\n        /* \"#utility.yul\":197:198   */\n      0x00\n        /* \"#utility.yul\":194:195   */\n      dup1\n        /* \"#utility.yul\":187:199   */\n      revert\n        /* \"#utility.yul\":211:328   */\n    tag_81:\n        /* \"#utility.yul\":320:321   */\n      0x00\n        /* \"#utility.yul\":317:318   */\n      dup1\n        /* \"#utility.yul\":310:322   */\n      revert\n        /* \"#utility.yul\":334:411   */\n    tag_82:\n        /* \"#utility.yul\":371:378   */\n      0x00\n        /* \"#utility.yul\":400:405   */\n      dup2\n        /* \"#utility.yul\":389:405   */\n      swap1\n      pop\n        /* \"#utility.yul\":334:411   */\n      swap2\n      swap1\n      pop\n      jump\t// out\n        /* \"#utility.yul\":417:539   */\n    tag_83:\n        /* \"#utility.yul\":490:514   */\n      tag_143\n        /* \"#utility.yul\":508:513   */\n      dup2\n        /* \"#utility.yul\":490:514   */\n      tag_82\n      jump\t// in\n    tag_143:\n        /* \"#utility.yul\":483:488   */\n      dup2\n        /* \"#utility.yul\":480:515   */\n      eq\n        /* \"#utility.yul\":470:533   */\n      tag_144\n      jumpi\n        /* \"#utility.yul\":529:530   */\n      0x00\n        /* \"#utility.yul\":526:527   */\n      dup1\n        /* \"#utility.yul\":519:531   */\n      revert\n        /* \"#utility.yul\":470:533   */\n    tag_144:\n        /* \"#utility.yul\":417:539   */\n      pop\n      jump\t// out\n        /* \"#utility.yul\":545:684   */\n    tag_84:\n        /* \"#utility.yul\":591:596   */\n      0x00\n        /* \"#utility.yul\":629:635   */\n      dup2\n        /* \"#utility.yul\":616:636   */\n      calldataload\n        /* \"#utility.yul\":607:636   */\n      swap1\n      pop\n        /* \"#utility.yul\":645:678   */\n      tag_146\n        /* \"#utility.yul\":672:677   */\n      dup2\n        /* \"#utility.yul\":645:678   */\n      tag_83\n      jump\t// in\n    tag_146:\n        /* \"#utility.yul\":545:684   */\n      swap3\n      swap2\n      pop\n      pop\n      jump\t// out\n        /* \"#utility.yul\":690:1019   */\n    tag_11:\n        /* \"#utility.yul\":749:755   */\n      0x00\n        /* \"#utility.yul\":798:800   */\n      0x20\n        /* \"#utility.yul\":786:795   */\n      dup3\n        /* \"#utility.yul\":777:784   */\n      dup5\n        /* \"#utility.yul\":773:796   */\n      sub\n        /* \"#utility.yul\":769:801   */\n      slt\n        /* \"#utility.yul\":766:885   */\n      iszero\n      tag_148\n      jumpi\n        /* \"#utility.yul\":804:883   */\n      tag_149\n      tag_80\n      jump\t// in\n    tag_149:\n        /* \"#utility.yul\":766:885   */\n    tag_148:\n        /* \"#utility.yul\":924:925   */\n      0x00\n        /* \"#utility.yul\":949:1002   */\n      tag_150\n        /* \"#utility.yul\":994:1001   */\n      dup5\n        /* \"#utility.yul\":985:991   */\n      dup3\n        /* \"#utility.yul\":974:983   */\n      dup6\n        /* \"#utility.yul\":970:992   */\n      add\n        /* \"#utility.yul\":949:1002   */\n      tag_84\n      jump\t// in\n    tag_150:\n        /* \"#utility.yul\":939:1002   */\n      swap2\n      pop\n        /* \"#utility.yul\":895:1012   */\n      pop\n        /* \"#utility.yul\":690:1019   */\n      swap3\n      swap2\n      pop\n      pop\n      jump\t// out\n        /* \"#utility.yul\":1025:1151   */\n    tag_85:\n        /* \"#utility.yul\":1062:1069   */\n      0x00\n        /* \"#utility.yul\":1102:1144   */\n      0xffffffffffffffffffffffffffffffffffffffff\n        /* \"#utility.yul\":1095:1100   */\n      dup3\n        /* \"#utility.yul\":1091:1145   */\n      and\n        /* \"#utility.yul\":1080:1145   */\n      swap1\n      pop\n        /* \"#utility.yul\":1025:1151   */\n      swap2\n      swap1\n      pop\n      jump\t// out\n        /* \"#utility.yul\":1157:1253   */\n    tag_86:\n        /* \"#utility.yul\":1194:1201   */\n      0x00\n        /* \"#utility.yul\":1223:1247   */\n      tag_153\n        /* \"#utility.yul\":1241:1246   */\n      dup3\n        /* \"#utility.yul\":1223:1247   */\n      tag_85\n      jump\t// in\n    tag_153:\n        /* \"#utility.yul\":1212:1247   */\n      swap1\n      pop\n        /* \"#utility.yul\":1157:1253   */\n      swap2\n      swap1\n      pop\n      jump\t// out\n        /* \"#utility.yul\":1259:1377   */\n    tag_87:\n        /* \"#utility.yul\":1346:1370   */\n      tag_155\n        /* \"#utility.yul\":1364:1369   */\n      dup2\n        /* \"#utility.yul\":1346:1370   */\n      tag_86\n      jump\t// in\n    tag_155:\n        /* \"#utility.yul\":1341:1344   */\n      dup3\n        /* \"#utility.yul\":1334:1371   */\n      mstore\n        /* \"#utility.yul\":1259:1377   */\n      pop\n      pop\n      jump\t// out\n        /* \"#utility.yul\":1383:1482   */\n    tag_88:\n        /* \"#utility.yul\":1435:1441   */\n      0x00\n        /* \"#utility.yul\":1469:1474   */\n      dup2\n        /* \"#utility.yul\":1463:1475   */\n      mload\n        /* \"#utility.yul\":1453:1475   */\n      swap1\n      pop\n        /* \"#utility.yul\":1383:1482   */\n      swap2\n      swap1\n      pop\n      jump\t// out\n        /* \"#utility.yul\":1488:1657   */\n    tag_89:\n        /* \"#utility.yul\":1572:1583   */\n      0x00\n        /* \"#utility.yul\":1606:1612   */\n      dup3\n        /* \"#utility.yul\":1601:1604   */\n      dup3\n        /* \"#utility.yul\":1594:1613   */\n      mstore\n        /* \"#utility.yul\":1646:1650   */\n      0x20\n        /* \"#utility.yul\":1641:1644   */\n      dup3\n        /* \"#utility.yul\":1637:1651   */\n      add\n        /* \"#utility.yul\":1622:1651   */\n      swap1\n      pop\n        /* \"#utility.yul\":1488:1657   */\n      swap3\n      swap2\n      pop\n      pop\n      jump\t// out\n        /* \"#utility.yul\":1663:1802   */\n    tag_90:\n        /* \"#utility.yul\":1752:1758   */\n      dup3\n        /* \"#utility.yul\":1747:1750   */\n      dup2\n        /* \"#utility.yul\":1742:1745   */\n      dup4\n        /* \"#utility.yul\":1736:1759   */\n      mcopy\n        /* \"#utility.yul\":1793:1794   */\n      0x00\n        /* \"#utility.yul\":1784:1790   */\n      dup4\n        /* \"#utility.yul\":1779:1782   */\n      dup4\n        /* \"#utility.yul\":1775:1791   */\n      add\n        /* \"#utility.yul\":1768:1795   */\n      mstore\n        /* \"#utility.yul\":1663:1802   */\n      pop\n      pop\n      pop\n      jump\t// out\n        /* \"#utility.yul\":1808:1910   */\n    tag_91:\n        /* \"#utility.yul\":1849:1855   */\n      0x00\n        /* \"#utility.yul\":1900:1902   */\n      0x1f\n        /* \"#utility.yul\":1896:1903   */\n      not\n        /* \"#utility.yul\":1891:1893   */\n      0x1f\n        /* \"#utility.yul\":1884:1889   */\n      dup4\n        /* \"#utility.yul\":1880:1894   */\n      add\n        /* \"#utility.yul\":1876:1904   */\n      and\n        /* \"#utility.yul\":1866:1904   */\n      swap1\n      pop\n        /* \"#utility.yul\":1808:1910   */\n      swap2\n      swap1\n      pop\n      jump\t// out\n        /* \"#utility.yul\":1916:2293   */\n    tag_92:\n        /* \"#utility.yul\":2004:2007   */\n      0x00\n        /* \"#utility.yul\":2032:2071   */\n      tag_161\n        /* \"#utility.yul\":2065:2070   */\n      dup3\n        /* \"#utility.yul\":2032:2071   */\n      tag_88\n      jump\t// in\n    tag_161:\n        /* \"#utility.yul\":2087:2158   */\n      tag_162\n        /* \"#utility.yul\":2151:2157   */\n      dup2\n        /* \"#utility.yul\":2146:2149   */\n      dup6\n        /* \"#utility.yul\":2087:2158   */\n      tag_89\n      jump\t// in\n    tag_162:\n        /* \"#utility.yul\":2080:2158   */\n      swap4\n      pop\n        /* \"#utility.yul\":2167:2232   */\n      tag_163\n        /* \"#utility.yul\":2225:2231   */\n      dup2\n        /* \"#utility.yul\":2220:2223   */\n      dup6\n        /* \"#utility.yul\":2213:2217   */\n      0x20\n        /* \"#utility.yul\":2206:2211   */\n      dup7\n        /* \"#utility.yul\":2202:2218   */\n      add\n        /* \"#utility.yul\":2167:2232   */\n      tag_90\n      jump\t// in\n    tag_163:\n        /* \"#utility.yul\":2257:2286   */\n      tag_164\n        /* \"#utility.yul\":2279:2285   */\n      dup2\n        /* \"#utility.yul\":2257:2286   */\n      tag_91\n      jump\t// in\n    tag_164:\n        /* \"#utility.yul\":2252:2255   */\n      dup5\n        /* \"#utility.yul\":2248:2287   */\n      add\n        /* \"#utility.yul\":2241:2287   */\n      swap2\n      pop\n        /* \"#utility.yul\":2008:2293   */\n      pop\n        /* \"#utility.yul\":1916:2293   */\n      swap3\n      swap2\n      pop\n      pop\n      jump\t// out\n        /* \"#utility.yul\":2299:2417   */\n    tag_93:\n        /* \"#utility.yul\":2386:2410   */\n      tag_166\n        /* \"#utility.yul\":2404:2409   */\n      dup2\n        /* \"#utility.yul\":2386:2410   */\n      tag_82\n      jump\t// in\n    tag_166:\n        /* \"#utility.yul\":2381:2384   */\n      dup3\n        /* \"#utility.yul\":2374:2411   */\n      mstore\n        /* \"#utility.yul\":2299:2417   */\n      pop\n      pop\n      jump\t// out\n        /* \"#utility.yul\":2423:2956   */\n    tag_14:\n        /* \"#utility.yul\":2592:2596   */\n      0x00\n        /* \"#utility.yul\":2630:2632   */\n      0x60\n        /* \"#utility.yul\":2619:2628   */\n      dup3\n        /* \"#utility.yul\":2615:2633   */\n      add\n        /* \"#utility.yul\":2607:2633   */\n      swap1\n      pop\n        /* \"#utility.yul\":2643:2714   */\n      tag_168\n        /* \"#utility.yul\":2711:2712   */\n      0x00\n        /* \"#utility.yul\":2700:2709   */\n      dup4\n        /* \"#utility.yul\":2696:2713   */\n      add\n        /* \"#utility.yul\":2687:2693   */\n      dup7\n        /* \"#utility.yul\":2643:2714   */\n      tag_87\n      jump\t// in\n    tag_168:\n        /* \"#utility.yul\":2761:2770   */\n      dup2\n        /* \"#utility.yul\":2755:2759   */\n      dup2\n        /* \"#utility.yul\":2751:2771   */\n      sub\n        /* \"#utility.yul\":2746:2748   */\n      0x20\n        /* \"#utility.yul\":2735:2744   */\n      dup4\n        /* \"#utility.yul\":2731:2749   */\n      add\n        /* \"#utility.yul\":2724:2772   */\n      mstore\n        /* \"#utility.yul\":2789:2867   */\n      tag_169\n        /* \"#utility.yul\":2862:2866   */\n      dup2\n        /* \"#utility.yul\":2853:2859   */\n      dup6\n        /* \"#utility.yul\":2789:2867   */\n      tag_92\n      jump\t// in\n    tag_169:\n        /* \"#utility.yul\":2781:2867   */\n      swap1\n      pop\n        /* \"#utility.yul\":2877:2949   */\n      tag_170\n        /* \"#utility.yul\":2945:2947   */\n      0x40\n        /* \"#utility.yul\":2934:2943   */\n      dup4\n        /* \"#utility.yul\":2930:2948   */\n      add\n        /* \"#utility.yul\":2921:2927   */\n      dup5\n        /* \"#utility.yul\":2877:2949   */\n      tag_93\n      jump\t// in\n    tag_170:\n        /* \"#utility.yul\":2423:2956   */\n      swap5\n      swap4\n      pop\n      pop\n      pop\n      pop\n      jump\t// out\n        /* \"#utility.yul\":2962:3079   */\n    tag_94:\n        /* \"#utility.yul\":3071:3072   */\n      0x00\n        /* \"#utility.yul\":3068:3069   */\n      dup1\n        /* \"#utility.yul\":3061:3073   */\n      revert\n        /* \"#utility.yul\":3085:3202   */\n    tag_95:\n        /* \"#utility.yul\":3194:3195   */\n      0x00\n        /* \"#utility.yul\":3191:3192   */\n      dup1\n        /* \"#utility.yul\":3184:3196   */\n      revert\n        /* \"#utility.yul\":3208:3325   */\n    tag_96:\n        /* \"#utility.yul\":3317:3318   */\n      0x00\n        /* \"#utility.yul\":3314:3315   */\n      dup1\n        /* \"#utility.yul\":3307:3319   */\n      revert\n        /* \"#utility.yul\":3345:3898   */\n    tag_97:\n        /* \"#utility.yul\":3403:3411   */\n      0x00\n        /* \"#utility.yul\":3413:3419   */\n      dup1\n        /* \"#utility.yul\":3463:3466   */\n      dup4\n        /* \"#utility.yul\":3456:3460   */\n      0x1f\n        /* \"#utility.yul\":3448:3454   */\n      dup5\n        /* \"#utility.yul\":3444:3461   */\n      add\n        /* \"#utility.yul\":3440:3467   */\n      slt\n        /* \"#utility.yul\":3430:3552   */\n      tag_175\n      jumpi\n        /* \"#utility.yul\":3471:3550   */\n      tag_176\n      tag_94\n      jump\t// in\n    tag_176:\n        /* \"#utility.yul\":3430:3552   */\n    tag_175:\n        /* \"#utility.yul\":3584:3590   */\n      dup3\n        /* \"#utility.yul\":3571:3591   */\n      calldataload\n        /* \"#utility.yul\":3561:3591   */\n      swap1\n      pop\n        /* \"#utility.yul\":3614:3632   */\n      0xffffffffffffffff\n        /* \"#utility.yul\":3606:3612   */\n      dup2\n        /* \"#utility.yul\":3603:3633   */\n      gt\n        /* \"#utility.yul\":3600:3717   */\n      iszero\n      tag_177\n      jumpi\n        /* \"#utility.yul\":3636:3715   */\n      tag_178\n      tag_95\n      jump\t// in\n    tag_178:\n        /* \"#utility.yul\":3600:3717   */\n    tag_177:\n        /* \"#utility.yul\":3750:3754   */\n      0x20\n        /* \"#utility.yul\":3742:3748   */\n      dup4\n        /* \"#utility.yul\":3738:3755   */\n      add\n        /* \"#utility.yul\":3726:3755   */\n      swap2\n      pop\n        /* \"#utility.yul\":3804:3807   */\n      dup4\n        /* \"#utility.yul\":3796:3800   */\n      0x01\n        /* \"#utility.yul\":3788:3794   */\n      dup3\n        /* \"#utility.yul\":3784:3801   */\n      mul\n        /* \"#utility.yul\":3774:3782   */\n      dup4\n        /* \"#utility.yul\":3770:3802   */\n      add\n        /* \"#utility.yul\":3767:3808   */\n      gt\n        /* \"#utility.yul\":3764:3892   */\n      iszero\n      tag_179\n      jumpi\n        /* \"#utility.yul\":3811:3890   */\n      tag_180\n      tag_96\n      jump\t// in\n    tag_180:\n        /* \"#utility.yul\":3764:3892   */\n    tag_179:\n        /* \"#utility.yul\":3345:3898   */\n      swap3\n      pop\n      swap3\n      swap1\n      pop\n      jump\t// out\n        /* \"#utility.yul\":3904:4433   */\n    tag_17:\n        /* \"#utility.yul\":3975:3981   */\n      0x00\n        /* \"#utility.yul\":3983:3989   */\n      dup1\n        /* \"#utility.yul\":4032:4034   */\n      0x20\n        /* \"#utility.yul\":4020:4029   */\n      dup4\n        /* \"#utility.yul\":4011:4018   */\n      dup6\n        /* \"#utility.yul\":4007:4030   */\n      sub\n        /* \"#utility.yul\":4003:4035   */\n      slt\n        /* \"#utility.yul\":4000:4119   */\n      iszero\n      tag_182\n      jumpi\n        /* \"#utility.yul\":4038:4117   */\n      tag_183\n      tag_80\n      jump\t// in\n    tag_183:\n        /* \"#utility.yul\":4000:4119   */\n    tag_182:\n        /* \"#utility.yul\":4186:4187   */\n      0x00\n        /* \"#utility.yul\":4175:4184   */\n      dup4\n        /* \"#utility.yul\":4171:4188   */\n      add\n        /* \"#utility.yul\":4158:4189   */\n      calldataload\n        /* \"#utility.yul\":4216:4234   */\n      0xffffffffffffffff\n        /* \"#utility.yul\":4208:4214   */\n      dup2\n        /* \"#utility.yul\":4205:4235   */\n      gt\n        /* \"#utility.yul\":4202:4319   */\n      iszero\n      tag_184\n      jumpi\n        /* \"#utility.yul\":4238:4317   */\n      tag_185\n      tag_81\n      jump\t// in\n    tag_185:\n        /* \"#utility.yul\":4202:4319   */\n    tag_184:\n        /* \"#utility.yul\":4351:4416   */\n      tag_186\n        /* \"#utility.yul\":4408:4415   */\n      dup6\n        /* \"#utility.yul\":4399:4405   */\n      dup3\n        /* \"#utility.yul\":4388:4397   */\n      dup7\n        /* \"#utility.yul\":4384:4406   */\n      add\n        /* \"#utility.yul\":4351:4416   */\n      tag_97\n      jump\t// in\n    tag_186:\n        /* \"#utility.yul\":4333:4416   */\n      swap3\n      pop\n      swap3\n      pop\n        /* \"#utility.yul\":4129:4426   */\n      pop\n        /* \"#utility.yul\":3904:4433   */\n      swap3\n      pop\n      swap3\n      swap1\n      pop\n      jump\t// out\n        /* \"#utility.yul\":4439:4572   */\n    tag_98:\n        /* \"#utility.yul\":4525:4531   */\n      0x00\n        /* \"#utility.yul\":4559:4564   */\n      dup2\n        /* \"#utility.yul\":4553:4565   */\n      mload\n        /* \"#utility.yul\":4543:4565   */\n      swap1\n      pop\n        /* \"#utility.yul\":4439:4572   */\n      swap2\n      swap1\n      pop\n      jump\t// out\n        /* \"#utility.yul\":4578:4781   */\n    tag_99:\n        /* \"#utility.yul\":4696:4707   */\n      0x00\n        /* \"#utility.yul\":4730:4736   */\n      dup3\n        /* \"#utility.yul\":4725:4728   */\n      dup3\n        /* \"#utility.yul\":4718:4737   */\n      mstore\n        /* \"#utility.yul\":4770:4774   */\n      0x20\n        /* \"#utility.yul\":4765:4768   */\n      dup3\n        /* \"#utility.yul\":4761:4775   */\n      add\n        /* \"#utility.yul\":4746:4775   */\n      swap1\n      pop\n        /* \"#utility.yul\":4578:4781   */\n      swap3\n      swap2\n      pop\n      pop\n      jump\t// out\n        /* \"#utility.yul\":4787:4938   */\n    tag_100:\n        /* \"#utility.yul\":4873:4877   */\n      0x00\n        /* \"#utility.yul\":4896:4899   */\n      dup2\n        /* \"#utility.yul\":4888:4899   */\n      swap1\n      pop\n        /* \"#utility.yul\":4926:4930   */\n      0x20\n        /* \"#utility.yul\":4921:4924   */\n      dup3\n        /* \"#utility.yul\":4917:4931   */\n      add\n        /* \"#utility.yul\":4909:4931   */\n      swap1\n      pop\n        /* \"#utility.yul\":4787:4938   */\n      swap2\n      swap1\n      pop\n      jump\t// out\n        /* \"#utility.yul\":4944:5052   */\n    tag_101:\n        /* \"#utility.yul\":5021:5045   */\n      tag_191\n        /* \"#utility.yul\":5039:5044   */\n      dup2\n        /* \"#utility.yul\":5021:5045   */\n      tag_86\n      jump\t// in\n    tag_191:\n        /* \"#utility.yul\":5016:5019   */\n      dup3\n        /* \"#utility.yul\":5009:5046   */\n      mstore\n        /* \"#utility.yul\":4944:5052   */\n      pop\n      pop\n      jump\t// out\n        /* \"#utility.yul\":5058:5217   */\n    tag_102:\n        /* \"#utility.yul\":5132:5143   */\n      0x00\n        /* \"#utility.yul\":5166:5172   */\n      dup3\n        /* \"#utility.yul\":5161:5164   */\n      dup3\n        /* \"#utility.yul\":5154:5173   */\n      mstore\n        /* \"#utility.yul\":5206:5210   */\n      0x20\n        /* \"#utility.yul\":5201:5204   */\n      dup3\n        /* \"#utility.yul\":5197:5211   */\n      add\n        /* \"#utility.yul\":5182:5211   */\n      swap1\n      pop\n        /* \"#utility.yul\":5058:5217   */\n      swap3\n      swap2\n      pop\n      pop\n      jump\t// out\n        /* \"#utility.yul\":5223:5580   */\n    tag_103:\n        /* \"#utility.yul\":5301:5304   */\n      0x00\n        /* \"#utility.yul\":5329:5368   */\n      tag_194\n        /* \"#utility.yul\":5362:5367   */\n      dup3\n        /* \"#utility.yul\":5329:5368   */\n      tag_88\n      jump\t// in\n    tag_194:\n        /* \"#utility.yul\":5384:5445   */\n      tag_195\n        /* \"#utility.yul\":5438:5444   */\n      dup2\n        /* \"#utility.yul\":5433:5436   */\n      dup6\n        /* \"#utility.yul\":5384:5445   */\n      tag_102\n      jump\t// in\n    tag_195:\n        /* \"#utility.yul\":5377:5445   */\n      swap4\n      pop\n        /* \"#utility.yul\":5454:5519   */\n      tag_196\n        /* \"#utility.yul\":5512:5518   */\n      dup2\n        /* \"#utility.yul\":5507:5510   */\n      dup6\n        /* \"#utility.yul\":5500:5504   */\n      0x20\n        /* \"#utility.yul\":5493:5498   */\n      dup7\n        /* \"#utility.yul\":5489:5505   */\n      add\n        /* \"#utility.yul\":5454:5519   */\n      tag_90\n      jump\t// in\n    tag_196:\n        /* \"#utility.yul\":5544:5573   */\n      tag_197\n        /* \"#utility.yul\":5566:5572   */\n      dup2\n        /* \"#utility.yul\":5544:5573   */\n      tag_91\n      jump\t// in\n    tag_197:\n        /* \"#utility.yul\":5539:5542   */\n      dup5\n        /* \"#utility.yul\":5535:5574   */\n      add\n        /* \"#utility.yul\":5528:5574   */\n      swap2\n      pop\n        /* \"#utility.yul\":5305:5580   */\n      pop\n        /* \"#utility.yul\":5223:5580   */\n      swap3\n      swap2\n      pop\n      pop\n      jump\t// out\n        /* \"#utility.yul\":5586:5694   */\n    tag_104:\n        /* \"#utility.yul\":5663:5687   */\n      tag_199\n        /* \"#utility.yul\":5681:5686   */\n      dup2\n        /* \"#utility.yul\":5663:5687   */\n      tag_82\n      jump\t// in\n    tag_199:\n        /* \"#utility.yul\":5658:5661   */\n      dup3\n        /* \"#utility.yul\":5651:5688   */\n      mstore\n        /* \"#utility.yul\":5586:5694   */\n      pop\n      pop\n      jump\t// out\n        /* \"#utility.yul\":5754:6522   */\n    tag_105:\n        /* \"#utility.yul\":5851:5854   */\n      0x00\n        /* \"#utility.yul\":5887:5891   */\n      0x60\n        /* \"#utility.yul\":5882:5885   */\n      dup4\n        /* \"#utility.yul\":5878:5892   */\n      add\n        /* \"#utility.yul\":5976:5980   */\n      0x00\n        /* \"#utility.yul\":5969:5974   */\n      dup4\n        /* \"#utility.yul\":5965:5981   */\n      add\n        /* \"#utility.yul\":5959:5982   */\n      mload\n        /* \"#utility.yul\":5995:6058   */\n      tag_201\n        /* \"#utility.yul\":6052:6056   */\n      0x00\n        /* \"#utility.yul\":6047:6050   */\n      dup7\n        /* \"#utility.yul\":6043:6057   */\n      add\n        /* \"#utility.yul\":6029:6041   */\n      dup3\n        /* \"#utility.yul\":5995:6058   */\n      tag_101\n      jump\t// in\n    tag_201:\n        /* \"#utility.yul\":5902:6068   */\n      pop\n        /* \"#utility.yul\":6153:6157   */\n      0x20\n        /* \"#utility.yul\":6146:6151   */\n      dup4\n        /* \"#utility.yul\":6142:6158   */\n      add\n        /* \"#utility.yul\":6136:6159   */\n      mload\n        /* \"#utility.yul\":6206:6209   */\n      dup5\n        /* \"#utility.yul\":6200:6204   */\n      dup3\n        /* \"#utility.yul\":6196:6210   */\n      sub\n        /* \"#utility.yul\":6189:6193   */\n      0x20\n        /* \"#utility.yul\":6184:6187   */\n      dup7\n        /* \"#utility.yul\":6180:6194   */\n      add\n        /* \"#utility.yul\":6173:6211   */\n      mstore\n        /* \"#utility.yul\":6232:6305   */\n      tag_202\n        /* \"#utility.yul\":6300:6304   */\n      dup3\n        /* \"#utility.yul\":6286:6298   */\n      dup3\n        /* \"#utility.yul\":6232:6305   */\n      tag_103\n      jump\t// in\n    tag_202:\n        /* \"#utility.yul\":6224:6305   */\n      swap2\n      pop\n        /* \"#utility.yul\":6078:6316   */\n      pop\n        /* \"#utility.yul\":6403:6407   */\n      0x40\n        /* \"#utility.yul\":6396:6401   */\n      dup4\n        /* \"#utility.yul\":6392:6408   */\n      add\n        /* \"#utility.yul\":6386:6409   */\n      mload\n        /* \"#utility.yul\":6422:6485   */\n      tag_203\n        /* \"#utility.yul\":6479:6483   */\n      0x40\n        /* \"#utility.yul\":6474:6477   */\n      dup7\n        /* \"#utility.yul\":6470:6484   */\n      add\n        /* \"#utility.yul\":6456:6468   */\n      dup3\n        /* \"#utility.yul\":6422:6485   */\n      tag_104\n      jump\t// in\n    tag_203:\n        /* \"#utility.yul\":6326:6495   */\n      pop\n        /* \"#utility.yul\":6512:6516   */\n      dup1\n        /* \"#utility.yul\":6505:6516   */\n      swap2\n      pop\n        /* \"#utility.yul\":5856:6522   */\n      pop\n        /* \"#utility.yul\":5754:6522   */\n      swap3\n      swap2\n      pop\n      pop\n      jump\t// out\n        /* \"#utility.yul\":6528:6760   */\n    tag_106:\n        /* \"#utility.yul\":6635:6645   */\n      0x00\n        /* \"#utility.yul\":6670:6754   */\n      tag_205\n        /* \"#utility.yul\":6750:6753   */\n      dup4\n        /* \"#utility.yul\":6742:6748   */\n      dup4\n        /* \"#utility.yul\":6670:6754   */\n      tag_105\n      jump\t// in\n    tag_205:\n        /* \"#utility.yul\":6656:6754   */\n      swap1\n      pop\n        /* \"#utility.yul\":6528:6760   */\n      swap3\n      swap2\n      pop\n      pop\n      jump\t// out\n        /* \"#utility.yul\":6766:6898   */\n    tag_107:\n        /* \"#utility.yul\":6855:6859   */\n      0x00\n        /* \"#utility.yul\":6887:6891   */\n      0x20\n        /* \"#utility.yul\":6882:6885   */\n      dup3\n        /* \"#utility.yul\":6878:6892   */\n      add\n        /* \"#utility.yul\":6870:6892   */\n      swap1\n      pop\n        /* \"#utility.yul\":6766:6898   */\n      swap2\n      swap1\n      pop\n      jump\t// out\n        /* \"#utility.yul\":6962:8025   */\n    tag_108:\n        /* \"#utility.yul\":7119:7122   */\n      0x00\n        /* \"#utility.yul\":7148:7221   */\n      tag_208\n        /* \"#utility.yul\":7215:7220   */\n      dup3\n        /* \"#utility.yul\":7148:7221   */\n      tag_98\n      jump\t// in\n    tag_208:\n        /* \"#utility.yul\":7237:7342   */\n      tag_209\n        /* \"#utility.yul\":7335:7341   */\n      dup2\n        /* \"#utility.yul\":7330:7333   */\n      dup6\n        /* \"#utility.yul\":7237:7342   */\n      tag_99\n      jump\t// in\n    tag_209:\n        /* \"#utility.yul\":7230:7342   */\n      swap4\n      pop\n        /* \"#utility.yul\":7368:7371   */\n      dup4\n        /* \"#utility.yul\":7413:7417   */\n      0x20\n        /* \"#utility.yul\":7405:7411   */\n      dup3\n        /* \"#utility.yul\":7401:7418   */\n      mul\n        /* \"#utility.yul\":7396:7399   */\n      dup6\n        /* \"#utility.yul\":7392:7419   */\n      add\n        /* \"#utility.yul\":7443:7518   */\n      tag_210\n        /* \"#utility.yul\":7512:7517   */\n      dup6\n        /* \"#utility.yul\":7443:7518   */\n      tag_100\n      jump\t// in\n    tag_210:\n        /* \"#utility.yul\":7541:7548   */\n      dup1\n        /* \"#utility.yul\":7572:7573   */\n      0x00\n        /* \"#utility.yul\":7557:7980   */\n    tag_211:\n        /* \"#utility.yul\":7582:7588   */\n      dup6\n        /* \"#utility.yul\":7579:7580   */\n      dup2\n        /* \"#utility.yul\":7576:7589   */\n      lt\n        /* \"#utility.yul\":7557:7980   */\n      iszero\n      tag_213\n      jumpi\n        /* \"#utility.yul\":7653:7662   */\n      dup5\n        /* \"#utility.yul\":7647:7651   */\n      dup5\n        /* \"#utility.yul\":7643:7663   */\n      sub\n        /* \"#utility.yul\":7638:7641   */\n      dup10\n        /* \"#utility.yul\":7631:7664   */\n      mstore\n        /* \"#utility.yul\":7704:7710   */\n      dup2\n        /* \"#utility.yul\":7698:7711   */\n      mload\n        /* \"#utility.yul\":7732:7834   */\n      tag_214\n        /* \"#utility.yul\":7829:7833   */\n      dup6\n        /* \"#utility.yul\":7814:7827   */\n      dup3\n        /* \"#utility.yul\":7732:7834   */\n      tag_106\n      jump\t// in\n    tag_214:\n        /* \"#utility.yul\":7724:7834   */\n      swap5\n      pop\n        /* \"#utility.yul\":7857:7936   */\n      tag_215\n        /* \"#utility.yul\":7929:7935   */\n      dup4\n        /* \"#utility.yul\":7857:7936   */\n      tag_107\n      jump\t// in\n    tag_215:\n        /* \"#utility.yul\":7847:7936   */\n      swap3\n      pop\n        /* \"#utility.yul\":7965:7969   */\n      0x20\n        /* \"#utility.yul\":7960:7963   */\n      dup11\n        /* \"#utility.yul\":7956:7970   */\n      add\n        /* \"#utility.yul\":7949:7970   */\n      swap10\n      pop\n        /* \"#utility.yul\":7617:7980   */\n      pop\n        /* \"#utility.yul\":7604:7605   */\n      0x01\n        /* \"#utility.yul\":7601:7602   */\n      dup2\n        /* \"#utility.yul\":7597:7606   */\n      add\n        /* \"#utility.yul\":7592:7606   */\n      swap1\n      pop\n        /* \"#utility.yul\":7557:7980   */\n      jump(tag_211)\n    tag_213:\n        /* \"#utility.yul\":7561:7575   */\n      pop\n        /* \"#utility.yul\":7996:8000   */\n      dup3\n        /* \"#utility.yul\":7989:8000   */\n      swap8\n      pop\n        /* \"#utility.yul\":8016:8019   */\n      dup8\n        /* \"#utility.yul\":8009:8019   */\n      swap6\n      pop\n        /* \"#utility.yul\":7124:8025   */\n      pop\n      pop\n      pop\n      pop\n      pop\n        /* \"#utility.yul\":6962:8025   */\n      swap3\n      swap2\n      pop\n      pop\n      jump\t// out\n        /* \"#utility.yul\":8031:8480   */\n    tag_22:\n        /* \"#utility.yul\":8212:8216   */\n      0x00\n        /* \"#utility.yul\":8250:8252   */\n      0x20\n        /* \"#utility.yul\":8239:8248   */\n      dup3\n        /* \"#utility.yul\":8235:8253   */\n      add\n        /* \"#utility.yul\":8227:8253   */\n      swap1\n      pop\n        /* \"#utility.yul\":8299:8308   */\n      dup2\n        /* \"#utility.yul\":8293:8297   */\n      dup2\n        /* \"#utility.yul\":8289:8309   */\n      sub\n        /* \"#utility.yul\":8285:8286   */\n      0x00\n        /* \"#utility.yul\":8274:8283   */\n      dup4\n        /* \"#utility.yul\":8270:8287   */\n      add\n        /* \"#utility.yul\":8263:8310   */\n      mstore\n        /* \"#utility.yul\":8327:8473   */\n      tag_217\n        /* \"#utility.yul\":8468:8472   */\n      dup2\n        /* \"#utility.yul\":8459:8465   */\n      dup5\n        /* \"#utility.yul\":8327:8473   */\n      tag_108\n      jump\t// in\n    tag_217:\n        /* \"#utility.yul\":8319:8473   */\n      swap1\n      pop\n        /* \"#utility.yul\":8031:8480   */\n      swap3\n      swap2\n      pop\n      pop\n      jump\t// out\n        /* \"#utility.yul\":8486:8623   */\n    tag_109:\n        /* \"#utility.yul\":8576:8582   */\n      0x00\n        /* \"#utility.yul\":8610:8615   */\n      dup2\n        /* \"#utility.yul\":8604:8616   */\n      mload\n        /* \"#utility.yul\":8594:8616   */\n      swap1\n      pop\n        /* \"#utility.yul\":8486:8623   */\n      swap2\n      swap1\n      pop\n      jump\t// out\n        /* \"#utility.yul\":8629:8836   */\n    tag_110:\n        /* \"#utility.yul\":8751:8762   */\n      0x00\n        /* \"#utility.yul\":8785:8791   */\n      dup3\n        /* \"#utility.yul\":8780:8783   */\n      dup3\n        /* \"#utility.yul\":8773:8792   */\n      mstore\n        /* \"#utility.yul\":8825:8829   */\n      0x20\n        /* \"#utility.yul\":8820:8823   */\n      dup3\n        /* \"#utility.yul\":8816:8830   */\n      add\n        /* \"#utility.yul\":8801:8830   */\n      swap1\n      pop\n        /* \"#utility.yul\":8629:8836   */\n      swap3\n      swap2\n      pop\n      pop\n      jump\t// out\n        /* \"#utility.yul\":8842:8997   */\n    tag_111:\n        /* \"#utility.yul\":8932:8936   */\n      0x00\n        /* \"#utility.yul\":8955:8958   */\n      dup2\n        /* \"#utility.yul\":8947:8958   */\n      swap1\n      pop\n        /* \"#utility.yul\":8985:8989   */\n      0x20\n        /* \"#utility.yul\":8980:8983   */\n      dup3\n        /* \"#utility.yul\":8976:8990   */\n      add\n        /* \"#utility.yul\":8968:8990   */\n      swap1\n      pop\n        /* \"#utility.yul\":8842:8997   */\n      swap2\n      swap1\n      pop\n      jump\t// out\n        /* \"#utility.yul\":9063:9839   */\n    tag_112:\n        /* \"#utility.yul\":9168:9171   */\n      0x00\n        /* \"#utility.yul\":9204:9208   */\n      0x60\n        /* \"#utility.yul\":9199:9202   */\n      dup4\n        /* \"#utility.yul\":9195:9209   */\n      add\n        /* \"#utility.yul\":9293:9297   */\n      0x00\n        /* \"#utility.yul\":9286:9291   */\n      dup4\n        /* \"#utility.yul\":9282:9298   */\n      add\n        /* \"#utility.yul\":9276:9299   */\n      mload\n        /* \"#utility.yul\":9312:9375   */\n      tag_222\n        /* \"#utility.yul\":9369:9373   */\n      0x00\n        /* \"#utility.yul\":9364:9367   */\n      dup7\n        /* \"#utility.yul\":9360:9374   */\n      add\n        /* \"#utility.yul\":9346:9358   */\n      dup3\n        /* \"#utility.yul\":9312:9375   */\n      tag_101\n      jump\t// in\n    tag_222:\n        /* \"#utility.yul\":9219:9385   */\n      pop\n        /* \"#utility.yul\":9470:9474   */\n      0x20\n        /* \"#utility.yul\":9463:9468   */\n      dup4\n        /* \"#utility.yul\":9459:9475   */\n      add\n        /* \"#utility.yul\":9453:9476   */\n      mload\n        /* \"#utility.yul\":9523:9526   */\n      dup5\n        /* \"#utility.yul\":9517:9521   */\n      dup3\n        /* \"#utility.yul\":9513:9527   */\n      sub\n        /* \"#utility.yul\":9506:9510   */\n      0x20\n        /* \"#utility.yul\":9501:9504   */\n      dup7\n        /* \"#utility.yul\":9497:9511   */\n      add\n        /* \"#utility.yul\":9490:9528   */\n      mstore\n        /* \"#utility.yul\":9549:9622   */\n      tag_223\n        /* \"#utility.yul\":9617:9621   */\n      dup3\n        /* \"#utility.yul\":9603:9615   */\n      dup3\n        /* \"#utility.yul\":9549:9622   */\n      tag_103\n      jump\t// in\n    tag_223:\n        /* \"#utility.yul\":9541:9622   */\n      swap2\n      pop\n        /* \"#utility.yul\":9395:9633   */\n      pop\n        /* \"#utility.yul\":9720:9724   */\n      0x40\n        /* \"#utility.yul\":9713:9718   */\n      dup4\n        /* \"#utility.yul\":9709:9725   */\n      add\n        /* \"#utility.yul\":9703:9726   */\n      mload\n        /* \"#utility.yul\":9739:9802   */\n      tag_224\n        /* \"#utility.yul\":9796:9800   */\n      0x40\n        /* \"#utility.yul\":9791:9794   */\n      dup7\n        /* \"#utility.yul\":9787:9801   */\n      add\n        /* \"#utility.yul\":9773:9785   */\n      dup3\n        /* \"#utility.yul\":9739:9802   */\n      tag_104\n      jump\t// in\n    tag_224:\n        /* \"#utility.yul\":9643:9812   */\n      pop\n        /* \"#utility.yul\":9829:9833   */\n      dup1\n        /* \"#utility.yul\":9822:9833   */\n      swap2\n      pop\n        /* \"#utility.yul\":9173:9839   */\n      pop\n        /* \"#utility.yul\":9063:9839   */\n      swap3\n      swap2\n      pop\n      pop\n      jump\t// out\n        /* \"#utility.yul\":9845:10093   */\n    tag_113:\n        /* \"#utility.yul\":9960:9970   */\n      0x00\n        /* \"#utility.yul\":9995:10087   */\n      tag_226\n        /* \"#utility.yul\":10083:10086   */\n      dup4\n        /* \"#utility.yul\":10075:10081   */\n      dup4\n        /* \"#utility.yul\":9995:10087   */\n      tag_112\n      jump\t// in\n    tag_226:\n        /* \"#utility.yul\":9981:10087   */\n      swap1\n      pop\n        /* \"#utility.yul\":9845:10093   */\n      swap3\n      swap2\n      pop\n      pop\n      jump\t// out\n        /* \"#utility.yul\":10099:10235   */\n    tag_114:\n        /* \"#utility.yul\":10192:10196   */\n      0x00\n        /* \"#utility.yul\":10224:10228   */\n      0x20\n        /* \"#utility.yul\":10219:10222   */\n      dup3\n        /* \"#utility.yul\":10215:10229   */\n      add\n        /* \"#utility.yul\":10207:10229   */\n      swap1\n      pop\n        /* \"#utility.yul\":10099:10235   */\n      swap2\n      swap1\n      pop\n      jump\t// out\n        /* \"#utility.yul\":10305:11400   */\n    tag_115:\n        /* \"#utility.yul\":10470:10473   */\n      0x00\n        /* \"#utility.yul\":10499:10576   */\n      tag_229\n        /* \"#utility.yul\":10570:10575   */\n      dup3\n        /* \"#utility.yul\":10499:10576   */\n      tag_109\n      jump\t// in\n    tag_229:\n        /* \"#utility.yul\":10592:10701   */\n      tag_230\n        /* \"#utility.yul\":10694:10700   */\n      dup2\n        /* \"#utility.yul\":10689:10692   */\n      dup6\n        /* \"#utility.yul\":10592:10701   */\n      tag_110\n      jump\t// in\n    tag_230:\n        /* \"#utility.yul\":10585:10701   */\n      swap4\n      pop\n        /* \"#utility.yul\":10727:10730   */\n      dup4\n        /* \"#utility.yul\":10772:10776   */\n      0x20\n        /* \"#utility.yul\":10764:10770   */\n      dup3\n        /* \"#utility.yul\":10760:10777   */\n      mul\n        /* \"#utility.yul\":10755:10758   */\n      dup6\n        /* \"#utility.yul\":10751:10778   */\n      add\n        /* \"#utility.yul\":10802:10881   */\n      tag_231\n        /* \"#utility.yul\":10875:10880   */\n      dup6\n        /* \"#utility.yul\":10802:10881   */\n      tag_111\n      jump\t// in\n    tag_231:\n        /* \"#utility.yul\":10904:10911   */\n      dup1\n        /* \"#utility.yul\":10935:10936   */\n      0x00\n        /* \"#utility.yul\":10920:11355   */\n    tag_232:\n        /* \"#utility.yul\":10945:10951   */\n      dup6\n        /* \"#utility.yul\":10942:10943   */\n      dup2\n        /* \"#utility.yul\":10939:10952   */\n      lt\n        /* \"#utility.yul\":10920:11355   */\n      iszero\n      tag_234\n      jumpi\n        /* \"#utility.yul\":11016:11025   */\n      dup5\n        /* \"#utility.yul\":11010:11014   */\n      dup5\n        /* \"#utility.yul\":11006:11026   */\n      sub\n        /* \"#utility.yul\":11001:11004   */\n      dup10\n        /* \"#utility.yul\":10994:11027   */\n      mstore\n        /* \"#utility.yul\":11067:11073   */\n      dup2\n        /* \"#utility.yul\":11061:11074   */\n      mload\n        /* \"#utility.yul\":11095:11205   */\n      tag_235\n        /* \"#utility.yul\":11200:11204   */\n      dup6\n        /* \"#utility.yul\":11185:11198   */\n      dup3\n        /* \"#utility.yul\":11095:11205   */\n      tag_113\n      jump\t// in\n    tag_235:\n        /* \"#utility.yul\":11087:11205   */\n      swap5\n      pop\n        /* \"#utility.yul\":11228:11311   */\n      tag_236\n        /* \"#utility.yul\":11304:11310   */\n      dup4\n        /* \"#utility.yul\":11228:11311   */\n      tag_114\n      jump\t// in\n    tag_236:\n        /* \"#utility.yul\":11218:11311   */\n      swap3\n      pop\n        /* \"#utility.yul\":11340:11344   */\n      0x20\n        /* \"#utility.yul\":11335:11338   */\n      dup11\n        /* \"#utility.yul\":11331:11345   */\n      add\n        /* \"#utility.yul\":11324:11345   */\n      swap10\n      pop\n        /* \"#utility.yul\":10980:11355   */\n      pop\n        /* \"#utility.yul\":10967:10968   */\n      0x01\n        /* \"#utility.yul\":10964:10965   */\n      dup2\n        /* \"#utility.yul\":10960:10969   */\n      add\n        /* \"#utility.yul\":10955:10969   */\n      swap1\n      pop\n        /* \"#utility.yul\":10920:11355   */\n      jump(tag_232)\n    tag_234:\n        /* \"#utility.yul\":10924:10938   */\n      pop\n        /* \"#utility.yul\":11371:11375   */\n      dup3\n        /* \"#utility.yul\":11364:11375   */\n      swap8\n      pop\n        /* \"#utility.yul\":11391:11394   */\n      dup8\n        /* \"#utility.yul\":11384:11394   */\n      swap6\n      pop\n        /* \"#utility.yul\":10475:11400   */\n      pop\n      pop\n      pop\n      pop\n      pop\n        /* \"#utility.yul\":10305:11400   */\n      swap3\n      swap2\n      pop\n      pop\n      jump\t// out\n        /* \"#utility.yul\":11406:11871   */\n    tag_26:\n        /* \"#utility.yul\":11595:11599   */\n      0x00\n        /* \"#utility.yul\":11633:11635   */\n      0x20\n        /* \"#utility.yul\":11622:11631   */\n      dup3\n        /* \"#utility.yul\":11618:11636   */\n      add\n        /* \"#utility.yul\":11610:11636   */\n      swap1\n      pop\n        /* \"#utility.yul\":11682:11691   */\n      dup2\n        /* \"#utility.yul\":11676:11680   */\n      dup2\n        /* \"#utility.yul\":11672:11692   */\n      sub\n        /* \"#utility.yul\":11668:11669   */\n      0x00\n        /* \"#utility.yul\":11657:11666   */\n      dup4\n        /* \"#utility.yul\":11653:11670   */\n      add\n        /* \"#utility.yul\":11646:11693   */\n      mstore\n        /* \"#utility.yul\":11710:11864   */\n      tag_238\n        /* \"#utility.yul\":11859:11863   */\n      dup2\n        /* \"#utility.yul\":11850:11856   */\n      dup5\n        /* \"#utility.yul\":11710:11864   */\n      tag_115\n      jump\t// in\n    tag_238:\n        /* \"#utility.yul\":11702:11864   */\n      swap1\n      pop\n        /* \"#utility.yul\":11406:11871   */\n      swap3\n      swap2\n      pop\n      pop\n      jump\t// out\n        /* \"#utility.yul\":11877:11999   */\n    tag_116:\n        /* \"#utility.yul\":11950:11974   */\n      tag_240\n        /* \"#utility.yul\":11968:11973   */\n      dup2\n        /* \"#utility.yul\":11950:11974   */\n      tag_86\n      jump\t// in\n    tag_240:\n        /* \"#utility.yul\":11943:11948   */\n      dup2\n        /* \"#utility.yul\":11940:11975   */\n      eq\n        /* \"#utility.yul\":11930:11993   */\n      tag_241\n      jumpi\n        /* \"#utility.yul\":11989:11990   */\n      0x00\n        /* \"#utility.yul\":11986:11987   */\n      dup1\n        /* \"#utility.yul\":11979:11991   */\n      revert\n        /* \"#utility.yul\":11930:11993   */\n    tag_241:\n        /* \"#utility.yul\":11877:11999   */\n      pop\n      jump\t// out\n        /* \"#utility.yul\":12005:12144   */\n    tag_117:\n        /* \"#utility.yul\":12051:12056   */\n      0x00\n        /* \"#utility.yul\":12089:12095   */\n      dup2\n        /* \"#utility.yul\":12076:12096   */\n      calldataload\n        /* \"#utility.yul\":12067:12096   */\n      swap1\n      pop\n        /* \"#utility.yul\":12105:12138   */\n      tag_243\n        /* \"#utility.yul\":12132:12137   */\n      dup2\n        /* \"#utility.yul\":12105:12138   */\n      tag_116\n      jump\t// in\n    tag_243:\n        /* \"#utility.yul\":12005:12144   */\n      swap3\n      swap2\n      pop\n      pop\n      jump\t// out\n        /* \"#utility.yul\":12150:12624   */\n    tag_29:\n        /* \"#utility.yul\":12218:12224   */\n      0x00\n        /* \"#utility.yul\":12226:12232   */\n      dup1\n        /* \"#utility.yul\":12275:12277   */\n      0x40\n        /* \"#utility.yul\":12263:12272   */\n      dup4\n        /* \"#utility.yul\":12254:12261   */\n      dup6\n        /* \"#utility.yul\":12250:12273   */\n      sub\n        /* \"#utility.yul\":12246:12278   */\n      slt\n        /* \"#utility.yul\":12243:12362   */\n      iszero\n      tag_245\n      jumpi\n        /* \"#utility.yul\":12281:12360   */\n      tag_246\n      tag_80\n      jump\t// in\n    tag_246:\n        /* \"#utility.yul\":12243:12362   */\n    tag_245:\n        /* \"#utility.yul\":12401:12402   */\n      0x00\n        /* \"#utility.yul\":12426:12479   */\n      tag_247\n        /* \"#utility.yul\":12471:12478   */\n      dup6\n        /* \"#utility.yul\":12462:12468   */\n      dup3\n        /* \"#utility.yul\":12451:12460   */\n      dup7\n        /* \"#utility.yul\":12447:12469   */\n      add\n        /* \"#utility.yul\":12426:12479   */\n      tag_117\n      jump\t// in\n    tag_247:\n        /* \"#utility.yul\":12416:12479   */\n      swap3\n      pop\n        /* \"#utility.yul\":12372:12489   */\n      pop\n        /* \"#utility.yul\":12528:12530   */\n      0x20\n        /* \"#utility.yul\":12554:12607   */\n      tag_248\n        /* \"#utility.yul\":12599:12606   */\n      dup6\n        /* \"#utility.yul\":12590:12596   */\n      dup3\n        /* \"#utility.yul\":12579:12588   */\n      dup7\n        /* \"#utility.yul\":12575:12597   */\n      add\n        /* \"#utility.yul\":12554:12607   */\n      tag_84\n      jump\t// in\n    tag_248:\n        /* \"#utility.yul\":12544:12607   */\n      swap2\n      pop\n        /* \"#utility.yul\":12499:12617   */\n      pop\n        /* \"#utility.yul\":12150:12624   */\n      swap3\n      pop\n      swap3\n      swap1\n      pop\n      jump\t// out\n        /* \"#utility.yul\":12630:13304   */\n    tag_34:\n        /* \"#utility.yul\":12710:12716   */\n      0x00\n        /* \"#utility.yul\":12718:12724   */\n      dup1\n        /* \"#utility.yul\":12726:12732   */\n      0x00\n        /* \"#utility.yul\":12775:12777   */\n      0x40\n        /* \"#utility.yul\":12763:12772   */\n      dup5\n        /* \"#utility.yul\":12754:12761   */\n      dup7\n        /* \"#utility.yul\":12750:12773   */\n      sub\n        /* \"#utility.yul\":12746:12778   */\n      slt\n        /* \"#utility.yul\":12743:12862   */\n      iszero\n      tag_250\n      jumpi\n        /* \"#utility.yul\":12781:12860   */\n      tag_251\n      tag_80\n      jump\t// in\n    tag_251:\n        /* \"#utility.yul\":12743:12862   */\n    tag_250:\n        /* \"#utility.yul\":12901:12902   */\n      0x00\n        /* \"#utility.yul\":12926:12979   */\n      tag_252\n        /* \"#utility.yul\":12971:12978   */\n      dup7\n        /* \"#utility.yul\":12962:12968   */\n      dup3\n        /* \"#utility.yul\":12951:12960   */\n      dup8\n        /* \"#utility.yul\":12947:12969   */\n      add\n        /* \"#utility.yul\":12926:12979   */\n      tag_117\n      jump\t// in\n    tag_252:\n        /* \"#utility.yul\":12916:12979   */\n      swap4\n      pop\n        /* \"#utility.yul\":12872:12989   */\n      pop\n        /* \"#utility.yul\":13056:13058   */\n      0x20\n        /* \"#utility.yul\":13045:13054   */\n      dup5\n        /* \"#utility.yul\":13041:13059   */\n      add\n        /* \"#utility.yul\":13028:13060   */\n      calldataload\n        /* \"#utility.yul\":13087:13105   */\n      0xffffffffffffffff\n        /* \"#utility.yul\":13079:13085   */\n      dup2\n        /* \"#utility.yul\":13076:13106   */\n      gt\n        /* \"#utility.yul\":13073:13190   */\n      iszero\n      tag_253\n      jumpi\n        /* \"#utility.yul\":13109:13188   */\n      tag_254\n      tag_81\n      jump\t// in\n    tag_254:\n        /* \"#utility.yul\":13073:13190   */\n    tag_253:\n        /* \"#utility.yul\":13222:13287   */\n      tag_255\n        /* \"#utility.yul\":13279:13286   */\n      dup7\n        /* \"#utility.yul\":13270:13276   */\n      dup3\n        /* \"#utility.yul\":13259:13268   */\n      dup8\n        /* \"#utility.yul\":13255:13277   */\n      add\n        /* \"#utility.yul\":13222:13287   */\n      tag_97\n      jump\t// in\n    tag_255:\n        /* \"#utility.yul\":13204:13287   */\n      swap3\n      pop\n      swap3\n      pop\n        /* \"#utility.yul\":12999:13297   */\n      pop\n        /* \"#utility.yul\":12630:13304   */\n      swap3\n      pop\n      swap3\n      pop\n      swap3\n      jump\t// out\n        /* \"#utility.yul\":13310:13490   */\n    tag_118:\n        /* \"#utility.yul\":13358:13435   */\n      0x4e487b7100000000000000000000000000000000000000000000000000000000\n        /* \"#utility.yul\":13355:13356   */\n      0x00\n        /* \"#utility.yul\":13348:13436   */\n      mstore\n        /* \"#utility.yul\":13455:13459   */\n      0x22\n        /* \"#utility.yul\":13452:13453   */\n      0x04\n        /* \"#utility.yul\":13445:13460   */\n      mstore\n        /* \"#utility.yul\":13479:13483   */\n      0x24\n        /* \"#utility.yul\":13476:13477   */\n      0x00\n        /* \"#utility.yul\":13469:13484   */\n      revert\n        /* \"#utility.yul\":13496:13816   */\n    tag_39:\n        /* \"#utility.yul\":13540:13546   */\n      0x00\n        /* \"#utility.yul\":13577:13578   */\n      0x02\n        /* \"#utility.yul\":13571:13575   */\n      dup3\n        /* \"#utility.yul\":13567:13579   */\n      div\n        /* \"#utility.yul\":13557:13579   */\n      swap1\n      pop\n        /* \"#utility.yul\":13624:13625   */\n      0x01\n        /* \"#utility.yul\":13618:13622   */\n      dup3\n        /* \"#utility.yul\":13614:13626   */\n      and\n        /* \"#utility.yul\":13645:13663   */\n      dup1\n        /* \"#utility.yul\":13635:13716   */\n      tag_258\n      jumpi\n        /* \"#utility.yul\":13701:13705   */\n      0x7f\n        /* \"#utility.yul\":13693:13699   */\n      dup3\n        /* \"#utility.yul\":13689:13706   */\n      and\n        /* \"#utility.yul\":13679:13706   */\n      swap2\n      pop\n        /* \"#utility.yul\":13635:13716   */\n    tag_258:\n        /* \"#utility.yul\":13763:13765   */\n      0x20\n        /* \"#utility.yul\":13755:13761   */\n      dup3\n        /* \"#utility.yul\":13752:13766   */\n      lt\n        /* \"#utility.yul\":13732:13750   */\n      dup2\n        /* \"#utility.yul\":13729:13767   */\n      sub\n        /* \"#utility.yul\":13726:13810   */\n      tag_259\n      jumpi\n        /* \"#utility.yul\":13782:13800   */\n      tag_260\n      tag_118\n      jump\t// in\n    tag_260:\n        /* \"#utility.yul\":13726:13810   */\n    tag_259:\n        /* \"#utility.yul\":13547:13816   */\n      pop\n        /* \"#utility.yul\":13496:13816   */\n      swap2\n      swap1\n      pop\n      jump\t// out\n        /* \"#utility.yul\":13822:14002   */\n    tag_119:\n        /* \"#utility.yul\":13870:13947   */\n      0x4e487b7100000000000000000000000000000000000000000000000000000000\n        /* \"#utility.yul\":13867:13868   */\n      0x00\n        /* \"#utility.yul\":13860:13948   */\n      mstore\n        /* \"#utility.yul\":13967:13971   */\n      0x41\n        /* \"#utility.yul\":13964:13965   */\n      0x04\n        /* \"#utility.yul\":13957:13972   */\n      mstore\n        /* \"#utility.yul\":13991:13995   */\n      0x24\n        /* \"#utility.yul\":13988:13989   */\n      0x00\n        /* \"#utility.yul\":13981:13996   */\n      revert\n        /* \"#utility.yul\":14008:14149   */\n    tag_120:\n        /* \"#utility.yul\":14057:14061   */\n      0x00\n        /* \"#utility.yul\":14080:14083   */\n      dup2\n        /* \"#utility.yul\":14072:14083   */\n      swap1\n      pop\n        /* \"#utility.yul\":14103:14106   */\n      dup2\n        /* \"#utility.yul\":14100:14101   */\n      0x00\n        /* \"#utility.yul\":14093:14107   */\n      mstore\n        /* \"#utility.yul\":14137:14141   */\n      0x20\n        /* \"#utility.yul\":14134:14135   */\n      0x00\n        /* \"#utility.yul\":14124:14142   */\n      keccak256\n        /* \"#utility.yul\":14116:14142   */\n      swap1\n      pop\n        /* \"#utility.yul\":14008:14149   */\n      swap2\n      swap1\n      pop\n      jump\t// out\n        /* \"#utility.yul\":14155:14248   */\n    tag_121:\n        /* \"#utility.yul\":14192:14198   */\n      0x00\n        /* \"#utility.yul\":14239:14241   */\n      0x20\n        /* \"#utility.yul\":14234:14236   */\n      0x1f\n        /* \"#utility.yul\":14227:14232   */\n      dup4\n        /* \"#utility.yul\":14223:14237   */\n      add\n        /* \"#utility.yul\":14219:14242   */\n      div\n        /* \"#utility.yul\":14209:14242   */\n      swap1\n      pop\n        /* \"#utility.yul\":14155:14248   */\n      swap2\n      swap1\n      pop\n      jump\t// out\n        /* \"#utility.yul\":14254:14361   */\n    tag_122:\n        /* \"#utility.yul\":14298:14306   */\n      0x00\n        /* \"#utility.yul\":14348:14353   */\n      dup3\n        /* \"#utility.yul\":14342:14346   */\n      dup3\n        /* \"#utility.yul\":14338:14354   */\n      shl\n        /* \"#utility.yul\":14317:14354   */\n      swap1\n      pop\n        /* \"#utility.yul\":14254:14361   */\n      swap3\n      swap2\n      pop\n      pop\n      jump\t// out\n        /* \"#utility.yul\":14367:14760   */\n    tag_123:\n        /* \"#utility.yul\":14436:14442   */\n      0x00\n        /* \"#utility.yul\":14486:14487   */\n      0x08\n        /* \"#utility.yul\":14474:14484   */\n      dup4\n        /* \"#utility.yul\":14470:14488   */\n      mul\n        /* \"#utility.yul\":14509:14606   */\n      tag_266\n        /* \"#utility.yul\":14539:14605   */\n      0xffffffffffffffffffffffffffffffffffffffffffffffffffffffffffffffff\n        /* \"#utility.yul\":14528:14537   */\n      dup3\n        /* \"#utility.yul\":14509:14606   */\n      tag_122\n      jump\t// in\n    tag_266:\n        /* \"#utility.yul\":14627:14666   */\n      tag_267\n        /* \"#utility.yul\":14657:14665   */\n      dup7\n        /* \"#utility.yul\":14646:14655   */\n      dup4\n        /* \"#utility.yul\":14627:14666   */\n      tag_122\n      jump\t// in\n    tag_267:\n        /* \"#utility.yul\":14615:14666   */\n      swap6\n      pop\n        /* \"#utility.yul\":14699:14703   */\n      dup1\n        /* \"#utility.yul\":14695:14704   */\n      not\n        /* \"#utility.yul\":14688:14693   */\n      dup5\n        /* \"#utility.yul\":14684:14705   */\n      and\n        /* \"#utility.yul\":14675:14705   */\n      swap4\n      pop\n        /* \"#utility.yul\":14748:14752   */\n      dup1\n        /* \"#utility.yul\":14738:14746   */\n      dup7\n        /* \"#utility.yul\":14734:14753   */\n      and\n        /* \"#utility.yul\":14727:14732   */\n      dup5\n        /* \"#utility.yul\":14724:14754   */\n      or\n        /* \"#utility.yul\":14714:14754   */\n      swap3\n      pop\n        /* \"#utility.yul\":14443:14760   */\n      pop\n      pop\n        /* \"#utility.yul\":14367:14760   */\n      swap4\n      swap3\n      pop\n      pop\n      pop\n      jump\t// out\n        /* \"#utility.yul\":14766:14826   */\n    tag_124:\n        /* \"#utility.yul\":14794:14797   */\n      0x00\n        /* \"#utility.yul\":14815:14820   */\n      dup2\n        /* \"#utility.yul\":14808:14820   */\n      swap1\n      pop\n        /* \"#utility.yul\":14766:14826   */\n      swap2\n      swap1\n      pop\n      jump\t// out\n        /* \"#utility.yul\":14832:14974   */\n    tag_125:\n        /* \"#utility.yul\":14882:14891   */\n      0x00\n        /* \"#utility.yul\":14915:14968   */\n      tag_270\n        /* \"#utility.yul\":14933:14967   */\n      tag_271\n        /* \"#utility.yul\":14942:14966   */\n      tag_272\n        /* \"#utility.yul\":14960:14965   */\n      dup5\n        /* \"#utility.yul\":14942:14966   */\n      tag_82\n      jump\t// in\n    tag_272:\n        /* \"#utility.yul\":14933:14967   */\n      tag_124\n      jump\t// in\n    tag_271:\n        /* \"#utility.yul\":14915:14968   */\n      tag_82\n      jump\t// in\n    tag_270:\n        /* \"#utility.yul\":14902:14968   */\n      swap1\n      pop\n        /* \"#utility.yul\":14832:14974   */\n      swap2\n      swap1\n      pop\n      jump\t// out\n        /* \"#utility.yul\":14980:15055   */\n    tag_126:\n        /* \"#utility.yul\":15023:15026   */\n      0x00\n        /* \"#utility.yul\":15044:15049   */\n      dup2\n        /* \"#utility.yul\":15037:15049   */\n      swap1\n      pop\n        /* \"#utility.yul\":14980:15055   */\n      swap2\n      swap1\n      pop\n      jump\t// out\n        /* \"#utility.yul\":15061:15330   */\n    tag_127:\n        /* \"#utility.yul\":15171:15210   */\n      tag_275\n        /* \"#utility.yul\":15202:15209   */\n      dup4\n        /* \"#utility.yul\":15171:15210   */\n      tag_125\n      jump\t// in\n    tag_275:\n        /* \"#utility.yul\":15232:15323   */\n      tag_276\n        /* \"#utility.yul\":15281:15322   */\n      tag_277\n        /* \"#utility.yul\":15305:15321   */\n      dup3\n        /* \"#utility.yul\":15281:15322   */\n      tag_126\n      jump\t// in\n    tag_277:\n        /* \"#utility.yul\":15273:15279   */\n      dup5\n        /* \"#utility.yul\":15266:15270   */\n      dup5\n        /* \"#utility.yul\":15260:15271   */\n      sload\n        /* \"#utility.yul\":15232:15323   */\n      tag_123\n      jump\t// in\n    tag_276:\n        /* \"#utility.yul\":15226:15230   */\n      dup3\n        /* \"#utility.yul\":15219:15324   */\n      sstore\n        /* \"#utility.yul\":15137:15330   */\n      pop\n        /* \"#utility.yul\":15061:15330   */\n      pop\n      pop\n      pop\n      jump\t// out\n        /* \"#utility.yul\":15336:15409   */\n    tag_128:\n        /* \"#utility.yul\":15381:15384   */\n      0x00\n        /* \"#utility.yul\":15336:15409   */\n      swap1\n      jump\t// out\n        /* \"#utility.yul\":15415:15604   */\n    tag_129:\n        /* \"#utility.yul\":15492:15524   */\n      tag_280\n      tag_128\n      jump\t// in\n    tag_280:\n        /* \"#utility.yul\":15533:15598   */\n      tag_281\n        /* \"#utility.yul\":15591:15597   */\n      dup2\n        /* \"#utility.yul\":15583:15589   */\n      dup5\n        /* \"#utility.yul\":15577:15581   */\n      dup5\n        /* \"#utility.yul\":15533:15598   */\n      tag_127\n      jump\t// in\n    tag_281:\n        /* \"#utility.yul\":15468:15604   */\n      pop\n        /* \"#utility.yul\":15415:15604   */\n      pop\n      pop\n      jump\t// out\n        /* \"#utility.yul\":15610:15796   */\n    tag_130:\n        /* \"#utility.yul\":15670:15790   */\n    tag_283:\n        /* \"#utility.yul\":15687:15690   */\n      dup2\n        /* \"#utility.yul\":15680:15685   */\n      dup2\n        /* \"#utility.yul\":15677:15691   */\n      lt\n        /* \"#utility.yul\":15670:15790   */\n      iszero\n      tag_285\n      jumpi\n        /* \"#utility.yul\":15741:15780   */\n      tag_286\n        /* \"#utility.yul\":15778:15779   */\n      0x00\n        /* \"#utility.yul\":15771:15776   */\n      dup3\n        /* \"#utility.yul\":15741:15780   */\n      tag_129\n      jump\t// in\n    tag_286:\n        /* \"#utility.yul\":15714:15715   */\n      0x01\n        /* \"#utility.yul\":15707:15712   */\n      dup2\n        /* \"#utility.yul\":15703:15716   */\n      add\n        /* \"#utility.yul\":15694:15716   */\n      swap1\n      pop\n        /* \"#utility.yul\":15670:15790   */\n      jump(tag_283)\n    tag_285:\n        /* \"#utility.yul\":15610:15796   */\n      pop\n      pop\n      jump\t// out\n        /* \"#utility.yul\":15802:16345   */\n    tag_131:\n        /* \"#utility.yul\":15903:15905   */\n      0x1f\n        /* \"#utility.yul\":15898:15901   */\n      dup3\n        /* \"#utility.yul\":15895:15906   */\n      gt\n        /* \"#utility.yul\":15892:16338   */\n      iszero\n      tag_288\n      jumpi\n        /* \"#utility.yul\":15937:15975   */\n      tag_289\n        /* \"#utility.yul\":15969:15974   */\n      dup2\n        /* \"#utility.yul\":15937:15975   */\n      tag_120\n      jump\t// in\n    tag_289:\n        /* \"#utility.yul\":16021:16050   */\n      tag_290\n        /* \"#utility.yul\":16039:16049   */\n      dup5\n        /* \"#utility.yul\":16021:16050   */\n      tag_121\n      jump\t// in\n    tag_290:\n        /* \"#utility.yul\":16011:16019   */\n      dup2\n        /* \"#utility.yul\":16007:16051   */\n      add\n        /* \"#utility.yul\":16204:16206   */\n      0x20\n        /* \"#utility.yul\":16192:16202   */\n      dup6\n        /* \"#utility.yul\":16189:16207   */\n      lt\n        /* \"#utility.yul\":16186:16235   */\n      iszero\n      tag_291\n      jumpi\n        /* \"#utility.yul\":16225:16233   */\n      dup2\n        /* \"#utility.yul\":16210:16233   */\n      swap1\n      pop\n        /* \"#utility.yul\":16186:16235   */\n    tag_291:\n        /* \"#utility.yul\":16248:16328   */\n      tag_292\n        /* \"#utility.yul\":16304:16326   */\n      tag_293\n        /* \"#utility.yul\":16322:16325   */\n      dup6\n        /* \"#utility.yul\":16304:16326   */\n      tag_121\n      jump\t// in\n    tag_293:\n        /* \"#utility.yul\":16294:16302   */\n      dup4\n        /* \"#utility.yul\":16290:16327   */\n      add\n        /* \"#utility.yul\":16277:16288   */\n      dup3\n        /* \"#utility.yul\":16248:16328   */\n      tag_130\n      jump\t// in\n    tag_292:\n        /* \"#utility.yul\":15907:16338   */\n      pop\n      pop\n        /* \"#utility.yul\":15892:16338   */\n    tag_288:\n        /* \"#utility.yul\":15802:16345   */\n      pop\n      pop\n      pop\n      jump\t// out\n        /* \"#utility.yul\":16351:16468   */\n    tag_132:\n        /* \"#utility.yul\":16405:16413   */\n      0x00\n        /* \"#utility.yul\":16455:16460   */\n      dup3\n        /* \"#utility.yul\":16449:16453   */\n      dup3\n        /* \"#utility.yul\":16445:16461   */\n      shr\n        /* \"#utility.yul\":16424:16461   */\n      swap1\n      pop\n        /* \"#utility.yul\":16351:16468   */\n      swap3\n      swap2\n      pop\n      pop\n      jump\t// out\n        /* \"#utility.yul\":16474:16643   */\n    tag_133:\n        /* \"#utility.yul\":16518:16524   */\n      0x00\n        /* \"#utility.yul\":16551:16602   */\n      tag_296\n        /* \"#utility.yul\":16599:16600   */\n      0x00\n        /* \"#utility.yul\":16595:16601   */\n      not\n        /* \"#utility.yul\":16587:16592   */\n      dup5\n        /* \"#utility.yul\":16584:16585   */\n      0x08\n        /* \"#utility.yul\":16580:16593   */\n      mul\n        /* \"#utility.yul\":16551:16602   */\n      tag_132\n      jump\t// in\n    tag_296:\n        /* \"#utility.yul\":16547:16603   */\n      not\n        /* \"#utility.yul\":16632:16636   */\n      dup1\n        /* \"#utility.yul\":16626:16630   */\n      dup4\n        /* \"#utility.yul\":16622:16637   */\n      and\n        /* \"#utility.yul\":16612:16637   */\n      swap2\n      pop\n        /* \"#utility.yul\":16525:16643   */\n      pop\n        /* \"#utility.yul\":16474:16643   */\n      swap3\n      swap2\n      pop\n      pop\n      jump\t// out\n        /* \"#utility.yul\":16648:16943   */\n    tag_134:\n        /* \"#utility.yul\":16724:16728   */\n      0x00\n        /* \"#utility.yul\":16870:16899   */\n      tag_298\n        /* \"#utility.yul\":16895:16898   */\n      dup4\n        /* \"#utility.yul\":16889:16893   */\n      dup4\n        /* \"#utility.yul\":16870:16899   */\n      tag_133\n      jump\t// in\n    tag_298:\n        /* \"#utility.yul\":16862:16899   */\n      swap2\n      pop\n        /* \"#utility.yul\":16932:16935   */\n      dup3\n        /* \"#utility.yul\":16929:16930   */\n      0x02\n        /* \"#utility.yul\":16925:16936   */\n      mul\n        /* \"#utility.yul\":16919:16923   */\n      dup3\n        /* \"#utility.yul\":16916:16937   */\n      or\n        /* \"#utility.yul\":16908:16937   */\n      swap1\n      pop\n        /* \"#utility.yul\":16648:16943   */\n      swap3\n      swap2\n      pop\n      pop\n      jump\t// out\n        /* \"#utility.yul\":16948:18343   */\n    tag_47:\n        /* \"#utility.yul\":17065:17102   */\n      tag_300\n        /* \"#utility.yul\":17098:17101   */\n      dup3\n        /* \"#utility.yul\":17065:17102   */\n      tag_88\n      jump\t// in\n    tag_300:\n        /* \"#utility.yul\":17167:17185   */\n      0xffffffffffffffff\n        /* \"#utility.yul\":17159:17165   */\n      dup2\n        /* \"#utility.yul\":17156:17186   */\n      gt\n        /* \"#utility.yul\":17153:17209   */\n      iszero\n      tag_301\n      jumpi\n        /* \"#utility.yul\":17189:17207   */\n      tag_302\n      tag_119\n      jump\t// in\n    tag_302:\n        /* \"#utility.yul\":17153:17209   */\n    tag_301:\n        /* \"#utility.yul\":17233:17271   */\n      tag_303\n        /* \"#utility.yul\":17265:17269   */\n      dup3\n        /* \"#utility.yul\":17259:17270   */\n      sload\n        /* \"#utility.yul\":17233:17271   */\n      tag_39\n      jump\t// in\n    tag_303:\n        /* \"#utility.yul\":17318:17385   */\n      tag_304\n        /* \"#utility.yul\":17378:17384   */\n      dup3\n        /* \"#utility.yul\":17370:17376   */\n      dup3\n        /* \"#utility.yul\":17364:17368   */\n      dup6\n        /* \"#utility.yul\":17318:17385   */\n      tag_131\n      jump\t// in\n    tag_304:\n        /* \"#utility.yul\":17412:17413   */\n      0x00\n        /* \"#utility.yul\":17436:17440   */\n      0x20\n        /* \"#utility.yul\":17423:17440   */\n      swap1\n      pop\n        /* \"#utility.yul\":17468:17470   */\n      0x1f\n        /* \"#utility.yul\":17460:17466   */\n      dup4\n        /* \"#utility.yul\":17457:17471   */\n      gt\n        /* \"#utility.yul\":17485:17486   */\n      0x01\n        /* \"#utility.yul\":17480:18098   */\n      dup2\n      eq\n      tag_306\n      jumpi\n        /* \"#utility.yul\":18142:18143   */\n      0x00\n        /* \"#utility.yul\":18159:18165   */\n      dup5\n        /* \"#utility.yul\":18156:18233   */\n      iszero\n      tag_307\n      jumpi\n        /* \"#utility.yul\":18208:18217   */\n      dup3\n        /* \"#utility.yul\":18203:18206   */\n      dup8\n        /* \"#utility.yul\":18199:18218   */\n      add\n        /* \"#utility.yul\":18193:18219   */\n      mload\n        /* \"#utility.yul\":18184:18219   */\n      swap1\n      pop\n        /* \"#utility.yul\":18156:18233   */\n    tag_307:\n        /* \"#utility.yul\":18259:18326   */\n      tag_308\n        /* \"#utility.yul\":18319:18325   */\n      dup6\n        /* \"#utility.yul\":18312:18317   */\n      dup3\n        /* \"#utility.yul\":18259:18326   */\n      tag_134\n      jump\t// in\n    tag_308:\n        /* \"#utility.yul\":18253:18257   */\n      dup7\n        /* \"#utility.yul\":18246:18327   */\n      sstore\n        /* \"#utility.yul\":18115:18337   */\n      pop\n        /* \"#utility.yul\":17450:18337   */\n      jump(tag_305)\n        /* \"#utility.yul\":17480:18098   */\n    tag_306:\n        /* \"#utility.yul\":17532:17536   */\n      0x1f\n        /* \"#utility.yul\":17528:17537   */\n      not\n        /* \"#utility.yul\":17520:17526   */\n      dup5\n        /* \"#utility.yul\":17516:17538   */\n      and\n        /* \"#utility.yul\":17566:17603   */\n      tag_309\n        /* \"#utility.yul\":17598:17602   */\n      dup7\n        /* \"#utility.yul\":17566:17603   */\n      tag_120\n      jump\t// in\n    tag_309:\n        /* \"#utility.yul\":17625:17626   */\n      0x00\n        /* \"#utility.yul\":17639:17847   */\n    tag_310:\n        /* \"#utility.yul\":17653:17660   */\n      dup3\n        /* \"#utility.yul\":17650:17651   */\n      dup2\n        /* \"#utility.yul\":17647:17661   */\n      lt\n        /* \"#utility.yul\":17639:17847   */\n      iszero\n      tag_312\n      jumpi\n        /* \"#utility.yul\":17732:17741   */\n      dup5\n        /* \"#utility.yul\":17727:17730   */\n      dup10\n        /* \"#utility.yul\":17723:17742   */\n      add\n        /* \"#utility.yul\":17717:17743   */\n      mload\n        /* \"#utility.yul\":17709:17715   */\n      dup3\n        /* \"#utility.yul\":17702:17744   */\n      sstore\n        /* \"#utility.yul\":17783:17784   */\n      0x01\n        /* \"#utility.yul\":17775:17781   */\n      dup3\n        /* \"#utility.yul\":17771:17785   */\n      add\n        /* \"#utility.yul\":17761:17785   */\n      swap2\n      pop\n        /* \"#utility.yul\":17830:17832   */\n      0x20\n        /* \"#utility.yul\":17819:17828   */\n      dup6\n        /* \"#utility.yul\":17815:17833   */\n      add\n        /* \"#utility.yul\":17802:17833   */\n      swap5\n      pop\n        /* \"#utility.yul\":17676:17680   */\n      0x20\n        /* \"#utility.yul\":17673:17674   */\n      dup2\n        /* \"#utility.yul\":17669:17681   */\n      add\n        /* \"#utility.yul\":17664:17681   */\n      swap1\n      pop\n        /* \"#utility.yul\":17639:17847   */\n      jump(tag_310)\n    tag_312:\n        /* \"#utility.yul\":17875:17881   */\n      dup7\n        /* \"#utility.yul\":17866:17873   */\n      dup4\n        /* \"#utility.yul\":17863:17882   */\n      lt\n        /* \"#utility.yul\":17860:18039   */\n      iszero\n      tag_313\n      jumpi\n        /* \"#utility.yul\":17933:17942   */\n      dup5\n        /* \"#utility.yul\":17928:17931   */\n      dup10\n        /* \"#utility.yul\":17924:17943   */\n      add\n        /* \"#utility.yul\":17918:17944   */\n      mload\n        /* \"#utility.yul\":17976:18024   */\n      tag_314\n        /* \"#utility.yul\":18018:18022   */\n      0x1f\n        /* \"#utility.yul\":18010:18016   */\n      dup10\n        /* \"#utility.yul\":18006:18023   */\n      and\n        /* \"#utility.yul\":17995:18004   */\n      dup3\n        /* \"#utility.yul\":17976:18024   */\n      tag_133\n      jump\t// in\n    tag_314:\n        /* \"#utility.yul\":17968:17974   */\n      dup4\n        /* \"#utility.yul\":17961:18025   */\n      sstore\n        /* \"#utility.yul\":17883:18039   */\n      pop\n        /* \"#utility.yul\":17860:18039   */\n    tag_313:\n        /* \"#utility.yul\":18085:18086   */\n      0x01\n        /* \"#utility.yul\":18081:18082   */\n      0x02\n        /* \"#utility.yul\":18073:18079   */\n      dup9\n        /* \"#utility.yul\":18069:18083   */\n      mul\n        /* \"#utility.yul\":18065:18087   */\n      add\n        /* \"#utility.yul\":18059:18063   */\n      dup9\n        /* \"#utility.yul\":18052:18088   */\n      sstore\n        /* \"#utility.yul\":17487:18098   */\n      pop\n      pop\n      pop\n        /* \"#utility.yul\":17450:18337   */\n    tag_305:\n      pop\n        /* \"#utility.yul\":17040:18343   */\n      pop\n      pop\n      pop\n        /* \"#utility.yul\":16948:18343   */\n      pop\n      pop\n      jump\t// out\n        /* \"#utility.yul\":18349:18497   */\n    tag_135:\n        /* \"#utility.yul\":18447:18453   */\n      dup3\n        /* \"#utility.yul\":18442:18445   */\n      dup2\n        /* \"#utility.yul\":18437:18440   */\n      dup4\n        /* \"#utility.yul\":18424:18454   */\n      calldatacopy\n        /* \"#utility.yul\":18488:18489   */\n      0x00\n        /* \"#utility.yul\":18479:18485   */\n      dup4\n        /* \"#utility.yul\":18474:18477   */\n      dup4\n        /* \"#utility.yul\":18470:18486   */\n      add\n        /* \"#utility.yul\":18463:18490   */\n      mstore\n        /* \"#utility.yul\":18349:18497   */\n      pop\n      pop\n      pop\n      jump\t// out\n        /* \"#utility.yul\":18527:18844   */\n    tag_136:\n        /* \"#utility.yul\":18625:18628   */\n      0x00\n        /* \"#utility.yul\":18646:18717   */\n      tag_317\n        /* \"#utility.yul\":18710:18716   */\n      dup4\n        /* \"#utility.yul\":18705:18708   */\n      dup6\n        /* \"#utility.yul\":18646:18717   */\n      tag_89\n      jump\t// in\n    tag_317:\n        /* \"#utility.yul\":18639:18717   */\n      swap4\n      pop\n        /* \"#utility.yul\":18727:18783   */\n      tag_318\n        /* \"#utility.yul\":18776:18782   */\n      dup4\n        /* \"#utility.yul\":18771:18774   */\n      dup6\n        /* \"#utility.yul\":18764:18769   */\n      dup5\n        /* \"#utility.yul\":18727:18783   */\n      tag_135\n      jump\t// in\n    tag_318:\n        /* \"#utility.yul\":18808:18837   */\n      tag_319\n        /* \"#utility.yul\":18830:18836   */\n      dup4\n        /* \"#utility.yul\":18808:18837   */\n      tag_91\n      jump\t// in\n    tag_319:\n        /* \"#utility.yul\":18803:18806   */\n      dup5\n        /* \"#utility.yul\":18799:18838   */\n      add\n        /* \"#utility.yul\":18792:18838   */\n      swap1\n      pop\n        /* \"#utility.yul\":18527:18844   */\n      swap4\n      swap3\n      pop\n      pop\n      pop\n      jump\t// out\n        /* \"#utility.yul\":18850:19293   */\n    tag_49:\n        /* \"#utility.yul\":19001:19005   */\n      0x00\n        /* \"#utility.yul\":19039:19041   */\n      0x40\n        /* \"#utility.yul\":19028:19037   */\n      dup3\n        /* \"#utility.yul\":19024:19042   */\n      add\n        /* \"#utility.yul\":19016:19042   */\n      swap1\n      pop\n        /* \"#utility.yul\":19088:19097   */\n      dup2\n        /* \"#utility.yul\":19082:19086   */\n      dup2\n        /* \"#utility.yul\":19078:19098   */\n      sub\n        /* \"#utility.yul\":19074:19075   */\n      0x00\n        /* \"#utility.yul\":19063:19072   */\n      dup4\n        /* \"#utility.yul\":19059:19076   */\n      add\n        /* \"#utility.yul\":19052:19099   */\n      mstore\n        /* \"#utility.yul\":19116:19204   */\n      tag_321\n        /* \"#utility.yul\":19199:19203   */\n      dup2\n        /* \"#utility.yul\":19190:19196   */\n      dup6\n        /* \"#utility.yul\":19182:19188   */\n      dup8\n        /* \"#utility.yul\":19116:19204   */\n      tag_136\n      jump\t// in\n    tag_321:\n        /* \"#utility.yul\":19108:19204   */\n      swap1\n      pop\n        /* \"#utility.yul\":19214:19286   */\n      tag_322\n        /* \"#utility.yul\":19282:19284   */\n      0x20\n        /* \"#utility.yul\":19271:19280   */\n      dup4\n        /* \"#utility.yul\":19267:19285   */\n      add\n        /* \"#utility.yul\":19258:19264   */\n      dup5\n        /* \"#utility.yul\":19214:19286   */\n      tag_93\n      jump\t// in\n    tag_322:\n        /* \"#utility.yul\":18850:19293   */\n      swap5\n      swap4\n      pop\n      pop\n      pop\n      pop\n      jump\t// out\n\n    auxdata: 0xa2646970667358221220f0c3e6ed088735f49b652f7ab52f7d120c985c6f906036a428760f073f7c2b6364736f6c634300081a0033\n}\n",
				"bytecode": {
					"linkReferences": {},
					"object": "6080604052348015600e575f80fd5b506111e78061001c5f395ff3fe608060405234801561000f575f80fd5b5060043610610060575f3560e01c80630b1e7f8314610064578063178cc28e1461009657806330561100146100b2578063368c093c146100d05780634d622e7a146100ee578063de6f24bb14610120575b5f80fd5b61007e60048036038101906100799190610905565b61013c565b60405161008d939291906109ee565b60405180910390f35b6100b060048036038101906100ab9190610a8b565b610215565b005b6100ba61036c565b6040516100c79190610c44565b60405180910390f35b6100d86104b5565b6040516100e59190610d6c565b60405180910390f35b61010860048036038101906101039190610db6565b61063a565b604051610117939291906109ee565b60405180910390f35b61013a60048036038101906101359190610df4565b61071f565b005b5f818154811061014a575f80fd5b905f5260205f2090600302015f91509050805f015f9054906101000a900473ffffffffffffffffffffffffffffffffffffffff169080600101805461018e90610e7e565b80601f01602080910402602001604051908101604052809291908181526020018280546101ba90610e7e565b80156102055780601f106101dc57610100808354040283529160200191610205565b820191905f5260205f20905b8154815290600101906020018083116101e857829003601f168201915b5050505050908060020154905083565b5f60405180606001604052803373ffffffffffffffffffffffffffffffffffffffff16815260200184848080601f0160208091040260200160405190810160405280939291908181526020018383808284375f81840152601f19601f82011690508083019250505050505050815260200142815250908060018154018082558091505060019003905f5260205f2090600302015f909190919091505f820151815f015f6101000a81548173ffffffffffffffffffffffffffffffffffffffff021916908373ffffffffffffffffffffffffffffffffffffffff16021790555060208201518160010190816103099190611078565b506040820151816002015550503373ffffffffffffffffffffffffffffffffffffffff167f4220cd30ee23a1a4323898d66dc49f1590b9863d860cf84c674c8614e18d496b83834260405161036093929190611181565b60405180910390a25050565b60605f805480602002602001604051908101604052809291908181526020015f905b828210156104ac578382905f5260205f2090600302016040518060600160405290815f82015f9054906101000a900473ffffffffffffffffffffffffffffffffffffffff1673ffffffffffffffffffffffffffffffffffffffff1673ffffffffffffffffffffffffffffffffffffffff16815260200160018201805461041390610e7e565b80601f016020809104026020016040519081016040528092919081815260200182805461043f90610e7e565b801561048a5780601f106104615761010080835404028352916020019161048a565b820191905f5260205f20905b81548152906001019060200180831161046d57829003601f168201915b505050505081526020016002820154815250508152602001906001019061038e565b50505050905090565b606060015f3373ffffffffffffffffffffffffffffffffffffffff1673ffffffffffffffffffffffffffffffffffffffff1681526020019081526020015f20805480602002602001604051908101604052809291908181526020015f905b82821015610631578382905f5260205f2090600302016040518060600160405290815f82015f9054906101000a900473ffffffffffffffffffffffffffffffffffffffff1673ffffffffffffffffffffffffffffffffffffffff1673ffffffffffffffffffffffffffffffffffffffff16815260200160018201805461059890610e7e565b80601f01602080910402602001604051908101604052809291908181526020018280546105c490610e7e565b801561060f5780601f106105e65761010080835404028352916020019161060f565b820191905f5260205f20905b8154815290600101906020018083116105f257829003601f168201915b5050505050815260200160028201548152505081526020019060010190610513565b50505050905090565b6001602052815f5260405f208181548110610653575f80fd5b905f5260205f2090600302015f9150915050805f015f9054906101000a900473ffffffffffffffffffffffffffffffffffffffff169080600101805461069890610e7e565b80601f01602080910402602001604051908101604052809291908181526020018280546106c490610e7e565b801561070f5780601f106106e65761010080835404028352916020019161070f565b820191905f5260205f20905b8154815290600101906020018083116106f257829003601f168201915b5050505050908060020154905083565b60015f8473ffffffffffffffffffffffffffffffffffffffff1673ffffffffffffffffffffffffffffffffffffffff1681526020019081526020015f2060405180606001604052803373ffffffffffffffffffffffffffffffffffffffff16815260200184848080601f0160208091040260200160405190810160405280939291908181526020018383808284375f81840152601f19601f82011690508083019250505050505050815260200142815250908060018154018082558091505060019003905f5260205f2090600302015f909190919091505f820151815f015f6101000a81548173ffffffffffffffffffffffffffffffffffffffff021916908373ffffffffffffffffffffffffffffffffffffffff160217905550602082015181600101908161084f9190611078565b506040820151816002015550508273ffffffffffffffffffffffffffffffffffffffff163373ffffffffffffffffffffffffffffffffffffffff167f820e6d37b56b06482f38c0c5918db7d094c4b90fb974528a28d83440790640998484426040516108bd93929190611181565b60405180910390a3505050565b5f80fd5b5f80fd5b5f819050919050565b6108e4816108d2565b81146108ee575f80fd5b50565b5f813590506108ff816108db565b92915050565b5f6020828403121561091a576109196108ca565b5b5f610927848285016108f1565b91505092915050565b5f73ffffffffffffffffffffffffffffffffffffffff82169050919050565b5f61095982610930565b9050919050565b6109698161094f565b82525050565b5f81519050919050565b5f82825260208201905092915050565b8281835e5f83830152505050565b5f601f19601f8301169050919050565b5f6109b18261096f565b6109bb8185610979565b93506109cb818560208601610989565b6109d481610997565b840191505092915050565b6109e8816108d2565b82525050565b5f606082019050610a015f830186610960565b8181036020830152610a1381856109a7565b9050610a2260408301846109df565b949350505050565b5f80fd5b5f80fd5b5f80fd5b5f8083601f840112610a4b57610a4a610a2a565b5b8235905067ffffffffffffffff811115610a6857610a67610a2e565b5b602083019150836001820283011115610a8457610a83610a32565b5b9250929050565b5f8060208385031215610aa157610aa06108ca565b5b5f83013567ffffffffffffffff811115610abe57610abd6108ce565b5b610aca85828601610a36565b92509250509250929050565b5f81519050919050565b5f82825260208201905092915050565b5f819050602082019050919050565b610b088161094f565b82525050565b5f82825260208201905092915050565b5f610b288261096f565b610b328185610b0e565b9350610b42818560208601610989565b610b4b81610997565b840191505092915050565b610b5f816108d2565b82525050565b5f606083015f830151610b7a5f860182610aff565b5060208301518482036020860152610b928282610b1e565b9150506040830151610ba76040860182610b56565b508091505092915050565b5f610bbd8383610b65565b905092915050565b5f602082019050919050565b5f610bdb82610ad6565b610be58185610ae0565b935083602082028501610bf785610af0565b805f5b85811015610c325784840389528151610c138582610bb2565b9450610c1e83610bc5565b925060208a01995050600181019050610bfa565b50829750879550505050505092915050565b5f6020820190508181035f830152610c5c8184610bd1565b905092915050565b5f81519050919050565b5f82825260208201905092915050565b5f819050602082019050919050565b5f606083015f830151610ca25f860182610aff565b5060208301518482036020860152610cba8282610b1e565b9150506040830151610ccf6040860182610b56565b508091505092915050565b5f610ce58383610c8d565b905092915050565b5f602082019050919050565b5f610d0382610c64565b610d0d8185610c6e565b935083602082028501610d1f85610c7e565b805f5b85811015610d5a5784840389528151610d3b8582610cda565b9450610d4683610ced565b925060208a01995050600181019050610d22565b50829750879550505050505092915050565b5f6020820190508181035f830152610d848184610cf9565b905092915050565b610d958161094f565b8114610d9f575f80fd5b50565b5f81359050610db081610d8c565b92915050565b5f8060408385031215610dcc57610dcb6108ca565b5b5f610dd985828601610da2565b9250506020610dea858286016108f1565b9150509250929050565b5f805f60408486031215610e0b57610e0a6108ca565b5b5f610e1886828701610da2565b935050602084013567ffffffffffffffff811115610e3957610e386108ce565b5b610e4586828701610a36565b92509250509250925092565b7f4e487b71000000000000000000000000000000000000000000000000000000005f52602260045260245ffd5b5f6002820490506001821680610e9557607f821691505b602082108103610ea857610ea7610e51565b5b50919050565b7f4e487b71000000000000000000000000000000000000000000000000000000005f52604160045260245ffd5b5f819050815f5260205f209050919050565b5f6020601f8301049050919050565b5f82821b905092915050565b5f60088302610f377fffffffffffffffffffffffffffffffffffffffffffffffffffffffffffffffff82610efc565b610f418683610efc565b95508019841693508086168417925050509392505050565b5f819050919050565b5f610f7c610f77610f72846108d2565b610f59565b6108d2565b9050919050565b5f819050919050565b610f9583610f62565b610fa9610fa182610f83565b848454610f08565b825550505050565b5f90565b610fbd610fb1565b610fc8818484610f8c565b505050565b5b81811015610feb57610fe05f82610fb5565b600181019050610fce565b5050565b601f8211156110305761100181610edb565b61100a84610eed565b81016020851015611019578190505b61102d61102585610eed565b830182610fcd565b50505b505050565b5f82821c905092915050565b5f6110505f1984600802611035565b1980831691505092915050565b5f6110688383611041565b9150826002028217905092915050565b6110818261096f565b67ffffffffffffffff81111561109a57611099610eae565b5b6110a48254610e7e565b6110af828285610fef565b5f60209050601f8311600181146110e0575f84156110ce578287015190505b6110d8858261105d565b86555061113f565b601f1984166110ee86610edb565b5f5b82811015611115578489015182556001820191506020850194506020810190506110f0565b86831015611132578489015161112e601f891682611041565b8355505b6001600288020188555050505b505050505050565b828183375f83830152505050565b5f6111608385610979565b935061116d838584611147565b61117683610997565b840190509392505050565b5f6040820190508181035f83015261119a818587611155565b90506111a960208301846109df565b94935050505056fea2646970667358221220f0c3e6ed088735f49b652f7ab52f7d120c985c6f906036a428760f073f7c2b6364736f6c634300081a0033",
					"opcodes": "PUSH1 0x80 PUSH1 0x40 MSTORE CALLVALUE DUP1 ISZERO PUSH1 0xE JUMPI PUSH0 DUP1 REVERT JUMPDEST POP PUSH2 0x11E7 DUP1 PUSH2 0x1C PUSH0 CODECOPY PUSH0 RETURN INVALID PUSH1 0x80 PUSH1 0x40 MSTORE CALLVALUE DUP1 ISZERO PUSH2 0xF JUMPI PUSH0 DUP1 REVERT JUMPDEST POP PUSH1 0x4 CALLDATASIZE LT PUSH2 0x60 JUMPI PUSH0 CALLDATALOAD PUSH1 0xE0 SHR DUP1 PUSH4 0xB1E7F83 EQ PUSH2 0x64 JUMPI DUP1 PUSH4 0x178CC28E EQ PUSH2 0x96 JUMPI DUP1 PUSH4 0x30561100 EQ PUSH2 0xB2 JUMPI DUP1 PUSH4 0x368C093C EQ PUSH2 0xD0 JUMPI DUP1 PUSH4 0x4D622E7A EQ PUSH2 0xEE JUMPI DUP1 PUSH4 0xDE6F24BB EQ PUSH2 0x120 JUMPI JUMPDEST PUSH0 DUP1 REVERT JUMPDEST PUSH2 0x7E PUSH1 0x4 DUP1 CALLDATASIZE SUB DUP2 ADD SWAP1 PUSH2 0x79 SWAP2 SWAP1 PUSH2 0x905 JUMP JUMPDEST PUSH2 0x13C JUMP JUMPDEST PUSH1 0x40 MLOAD PUSH2 0x8D SWAP4 SWAP3 SWAP2 SWAP1 PUSH2 0x9EE JUMP JUMPDEST PUSH1 0x40 MLOAD DUP1 SWAP2 SUB SWAP1 RETURN JUMPDEST PUSH2 0xB0 PUSH1 0x4 DUP1 CALLDATASIZE SUB DUP2 ADD SWAP1 PUSH2 0xAB SWAP2 SWAP1 PUSH2 0xA8B JUMP JUMPDEST PUSH2 0x215 JUMP JUMPDEST STOP JUMPDEST PUSH2 0xBA PUSH2 0x36C JUMP JUMPDEST PUSH1 0x40 MLOAD PUSH2 0xC7 SWAP2 SWAP1 PUSH2 0xC44 JUMP JUMPDEST PUSH1 0x40 MLOAD DUP1 SWAP2 SUB SWAP1 RETURN JUMPDEST PUSH2 0xD8 PUSH2 0x4B5 JUMP JUMPDEST PUSH1 0x40 MLOAD PUSH2 0xE5 SWAP2 SWAP1 PUSH2 0xD6C JUMP JUMPDEST PUSH1 0x40 MLOAD DUP1 SWAP2 SUB SWAP1 RETURN JUMPDEST PUSH2 0x108 PUSH1 0x4 DUP1 CALLDATASIZE SUB DUP2 ADD SWAP1 PUSH2 0x103 SWAP2 SWAP1 PUSH2 0xDB6 JUMP JUMPDEST PUSH2 0x63A JUMP JUMPDEST PUSH1 0x40 MLOAD PUSH2 0x117 SWAP4 SWAP3 SWAP2 SWAP1 PUSH2 0x9EE JUMP JUMPDEST PUSH1 0x40 MLOAD DUP1 SWAP2 SUB SWAP1 RETURN JUMPDEST PUSH2 0x13A PUSH1 0x4 DUP1 CALLDATASIZE SUB DUP2 ADD SWAP1 PUSH2 0x135 SWAP2 SWAP1 PUSH2 0xDF4 JUMP JUMPDEST PUSH2 0x71F JUMP JUMPDEST STOP JUMPDEST PUSH0 DUP2 DUP2 SLOAD DUP2 LT PUSH2 0x14A JUMPI PUSH0 DUP1 REVERT JUMPDEST SWAP1 PUSH0 MSTORE PUSH1 0x20 PUSH0 KECCAK256 SWAP1 PUSH1 0x3 MUL ADD PUSH0 SWAP2 POP SWAP1 POP DUP1 PUSH0 ADD PUSH0 SWAP1 SLOAD SWAP1 PUSH2 0x100 EXP SWAP1 DIV PUSH20 0xFFFFFFFFFFFFFFFFFFFFFFFFFFFFFFFFFFFFFFFF AND SWAP1 DUP1 PUSH1 0x1 ADD DUP1 SLOAD PUSH2 0x18E SWAP1 PUSH2 0xE7E JUMP JUMPDEST DUP1 PUSH1 0x1F ADD PUSH1 0x20 DUP1 SWAP2 DIV MUL PUSH1 0x20 ADD PUSH1 0x40 MLOAD SWAP1 DUP2 ADD PUSH1 0x40 MSTORE DUP1 SWAP3 SWAP2 SWAP1 DUP2 DUP2 MSTORE PUSH1 0x20 ADD DUP3 DUP1 SLOAD PUSH2 0x1BA SWAP1 PUSH2 0xE7E JUMP JUMPDEST DUP1 ISZERO PUSH2 0x205 JUMPI DUP1 PUSH1 0x1F LT PUSH2 0x1DC JUMPI PUSH2 0x100 DUP1 DUP4 SLOAD DIV MUL DUP4 MSTORE SWAP2 PUSH1 0x20 ADD SWAP2 PUSH2 0x205 JUMP JUMPDEST DUP3 ADD SWAP2 SWAP1 PUSH0 MSTORE PUSH1 0x20 PUSH0 KECCAK256 SWAP1 JUMPDEST DUP2 SLOAD DUP2 MSTORE SWAP1 PUSH1 0x1 ADD SWAP1 PUSH1 0x20 ADD DUP1 DUP4 GT PUSH2 0x1E8 JUMPI DUP3 SWAP1 SUB PUSH1 0x1F AND DUP3 ADD SWAP2 JUMPDEST POP POP POP POP POP SWAP1 DUP1 PUSH1 0x2 ADD SLOAD SWAP1 POP DUP4 JUMP JUMPDEST PUSH0 PUSH1 0x40 MLOAD DUP1 PUSH1 0x60 ADD PUSH1 0x40 MSTORE DUP1 CALLER PUSH20 0xFFFFFFFFFFFFFFFFFFFFFFFFFFFFFFFFFFFFFFFF AND DUP2 MSTORE PUSH1 0x20 ADD DUP5 DUP5 DUP1 DUP1 PUSH1 0x1F ADD PUSH1 0x20 DUP1 SWAP2 DIV MUL PUSH1 0x20 ADD PUSH1 0x40 MLOAD SWAP1 DUP2 ADD PUSH1 0x40 MSTORE DUP1 SWAP4 SWAP3 SWAP2 SWAP1 DUP2 DUP2 MSTORE PUSH1 0x20 ADD DUP4 DUP4 DUP1 DUP3 DUP5 CALLDATACOPY PUSH0 DUP2 DUP5 ADD MSTORE PUSH1 0x1F NOT PUSH1 0x1F DUP3 ADD AND SWAP1 POP DUP1 DUP4 ADD SWAP3 POP POP POP POP POP POP POP DUP2 MSTORE PUSH1 0x20 ADD TIMESTAMP DUP2 MSTORE POP SWAP1 DUP1 PUSH1 0x1 DUP2 SLOAD ADD DUP1 DUP3 SSTORE DUP1 SWAP2 POP POP PUSH1 0x1 SWAP1 SUB SWAP1 PUSH0 MSTORE PUSH1 0x20 PUSH0 KECCAK256 SWAP1 PUSH1 0x3 MUL ADD PUSH0 SWAP1 SWAP2 SWAP1 SWAP2 SWAP1 SWAP2 POP PUSH0 DUP3 ADD MLOAD DUP2 PUSH0 ADD PUSH0 PUSH2 0x100 EXP DUP2 SLOAD DUP2 PUSH20 0xFFFFFFFFFFFFFFFFFFFFFFFFFFFFFFFFFFFFFFFF MUL NOT AND SWAP1 DUP4 PUSH20 0xFFFFFFFFFFFFFFFFFFFFFFFFFFFFFFFFFFFFFFFF AND MUL OR SWAP1 SSTORE POP PUSH1 0x20 DUP3 ADD MLOAD DUP2 PUSH1 0x1 ADD SWAP1 DUP2 PUSH2 0x309 SWAP2 SWAP1 PUSH2 0x1078 JUMP JUMPDEST POP PUSH1 0x40 DUP3 ADD MLOAD DUP2 PUSH1 0x2 ADD SSTORE POP POP CALLER PUSH20 0xFFFFFFFFFFFFFFFFFFFFFFFFFFFFFFFFFFFFFFFF AND PUSH32 0x4220CD30EE23A1A4323898D66DC49F1590B9863D860CF84C674C8614E18D496B DUP4 DUP4 TIMESTAMP PUSH1 0x40 MLOAD PUSH2 0x360 SWAP4 SWAP3 SWAP2 SWAP1 PUSH2 0x1181 JUMP JUMPDEST PUSH1 0x40 MLOAD DUP1 SWAP2 SUB SWAP1 LOG2 POP POP JUMP JUMPDEST PUSH1 0x60 PUSH0 DUP1 SLOAD DUP1 PUSH1 0x20 MUL PUSH1 0x20 ADD PUSH1 0x40 MLOAD SWAP1 DUP2 ADD PUSH1 0x40 MSTORE DUP1 SWAP3 SWAP2 SWAP1 DUP2 DUP2 MSTORE PUSH1 0x20 ADD PUSH0 SWAP1 JUMPDEST DUP3 DUP3 LT ISZERO PUSH2 0x4AC JUMPI DUP4 DUP3 SWAP1 PUSH0 MSTORE PUSH1 0x20 PUSH0 KECCAK256 SWAP1 PUSH1 0x3 MUL ADD PUSH1 0x40 MLOAD DUP1 PUSH1 0x60 ADD PUSH1 0x40 MSTORE SWAP1 DUP2 PUSH0 DUP3 ADD PUSH0 SWAP1 SLOAD SWAP1 PUSH2 0x100 EXP SWAP1 DIV PUSH20 0xFFFFFFFFFFFFFFFFFFFFFFFFFFFFFFFFFFFFFFFF AND PUSH20 0xFFFFFFFFFFFFFFFFFFFFFFFFFFFFFFFFFFFFFFFF AND PUSH20 0xFFFFFFFFFFFFFFFFFFFFFFFFFFFFFFFFFFFFFFFF AND DUP2 MSTORE PUSH1 0x20 ADD PUSH1 0x1 DUP3 ADD DUP1 SLOAD PUSH2 0x413 SWAP1 PUSH2 0xE7E JUMP JUMPDEST DUP1 PUSH1 0x1F ADD PUSH1 0x20 DUP1 SWAP2 DIV MUL PUSH1 0x20 ADD PUSH1 0x40 MLOAD SWAP1 DUP2 ADD PUSH1 0x40 MSTORE DUP1 SWAP3 SWAP2 SWAP1 DUP2 DUP2 MSTORE PUSH1 0x20 ADD DUP3 DUP1 SLOAD PUSH2 0x43F SWAP1 PUSH2 0xE7E JUMP JUMPDEST DUP1 ISZERO PUSH2 0x48A JUMPI DUP1 PUSH1 0x1F LT PUSH2 0x461 JUMPI PUSH2 0x100 DUP1 DUP4 SLOAD DIV MUL DUP4 MSTORE SWAP2 PUSH1 0x20 ADD SWAP2 PUSH2 0x48A JUMP JUMPDEST DUP3 ADD SWAP2 SWAP1 PUSH0 MSTORE PUSH1 0x20 PUSH0 KECCAK256 SWAP1 JUMPDEST DUP2 SLOAD DUP2 MSTORE SWAP1 PUSH1 0x1 ADD SWAP1 PUSH1 0x20 ADD DUP1 DUP4 GT PUSH2 0x46D JUMPI DUP3 SWAP1 SUB PUSH1 0x1F AND DUP3 ADD SWAP2 JUMPDEST POP POP POP POP POP DUP2 MSTORE PUSH1 0x20 ADD PUSH1 0x2 DUP3 ADD SLOAD DUP2 MSTORE POP POP DUP2 MSTORE PUSH1 0x20 ADD SWAP1 PUSH1 0x1 ADD SWAP1 PUSH2 0x38E JUMP JUMPDEST POP POP POP POP SWAP1 POP SWAP1 JUMP JUMPDEST PUSH1 0x60 PUSH1 0x1 PUSH0 CALLER PUSH20 0xFFFFFFFFFFFFFFFFFFFFFFFFFFFFFFFFFFFFFFFF AND PUSH20 0xFFFFFFFFFFFFFFFFFFFFFFFFFFFFFFFFFFFFFFFF AND DUP2 MSTORE PUSH1 0x20 ADD SWAP1 DUP2 MSTORE PUSH1 0x20 ADD PUSH0 KECCAK256 DUP1 SLOAD DUP1 PUSH1 0x20 MUL PUSH1 0x20 ADD PUSH1 0x40 MLOAD SWAP1 DUP2 ADD PUSH1 0x40 MSTORE DUP1 SWAP3 SWAP2 SWAP1 DUP2 DUP2 MSTORE PUSH1 0x20 ADD PUSH0 SWAP1 JUMPDEST DUP3 DUP3 LT ISZERO PUSH2 0x631 JUMPI DUP4 DUP3 SWAP1 PUSH0 MSTORE PUSH1 0x20 PUSH0 KECCAK256 SWAP1 PUSH1 0x3 MUL ADD PUSH1 0x40 MLOAD DUP1 PUSH1 0x60 ADD PUSH1 0x40 MSTORE SWAP1 DUP2 PUSH0 DUP3 ADD PUSH0 SWAP1 SLOAD SWAP1 PUSH2 0x100 EXP SWAP1 DIV PUSH20 0xFFFFFFFFFFFFFFFFFFFFFFFFFFFFFFFFFFFFFFFF AND PUSH20 0xFFFFFFFFFFFFFFFFFFFFFFFFFFFFFFFFFFFFFFFF AND PUSH20 0xFFFFFFFFFFFFFFFFFFFFFFFFFFFFFFFFFFFFFFFF AND DUP2 MSTORE PUSH1 0x20 ADD PUSH1 0x1 DUP3 ADD DUP1 SLOAD PUSH2 0x598 SWAP1 PUSH2 0xE7E JUMP JUMPDEST DUP1 PUSH1 0x1F ADD PUSH1 0x20 DUP1 SWAP2 DIV MUL PUSH1 0x20 ADD PUSH1 0x40 MLOAD SWAP1 DUP2 ADD PUSH1 0x40 MSTORE DUP1 SWAP3 SWAP2 SWAP1 DUP2 DUP2 MSTORE PUSH1 0x20 ADD DUP3 DUP1 SLOAD PUSH2 0x5C4 SWAP1 PUSH2 0xE7E JUMP JUMPDEST DUP1 ISZERO PUSH2 0x60F JUMPI DUP1 PUSH1 0x1F LT PUSH2 0x5E6 JUMPI PUSH2 0x100 DUP1 DUP4 SLOAD DIV MUL DUP4 MSTORE SWAP2 PUSH1 0x20 ADD SWAP2 PUSH2 0x60F JUMP JUMPDEST DUP3 ADD SWAP2 SWAP1 PUSH0 MSTORE PUSH1 0x20 PUSH0 KECCAK256 SWAP1 JUMPDEST DUP2 SLOAD DUP2 MSTORE SWAP1 PUSH1 0x1 ADD SWAP1 PUSH1 0x20 ADD DUP1 DUP4 GT PUSH2 0x5F2 JUMPI DUP3 SWAP1 SUB PUSH1 0x1F AND DUP3 ADD SWAP2 JUMPDEST POP POP POP POP POP DUP2 MSTORE PUSH1 0x20 ADD PUSH1 0x2 DUP3 ADD SLOAD DUP2 MSTORE POP POP DUP2 MSTORE PUSH1 0x20 ADD SWAP1 PUSH1 0x1 ADD SWAP1 PUSH2 0x513 JUMP JUMPDEST POP POP POP POP SWAP1 POP SWAP1 JUMP JUMPDEST PUSH1 0x1 PUSH1 0x20 MSTORE DUP2 PUSH0 MSTORE PUSH1 0x40 PUSH0 KECCAK256 DUP2 DUP2 SLOAD DUP2 LT PUSH2 0x653 JUMPI PUSH0 DUP1 REVERT JUMPDEST SWAP1 PUSH0 MSTORE PUSH1 0x20 PUSH0 KECCAK256 SWAP1 PUSH1 0x3 MUL ADD PUSH0 SWAP2 POP SWAP2 POP POP DUP1 PUSH0 ADD PUSH0 SWAP1 SLOAD SWAP1 PUSH2 0x100 EXP SWAP1 DIV PUSH20 0xFFFFFFFFFFFFFFFFFFFFFFFFFFFFFFFFFFFFFFFF AND SWAP1 DUP1 PUSH1 0x1 ADD DUP1 SLOAD PUSH2 0x698 SWAP1 PUSH2 0xE7E JUMP JUMPDEST DUP1 PUSH1 0x1F ADD PUSH1 0x20 DUP1 SWAP2 DIV MUL PUSH1 0x20 ADD PUSH1 0x40 MLOAD SWAP1 DUP2 ADD PUSH1 0x40 MSTORE DUP1 SWAP3 SWAP2 SWAP1 DUP2 DUP2 MSTORE PUSH1 0x20 ADD DUP3 DUP1 SLOAD PUSH2 0x6C4 SWAP1 PUSH2 0xE7E JUMP JUMPDEST DUP1 ISZERO PUSH2 0x70F JUMPI DUP1 PUSH1 0x1F LT PUSH2 0x6E6 JUMPI PUSH2 0x100 DUP1 DUP4 SLOAD DIV MUL DUP4 MSTORE SWAP2 PUSH1 0x20 ADD SWAP2 PUSH2 0x70F JUMP JUMPDEST DUP3 ADD SWAP2 SWAP1 PUSH0 MSTORE PUSH1 0x20 PUSH0 KECCAK256 SWAP1 JUMPDEST DUP2 SLOAD DUP2 MSTORE SWAP1 PUSH1 0x1 ADD SWAP1 PUSH1 0x20 ADD DUP1 DUP4 GT PUSH2 0x6F2 JUMPI DUP3 SWAP1 SUB PUSH1 0x1F AND DUP3 ADD SWAP2 JUMPDEST POP POP POP POP POP SWAP1 DUP1 PUSH1 0x2 ADD SLOAD SWAP1 POP DUP4 JUMP JUMPDEST PUSH1 0x1 PUSH0 DUP5 PUSH20 0xFFFFFFFFFFFFFFFFFFFFFFFFFFFFFFFFFFFFFFFF AND PUSH20 0xFFFFFFFFFFFFFFFFFFFFFFFFFFFFFFFFFFFFFFFF AND DUP2 MSTORE PUSH1 0x20 ADD SWAP1 DUP2 MSTORE PUSH1 0x20 ADD PUSH0 KECCAK256 PUSH1 0x40 MLOAD DUP1 PUSH1 0x60 ADD PUSH1 0x40 MSTORE DUP1 CALLER PUSH20 0xFFFFFFFFFFFFFFFFFFFFFFFFFFFFFFFFFFFFFFFF AND DUP2 MSTORE PUSH1 0x20 ADD DUP5 DUP5 DUP1 DUP1 PUSH1 0x1F ADD PUSH1 0x20 DUP1 SWAP2 DIV MUL PUSH1 0x20 ADD PUSH1 0x40 MLOAD SWAP1 DUP2 ADD PUSH1 0x40 MSTORE DUP1 SWAP4 SWAP3 SWAP2 SWAP1 DUP2 DUP2 MSTORE PUSH1 0x20 ADD DUP4 DUP4 DUP1 DUP3 DUP5 CALLDATACOPY PUSH0 DUP2 DUP5 ADD MSTORE PUSH1 0x1F NOT PUSH1 0x1F DUP3 ADD AND SWAP1 POP DUP1 DUP4 ADD SWAP3 POP POP POP POP POP POP POP DUP2 MSTORE PUSH1 0x20 ADD TIMESTAMP DUP2 MSTORE POP SWAP1 DUP1 PUSH1 0x1 DUP2 SLOAD ADD DUP1 DUP3 SSTORE DUP1 SWAP2 POP POP PUSH1 0x1 SWAP1 SUB SWAP1 PUSH0 MSTORE PUSH1 0x20 PUSH0 KECCAK256 SWAP1 PUSH1 0x3 MUL ADD PUSH0 SWAP1 SWAP2 SWAP1 SWAP2 SWAP1 SWAP2 POP PUSH0 DUP3 ADD MLOAD DUP2 PUSH0 ADD PUSH0 PUSH2 0x100 EXP DUP2 SLOAD DUP2 PUSH20 0xFFFFFFFFFFFFFFFFFFFFFFFFFFFFFFFFFFFFFFFF MUL NOT AND SWAP1 DUP4 PUSH20 0xFFFFFFFFFFFFFFFFFFFFFFFFFFFFFFFFFFFFFFFF AND MUL OR SWAP1 SSTORE POP PUSH1 0x20 DUP3 ADD MLOAD DUP2 PUSH1 0x1 ADD SWAP1 DUP2 PUSH2 0x84F SWAP2 SWAP1 PUSH2 0x1078 JUMP JUMPDEST POP PUSH1 0x40 DUP3 ADD MLOAD DUP2 PUSH1 0x2 ADD SSTORE POP POP DUP3 PUSH20 0xFFFFFFFFFFFFFFFFFFFFFFFFFFFFFFFFFFFFFFFF AND CALLER PUSH20 0xFFFFFFFFFFFFFFFFFFFFFFFFFFFFFFFFFFFFFFFF AND PUSH32 0x820E6D37B56B06482F38C0C5918DB7D094C4B90FB974528A28D8344079064099 DUP5 DUP5 TIMESTAMP PUSH1 0x40 MLOAD PUSH2 0x8BD SWAP4 SWAP3 SWAP2 SWAP1 PUSH2 0x1181 JUMP JUMPDEST PUSH1 0x40 MLOAD DUP1 SWAP2 SUB SWAP1 LOG3 POP POP POP JUMP JUMPDEST PUSH0 DUP1 REVERT JUMPDEST PUSH0 DUP1 REVERT JUMPDEST PUSH0 DUP2 SWAP1 POP SWAP2 SWAP1 POP JUMP JUMPDEST PUSH2 0x8E4 DUP2 PUSH2 0x8D2 JUMP JUMPDEST DUP2 EQ PUSH2 0x8EE JUMPI PUSH0 DUP1 REVERT JUMPDEST POP JUMP JUMPDEST PUSH0 DUP2 CALLDATALOAD SWAP1 POP PUSH2 0x8FF DUP2 PUSH2 0x8DB JUMP JUMPDEST SWAP3 SWAP2 POP POP JUMP JUMPDEST PUSH0 PUSH1 0x20 DUP3 DUP5 SUB SLT ISZERO PUSH2 0x91A JUMPI PUSH2 0x919 PUSH2 0x8CA JUMP JUMPDEST JUMPDEST PUSH0 PUSH2 0x927 DUP5 DUP3 DUP6 ADD PUSH2 0x8F1 JUMP JUMPDEST SWAP2 POP POP SWAP3 SWAP2 POP POP JUMP JUMPDEST PUSH0 PUSH20 0xFFFFFFFFFFFFFFFFFFFFFFFFFFFFFFFFFFFFFFFF DUP3 AND SWAP1 POP SWAP2 SWAP1 POP JUMP JUMPDEST PUSH0 PUSH2 0x959 DUP3 PUSH2 0x930 JUMP JUMPDEST SWAP1 POP SWAP2 SWAP1 POP JUMP JUMPDEST PUSH2 0x969 DUP2 PUSH2 0x94F JUMP JUMPDEST DUP3 MSTORE POP POP JUMP JUMPDEST PUSH0 DUP2 MLOAD SWAP1 POP SWAP2 SWAP1 POP JUMP JUMPDEST PUSH0 DUP3 DUP3 MSTORE PUSH1 0x20 DUP3 ADD SWAP1 POP SWAP3 SWAP2 POP POP JUMP JUMPDEST DUP3 DUP2 DUP4 MCOPY PUSH0 DUP4 DUP4 ADD MSTORE POP POP POP JUMP JUMPDEST PUSH0 PUSH1 0x1F NOT PUSH1 0x1F DUP4 ADD AND SWAP1 POP SWAP2 SWAP1 POP JUMP JUMPDEST PUSH0 PUSH2 0x9B1 DUP3 PUSH2 0x96F JUMP JUMPDEST PUSH2 0x9BB DUP2 DUP6 PUSH2 0x979 JUMP JUMPDEST SWAP4 POP PUSH2 0x9CB DUP2 DUP6 PUSH1 0x20 DUP7 ADD PUSH2 0x989 JUMP JUMPDEST PUSH2 0x9D4 DUP2 PUSH2 0x997 JUMP JUMPDEST DUP5 ADD SWAP2 POP POP SWAP3 SWAP2 POP POP JUMP JUMPDEST PUSH2 0x9E8 DUP2 PUSH2 0x8D2 JUMP JUMPDEST DUP3 MSTORE POP POP JUMP JUMPDEST PUSH0 PUSH1 0x60 DUP3 ADD SWAP1 POP PUSH2 0xA01 PUSH0 DUP4 ADD DUP7 PUSH2 0x960 JUMP JUMPDEST DUP2 DUP2 SUB PUSH1 0x20 DUP4 ADD MSTORE PUSH2 0xA13 DUP2 DUP6 PUSH2 0x9A7 JUMP JUMPDEST SWAP1 POP PUSH2 0xA22 PUSH1 0x40 DUP4 ADD DUP5 PUSH2 0x9DF JUMP JUMPDEST SWAP5 SWAP4 POP POP POP POP JUMP JUMPDEST PUSH0 DUP1 REVERT JUMPDEST PUSH0 DUP1 REVERT JUMPDEST PUSH0 DUP1 REVERT JUMPDEST PUSH0 DUP1 DUP4 PUSH1 0x1F DUP5 ADD SLT PUSH2 0xA4B JUMPI PUSH2 0xA4A PUSH2 0xA2A JUMP JUMPDEST JUMPDEST DUP3 CALLDATALOAD SWAP1 POP PUSH8 0xFFFFFFFFFFFFFFFF DUP2 GT ISZERO PUSH2 0xA68 JUMPI PUSH2 0xA67 PUSH2 0xA2E JUMP JUMPDEST JUMPDEST PUSH1 0x20 DUP4 ADD SWAP2 POP DUP4 PUSH1 0x1 DUP3 MUL DUP4 ADD GT ISZERO PUSH2 0xA84 JUMPI PUSH2 0xA83 PUSH2 0xA32 JUMP JUMPDEST JUMPDEST SWAP3 POP SWAP3 SWAP1 POP JUMP JUMPDEST PUSH0 DUP1 PUSH1 0x20 DUP4 DUP6 SUB SLT ISZERO PUSH2 0xAA1 JUMPI PUSH2 0xAA0 PUSH2 0x8CA JUMP JUMPDEST JUMPDEST PUSH0 DUP4 ADD CALLDATALOAD PUSH8 0xFFFFFFFFFFFFFFFF DUP2 GT ISZERO PUSH2 0xABE JUMPI PUSH2 0xABD PUSH2 0x8CE JUMP JUMPDEST JUMPDEST PUSH2 0xACA DUP6 DUP3 DUP7 ADD PUSH2 0xA36 JUMP JUMPDEST SWAP3 POP SWAP3 POP POP SWAP3 POP SWAP3 SWAP1 POP JUMP JUMPDEST PUSH0 DUP2 MLOAD SWAP1 POP SWAP2 SWAP1 POP JUMP JUMPDEST PUSH0 DUP3 DUP3 MSTORE PUSH1 0x20 DUP3 ADD SWAP1 POP SWAP3 SWAP2 POP POP JUMP JUMPDEST PUSH0 DUP2 SWAP1 POP PUSH1 0x20 DUP3 ADD SWAP1 POP SWAP2 SWAP1 POP JUMP JUMPDEST PUSH2 0xB08 DUP2 PUSH2 0x94F JUMP JUMPDEST DUP3 MSTORE POP POP JUMP JUMPDEST PUSH0 DUP3 DUP3 MSTORE PUSH1 0x20 DUP3 ADD SWAP1 POP SWAP3 SWAP2 POP POP JUMP JUMPDEST PUSH0 PUSH2 0xB28 DUP3 PUSH2 0x96F JUMP JUMPDEST PUSH2 0xB32 DUP2 DUP6 PUSH2 0xB0E JUMP JUMPDEST SWAP4 POP PUSH2 0xB42 DUP2 DUP6 PUSH1 0x20 DUP7 ADD PUSH2 0x989 JUMP JUMPDEST PUSH2 0xB4B DUP2 PUSH2 0x997 JUMP JUMPDEST DUP5 ADD SWAP2 POP POP SWAP3 SWAP2 POP POP JUMP JUMPDEST PUSH2 0xB5F DUP2 PUSH2 0x8D2 JUMP JUMPDEST DUP3 MSTORE POP POP JUMP JUMPDEST PUSH0 PUSH1 0x60 DUP4 ADD PUSH0 DUP4 ADD MLOAD PUSH2 0xB7A PUSH0 DUP7 ADD DUP3 PUSH2 0xAFF JUMP JUMPDEST POP PUSH1 0x20 DUP4 ADD MLOAD DUP5 DUP3 SUB PUSH1 0x20 DUP7 ADD MSTORE PUSH2 0xB92 DUP3 DUP3 PUSH2 0xB1E JUMP JUMPDEST SWAP2 POP POP PUSH1 0x40 DUP4 ADD MLOAD PUSH2 0xBA7 PUSH1 0x40 DUP7 ADD DUP3 PUSH2 0xB56 JUMP JUMPDEST POP DUP1 SWAP2 POP POP SWAP3 SWAP2 POP POP JUMP JUMPDEST PUSH0 PUSH2 0xBBD DUP4 DUP4 PUSH2 0xB65 JUMP JUMPDEST SWAP1 POP SWAP3 SWAP2 POP POP JUMP JUMPDEST PUSH0 PUSH1 0x20 DUP3 ADD SWAP1 POP SWAP2 SWAP1 POP JUMP JUMPDEST PUSH0 PUSH2 0xBDB DUP3 PUSH2 0xAD6 JUMP JUMPDEST PUSH2 0xBE5 DUP2 DUP6 PUSH2 0xAE0 JUMP JUMPDEST SWAP4 POP DUP4 PUSH1 0x20 DUP3 MUL DUP6 ADD PUSH2 0xBF7 DUP6 PUSH2 0xAF0 JUMP JUMPDEST DUP1 PUSH0 JUMPDEST DUP6 DUP2 LT ISZERO PUSH2 0xC32 JUMPI DUP5 DUP5 SUB DUP10 MSTORE DUP2 MLOAD PUSH2 0xC13 DUP6 DUP3 PUSH2 0xBB2 JUMP JUMPDEST SWAP5 POP PUSH2 0xC1E DUP4 PUSH2 0xBC5 JUMP JUMPDEST SWAP3 POP PUSH1 0x20 DUP11 ADD SWAP10 POP POP PUSH1 0x1 DUP2 ADD SWAP1 POP PUSH2 0xBFA JUMP JUMPDEST POP DUP3 SWAP8 POP DUP8 SWAP6 POP POP POP POP POP POP SWAP3 SWAP2 POP POP JUMP JUMPDEST PUSH0 PUSH1 0x20 DUP3 ADD SWAP1 POP DUP2 DUP2 SUB PUSH0 DUP4 ADD MSTORE PUSH2 0xC5C DUP2 DUP5 PUSH2 0xBD1 JUMP JUMPDEST SWAP1 POP SWAP3 SWAP2 POP POP JUMP JUMPDEST PUSH0 DUP2 MLOAD SWAP1 POP SWAP2 SWAP1 POP JUMP JUMPDEST PUSH0 DUP3 DUP3 MSTORE PUSH1 0x20 DUP3 ADD SWAP1 POP SWAP3 SWAP2 POP POP JUMP JUMPDEST PUSH0 DUP2 SWAP1 POP PUSH1 0x20 DUP3 ADD SWAP1 POP SWAP2 SWAP1 POP JUMP JUMPDEST PUSH0 PUSH1 0x60 DUP4 ADD PUSH0 DUP4 ADD MLOAD PUSH2 0xCA2 PUSH0 DUP7 ADD DUP3 PUSH2 0xAFF JUMP JUMPDEST POP PUSH1 0x20 DUP4 ADD MLOAD DUP5 DUP3 SUB PUSH1 0x20 DUP7 ADD MSTORE PUSH2 0xCBA DUP3 DUP3 PUSH2 0xB1E JUMP JUMPDEST SWAP2 POP POP PUSH1 0x40 DUP4 ADD MLOAD PUSH2 0xCCF PUSH1 0x40 DUP7 ADD DUP3 PUSH2 0xB56 JUMP JUMPDEST POP DUP1 SWAP2 POP POP SWAP3 SWAP2 POP POP JUMP JUMPDEST PUSH0 PUSH2 0xCE5 DUP4 DUP4 PUSH2 0xC8D JUMP JUMPDEST SWAP1 POP SWAP3 SWAP2 POP POP JUMP JUMPDEST PUSH0 PUSH1 0x20 DUP3 ADD SWAP1 POP SWAP2 SWAP1 POP JUMP JUMPDEST PUSH0 PUSH2 0xD03 DUP3 PUSH2 0xC64 JUMP JUMPDEST PUSH2 0xD0D DUP2 DUP6 PUSH2 0xC6E JUMP JUMPDEST SWAP4 POP DUP4 PUSH1 0x20 DUP3 MUL DUP6 ADD PUSH2 0xD1F DUP6 PUSH2 0xC7E JUMP JUMPDEST DUP1 PUSH0 JUMPDEST DUP6 DUP2 LT ISZERO PUSH2 0xD5A JUMPI DUP5 DUP5 SUB DUP10 MSTORE DUP2 MLOAD PUSH2 0xD3B DUP6 DUP3 PUSH2 0xCDA JUMP JUMPDEST SWAP5 POP PUSH2 0xD46 DUP4 PUSH2 0xCED JUMP JUMPDEST SWAP3 POP PUSH1 0x20 DUP11 ADD SWAP10 POP POP PUSH1 0x1 DUP2 ADD SWAP1 POP PUSH2 0xD22 JUMP JUMPDEST POP DUP3 SWAP8 POP DUP8 SWAP6 POP POP POP POP POP POP SWAP3 SWAP2 POP POP JUMP JUMPDEST PUSH0 PUSH1 0x20 DUP3 ADD SWAP1 POP DUP2 DUP2 SUB PUSH0 DUP4 ADD MSTORE PUSH2 0xD84 DUP2 DUP5 PUSH2 0xCF9 JUMP JUMPDEST SWAP1 POP SWAP3 SWAP2 POP POP JUMP JUMPDEST PUSH2 0xD95 DUP2 PUSH2 0x94F JUMP JUMPDEST DUP2 EQ PUSH2 0xD9F JUMPI PUSH0 DUP1 REVERT JUMPDEST POP JUMP JUMPDEST PUSH0 DUP2 CALLDATALOAD SWAP1 POP PUSH2 0xDB0 DUP2 PUSH2 0xD8C JUMP JUMPDEST SWAP3 SWAP2 POP POP JUMP JUMPDEST PUSH0 DUP1 PUSH1 0x40 DUP4 DUP6 SUB SLT ISZERO PUSH2 0xDCC JUMPI PUSH2 0xDCB PUSH2 0x8CA JUMP JUMPDEST JUMPDEST PUSH0 PUSH2 0xDD9 DUP6 DUP3 DUP7 ADD PUSH2 0xDA2 JUMP JUMPDEST SWAP3 POP POP PUSH1 0x20 PUSH2 0xDEA DUP6 DUP3 DUP7 ADD PUSH2 0x8F1 JUMP JUMPDEST SWAP2 POP POP SWAP3 POP SWAP3 SWAP1 POP JUMP JUMPDEST PUSH0 DUP1 PUSH0 PUSH1 0x40 DUP5 DUP7 SUB SLT ISZERO PUSH2 0xE0B JUMPI PUSH2 0xE0A PUSH2 0x8CA JUMP JUMPDEST JUMPDEST PUSH0 PUSH2 0xE18 DUP7 DUP3 DUP8 ADD PUSH2 0xDA2 JUMP JUMPDEST SWAP4 POP POP PUSH1 0x20 DUP5 ADD CALLDATALOAD PUSH8 0xFFFFFFFFFFFFFFFF DUP2 GT ISZERO PUSH2 0xE39 JUMPI PUSH2 0xE38 PUSH2 0x8CE JUMP JUMPDEST JUMPDEST PUSH2 0xE45 DUP7 DUP3 DUP8 ADD PUSH2 0xA36 JUMP JUMPDEST SWAP3 POP SWAP3 POP POP SWAP3 POP SWAP3 POP SWAP3 JUMP JUMPDEST PUSH32 0x4E487B7100000000000000000000000000000000000000000000000000000000 PUSH0 MSTORE PUSH1 0x22 PUSH1 0x4 MSTORE PUSH1 0x24 PUSH0 REVERT JUMPDEST PUSH0 PUSH1 0x2 DUP3 DIV SWAP1 POP PUSH1 0x1 DUP3 AND DUP1 PUSH2 0xE95 JUMPI PUSH1 0x7F DUP3 AND SWAP2 POP JUMPDEST PUSH1 0x20 DUP3 LT DUP2 SUB PUSH2 0xEA8 JUMPI PUSH2 0xEA7 PUSH2 0xE51 JUMP JUMPDEST JUMPDEST POP SWAP2 SWAP1 POP JUMP JUMPDEST PUSH32 0x4E487B7100000000000000000000000000000000000000000000000000000000 PUSH0 MSTORE PUSH1 0x41 PUSH1 0x4 MSTORE PUSH1 0x24 PUSH0 REVERT JUMPDEST PUSH0 DUP2 SWAP1 POP DUP2 PUSH0 MSTORE PUSH1 0x20 PUSH0 KECCAK256 SWAP1 POP SWAP2 SWAP1 POP JUMP JUMPDEST PUSH0 PUSH1 0x20 PUSH1 0x1F DUP4 ADD DIV SWAP1 POP SWAP2 SWAP1 POP JUMP JUMPDEST PUSH0 DUP3 DUP3 SHL SWAP1 POP SWAP3 SWAP2 POP POP JUMP JUMPDEST PUSH0 PUSH1 0x8 DUP4 MUL PUSH2 0xF37 PUSH32 0xFFFFFFFFFFFFFFFFFFFFFFFFFFFFFFFFFFFFFFFFFFFFFFFFFFFFFFFFFFFFFFFF DUP3 PUSH2 0xEFC JUMP JUMPDEST PUSH2 0xF41 DUP7 DUP4 PUSH2 0xEFC JUMP JUMPDEST SWAP6 POP DUP1 NOT DUP5 AND SWAP4 POP DUP1 DUP7 AND DUP5 OR SWAP3 POP POP POP SWAP4 SWAP3 POP POP POP JUMP JUMPDEST PUSH0 DUP2 SWAP1 POP SWAP2 SWAP1 POP JUMP JUMPDEST PUSH0 PUSH2 0xF7C PUSH2 0xF77 PUSH2 0xF72 DUP5 PUSH2 0x8D2 JUMP JUMPDEST PUSH2 0xF59 JUMP JUMPDEST PUSH2 0x8D2 JUMP JUMPDEST SWAP1 POP SWAP2 SWAP1 POP JUMP JUMPDEST PUSH0 DUP2 SWAP1 POP SWAP2 SWAP1 POP JUMP JUMPDEST PUSH2 0xF95 DUP4 PUSH2 0xF62 JUMP JUMPDEST PUSH2 0xFA9 PUSH2 0xFA1 DUP3 PUSH2 0xF83 JUMP JUMPDEST DUP5 DUP5 SLOAD PUSH2 0xF08 JUMP JUMPDEST DUP3 SSTORE POP POP POP POP JUMP JUMPDEST PUSH0 SWAP1 JUMP JUMPDEST PUSH2 0xFBD PUSH2 0xFB1 JUMP JUMPDEST PUSH2 0xFC8 DUP2 DUP5 DUP5 PUSH2 0xF8C JUMP JUMPDEST POP POP POP JUMP JUMPDEST JUMPDEST DUP2 DUP2 LT ISZERO PUSH2 0xFEB JUMPI PUSH2 0xFE0 PUSH0 DUP3 PUSH2 0xFB5 JUMP JUMPDEST PUSH1 0x1 DUP2 ADD SWAP1 POP PUSH2 0xFCE JUMP JUMPDEST POP POP JUMP JUMPDEST PUSH1 0x1F DUP3 GT ISZERO PUSH2 0x1030 JUMPI PUSH2 0x1001 DUP2 PUSH2 0xEDB JUMP JUMPDEST PUSH2 0x100A DUP5 PUSH2 0xEED JUMP JUMPDEST DUP2 ADD PUSH1 0x20 DUP6 LT ISZERO PUSH2 0x1019 JUMPI DUP2 SWAP1 POP JUMPDEST PUSH2 0x102D PUSH2 0x1025 DUP6 PUSH2 0xEED JUMP JUMPDEST DUP4 ADD DUP3 PUSH2 0xFCD JUMP JUMPDEST POP POP JUMPDEST POP POP POP JUMP JUMPDEST PUSH0 DUP3 DUP3 SHR SWAP1 POP SWAP3 SWAP2 POP POP JUMP JUMPDEST PUSH0 PUSH2 0x1050 PUSH0 NOT DUP5 PUSH1 0x8 MUL PUSH2 0x1035 JUMP JUMPDEST NOT DUP1 DUP4 AND SWAP2 POP POP SWAP3 SWAP2 POP POP JUMP JUMPDEST PUSH0 PUSH2 0x1068 DUP4 DUP4 PUSH2 0x1041 JUMP JUMPDEST SWAP2 POP DUP3 PUSH1 0x2 MUL DUP3 OR SWAP1 POP SWAP3 SWAP2 POP POP JUMP JUMPDEST PUSH2 0x1081 DUP3 PUSH2 0x96F JUMP JUMPDEST PUSH8 0xFFFFFFFFFFFFFFFF DUP2 GT ISZERO PUSH2 0x109A JUMPI PUSH2 0x1099 PUSH2 0xEAE JUMP JUMPDEST JUMPDEST PUSH2 0x10A4 DUP3 SLOAD PUSH2 0xE7E JUMP JUMPDEST PUSH2 0x10AF DUP3 DUP3 DUP6 PUSH2 0xFEF JUMP JUMPDEST PUSH0 PUSH1 0x20 SWAP1 POP PUSH1 0x1F DUP4 GT PUSH1 0x1 DUP2 EQ PUSH2 0x10E0 JUMPI PUSH0 DUP5 ISZERO PUSH2 0x10CE JUMPI DUP3 DUP8 ADD MLOAD SWAP1 POP JUMPDEST PUSH2 0x10D8 DUP6 DUP3 PUSH2 0x105D JUMP JUMPDEST DUP7 SSTORE POP PUSH2 0x113F JUMP JUMPDEST PUSH1 0x1F NOT DUP5 AND PUSH2 0x10EE DUP7 PUSH2 0xEDB JUMP JUMPDEST PUSH0 JUMPDEST DUP3 DUP2 LT ISZERO PUSH2 0x1115 JUMPI DUP5 DUP10 ADD MLOAD DUP3 SSTORE PUSH1 0x1 DUP3 ADD SWAP2 POP PUSH1 0x20 DUP6 ADD SWAP5 POP PUSH1 0x20 DUP2 ADD SWAP1 POP PUSH2 0x10F0 JUMP JUMPDEST DUP7 DUP4 LT ISZERO PUSH2 0x1132 JUMPI DUP5 DUP10 ADD MLOAD PUSH2 0x112E PUSH1 0x1F DUP10 AND DUP3 PUSH2 0x1041 JUMP JUMPDEST DUP4 SSTORE POP JUMPDEST PUSH1 0x1 PUSH1 0x2 DUP9 MUL ADD DUP9 SSTORE POP POP POP JUMPDEST POP POP POP POP POP POP JUMP JUMPDEST DUP3 DUP2 DUP4 CALLDATACOPY PUSH0 DUP4 DUP4 ADD MSTORE POP POP POP JUMP JUMPDEST PUSH0 PUSH2 0x1160 DUP4 DUP6 PUSH2 0x979 JUMP JUMPDEST SWAP4 POP PUSH2 0x116D DUP4 DUP6 DUP5 PUSH2 0x1147 JUMP JUMPDEST PUSH2 0x1176 DUP4 PUSH2 0x997 JUMP JUMPDEST DUP5 ADD SWAP1 POP SWAP4 SWAP3 POP POP POP JUMP JUMPDEST PUSH0 PUSH1 0x40 DUP3 ADD SWAP1 POP DUP2 DUP2 SUB PUSH0 DUP4 ADD MSTORE PUSH2 0x119A DUP2 DUP6 DUP8 PUSH2 0x1155 JUMP JUMPDEST SWAP1 POP PUSH2 0x11A9 PUSH1 0x20 DUP4 ADD DUP5 PUSH2 0x9DF JUMP JUMPDEST SWAP5 SWAP4 POP POP POP POP JUMP INVALID LOG2 PUSH5 0x6970667358 0x22 SLT KECCAK256 CREATE 0xC3 0xE6 0xED ADDMOD DUP8 CALLDATALOAD DELEGATECALL SWAP12 PUSH6 0x2F7AB52F7D12 0xC SWAP9 TLOAD PUSH16 0x906036A428760F073F7C2B6364736F6C PUSH4 0x4300081A STOP CALLER "
				},
				"gasEstimates": {
					"creation": {
						"codeDepositCost": "916600",
						"executionCost": "953",
						"totalCost": "917553"
					},
					"external": {
						"getAllPosts()": "infinite",
						"getInbox()": "infinite",
						"inbox(address,uint256)": "infinite",
						"postToForum(string)": "infinite",
						"posts(uint256)": "infinite",
						"sendMessage(address,string)": "infinite"
					}
				},
				"methodIdentifiers": {
					"getAllPosts()": "30561100",
					"getInbox()": "368c093c",
					"inbox(address,uint256)": "4d622e7a",
					"postToForum(string)": "178cc28e",
					"posts(uint256)": "0b1e7f83",
					"sendMessage(address,string)": "de6f24bb"
				}
			},
			"storageLayout": {
				"storage": [
					{
						"astId": 19,
						"contract": "CivicLink.sol:CivicLink",
						"label": "posts",
						"offset": 0,
						"slot": "0",
						"type": "t_array(t_struct(Post)8_storage)dyn_storage"
					},
					{
						"astId": 25,
						"contract": "CivicLink.sol:CivicLink",
						"label": "inbox",
						"offset": 0,
						"slot": "1",
						"type": "t_mapping(t_address,t_array(t_struct(Message)15_storage)dyn_storage)"
					}
				],
				"types": {
					"t_address": {
						"encoding": "inplace",
						"label": "address",
						"numberOfBytes": "20"
					},
					"t_array(t_struct(Message)15_storage)dyn_storage": {
						"base": "t_struct(Message)15_storage",
						"encoding": "dynamic_array",
						"label": "struct CivicLink.Message[]",
						"numberOfBytes": "32"
					},
					"t_array(t_struct(Post)8_storage)dyn_storage": {
						"base": "t_struct(Post)8_storage",
						"encoding": "dynamic_array",
						"label": "struct CivicLink.Post[]",
						"numberOfBytes": "32"
					},
					"t_mapping(t_address,t_array(t_struct(Message)15_storage)dyn_storage)": {
						"encoding": "mapping",
						"key": "t_address",
						"label": "mapping(address => struct CivicLink.Message[])",
						"numberOfBytes": "32",
						"value": "t_array(t_struct(Message)15_storage)dyn_storage"
					},
					"t_string_storage": {
						"encoding": "bytes",
						"label": "string",
						"numberOfBytes": "32"
					},
					"t_struct(Message)15_storage": {
						"encoding": "inplace",
						"label": "struct CivicLink.Message",
						"members": [
							{
								"astId": 10,
								"contract": "CivicLink.sol:CivicLink",
								"label": "sender",
								"offset": 0,
								"slot": "0",
								"type": "t_address"
							},
							{
								"astId": 12,
								"contract": "CivicLink.sol:CivicLink",
								"label": "content",
								"offset": 0,
								"slot": "1",
								"type": "t_string_storage"
							},
							{
								"astId": 14,
								"contract": "CivicLink.sol:CivicLink",
								"label": "timestamp",
								"offset": 0,
								"slot": "2",
								"type": "t_uint256"
							}
						],
						"numberOfBytes": "96"
					},
					"t_struct(Post)8_storage": {
						"encoding": "inplace",
						"label": "struct CivicLink.Post",
						"members": [
							{
								"astId": 3,
								"contract": "CivicLink.sol:CivicLink",
								"label": "author",
								"offset": 0,
								"slot": "0",
								"type": "t_address"
							},
							{
								"astId": 5,
								"contract": "CivicLink.sol:CivicLink",
								"label": "message",
								"offset": 0,
								"slot": "1",
								"type": "t_string_storage"
							},
							{
								"astId": 7,
								"contract": "CivicLink.sol:CivicLink",
								"label": "timestamp",
								"offset": 0,
								"slot": "2",
								"type": "t_uint256"
							}
						],
						"numberOfBytes": "96"
					},
					"t_uint256": {
						"encoding": "inplace",
						"label": "uint256",
						"numberOfBytes": "32"
					}
				}
			},
			"userdoc": {
				"kind": "user",
				"methods": {},
				"version": 1
			}
		}
	}
}